00096400100000         2462705180001460007532430126       0334800000001104950 SPAAL INDUSTRIA E COMERCIO LTDBANCO DO BRASIL                         22906202306310900096403000000201190761CBR438                                                      
0009640010001110300010 20462705180001460007532430126       0334800000001104950 SPAAL INDUSTRIA E COMERCIO LTD                                                                                                                                 00753243
0009640010001300001G 01422989424000061750071150000647791155632184822060874724000196IND QUIMICA ANASTACIO S A     2707202300000000061750000000000000000009000124502       0000000000000002022206202304627051800014600000000000000000000000000025102023 
0009640010001300002G 01341919424000036697510901216172810120941550002004196935000227GOLDEN DISTRIBUIDORA LTDA     27072023000000000366975000000000000000090003332460      0000000000000003022706202304627051800014600000000000000000000000000027072033 
0009640010001300003G 01033989412000005400290150739000000256921301012017160849000478AURUM SOFTMATIC LTDA          15072023000000000054002000000000000000090000017249M0723 0000000000000001042806202304627051800014600000000000000000000000000011012024 
0009640010001300004H 010000000000000000                                        000000000000000000000000000000000000000000000000116072023000000000001080000000000000000                                                                                
0009640010001300005G 01237939423000063930814510900000019011003605502042580318000139VNF FACTORING MERCANTIL DE NEG26072023000000000639308000000000000000091901-1          0000000000000001022806202304627051800014600000000000000000000000000024092023 
0009640010001300006H 012041575733000131QPLAST IND E COM EMB PLAST EIRELI       000000000000000000000000000000000000000000000000300000000000000000000000000000000000000                                                                                
0009640010001300007G 01237929430000063930714510900000019012003605502042580318000139VNF FACTORING MERCANTIL DE NEG02082023000000000639307000000000000000091901-2          0000000000000001022806202304627051800014600000000000000000000000000001102023 
0009640010001300008H 012041575733000131QPLAST IND E COM EMB PLAST EIRELI       000000000000000000000000000000000000000000000000300000000000000000000000000000000000000                                                                                
0009640010001300009G 01237999437000063930714510900000019013003605502042580318000139VNF FACTORING MERCANTIL DE NEG09082023000000000639307000000000000000091901-3          0000000000000001022806202304627051800014600000000000000000000000000008102023 
0009640010001300010H 012041575733000131QPLAST IND E COM EMB PLAST EIRELI       000000000000000000000000000000000000000000000000300000000000000000000000000000000000000                                                                                
0009640010001300011G 01237919440000025977725140931790000012022481702000325020000132LACORTE                       12082023000000000259777000000000000000090000046654      0000000000000001022806202304627051800014600000000000000000000000010511102023 
0009640010001300012G 01033989442000084474293502104000000013309401042002275654000153GRAFICA SUPREMA EMBALAGENS LTD140820230000000008447420000000000000000956373 3         0000000000000003021506202304627051800014600000000000000000000000000010022024 
0009640010001300013G 01341919424000012732511251353863002021228340002002275654000153GRAFICA SUPREMA EMB LTDA      270720230000000001273250000000000000000956598   1       0000000000000003022706202304627051800014600000000000000000000000000027072033 
0009640010001300014G 01341999448000021600011251380925402932684960002088128111000129S L INDUSTRIA DE NAVALHAS LTDA200820230000000002160000000000000000000928834/1         0000000000000001032106202304627051800014600000000000000000000000000020082033 
0009640010001300015G 01237959412000012964522290913317347031000117602057575524000128REPANOL LAVANDERIA IND LTDA   15072023000000000129645000000000000000090029110         0000000000000001022206202304627051800014600000000000000000000000000013092023 
0009640010001300016G 01237959425000031350329390929390003183000741402009624100000163FELLOW                        28072023000000000313503000000000000000094649-A 23       0000000000000001022806202304627051800014600000000000000000000000000026092023 
0009640010001300017H 012022094184000139FLUONSEALS IND COM POL METROS           000000000000000000000000000000000000000000000000300000000000000000000000000000000000000                                                                                
0009640010001300018G 01707919421000012815000011211524869002022320162019576717000104KOPELL DIST.E LOGISTICA LTDA  2407202300000000012815000000000000000009523676N01       0000000000000001022606202304627051800014600000000000000000000000000027092023 
0009640010001300019G 01745939415000011017631820643090210070108994452060619202000148MESSER GASES LTDA             18072023000000000110176000000000000000098627277501      0000000000000001032706202304627051800014600000000000000000000000000016092023 
0009640010001300020G 01033969427000019600091446347006600015256401042054766498000127MICROXCOLOR IND COM LTDA      3007202300000000019600000000000000000009054400          0000000000000001022706202304627051800014600000000000000000000000010526012024 
00096400100015         000022000000000005281717                                                                                                                                                                                                       
00096400199999         000000964001000024000000                                                                                                                                                            00000000000000000000000000000                    
