00100000         2462705180001460007532430126       0334800000001104950 SPAAL INDUSTRIA E COMERCIO LTDBANCO DO BRASIL S.A.                    21909202317151100108008200001201190761PREVIA                                          30          
00100011C3001042 2462705180001460007532430126       0334800000001104950 SPAAL INDUSTRIA E COMERCIO LTD                         082042013000001                              00000                                                               
0010001300001A000000001069728000000020580X DIJAELTON SOUZA SILVA                             20092023BRL0000000000000000000000000983840000000000479508617920092023000000000098384                                        0 0    00    BD        
0010001300002B   100044339295817                                                                                                                                                                                                                
0010001300003A0000000010697280000000321648 ADELINO FERREIRA DOS SANTOS                       20092023BRL0000000000000000000000001269840000000000479508618020092023000000000126984                                        0 0    00    BD        
0010001300004B   100016929425818                                                                                                                                                                                                                
0010001300005A0000000010697280000000321656 ADELMIR SERAFIM PEREIRA                           20092023BRL0000000000000000000000000983840000000000479508618120092023000000000098384                                        0 0    00    BD        
0010001300006B   100014811123840                                                                                                                                                                                                                
0010001300007A0000000010697280000000321680 ADOALDO TEIXEIRA SOUZA                            20092023BRL0000000000000000000000000983840000000000479508618220092023000000000098384                                        0 0    00    BD        
0010001300008B   100060375620591                                                                                                                                                                                                                
0010001300009A0000000010697280000000321699 ADRIANA APRIGIO ANDRADE                           20092023BRL0000000000000000000000001069980000000000479508618320092023000000000106998                                        0 0    00    BD        
0010001300010B   100022574479807                                                                                                                                                                                                                
0010001300011A0000000010697280000000321702 ADRIANA DE OLIVEIRA SANTOS                        20092023BRL0000000000000000000000002727120000000000479508618420092023000000000272712                                        0 0    00    BD        
0010001300012B   100016120147802                                                                                                                                                                                                                
0010001300013A0000000010697280000000321710 ADRIANO PENEDO DA SILVA                           20092023BRL0000000000000000000000001576080000000000479508618520092023000000000157608                                        0 0    00    BD        
0010001300014B   100030620905883                                                                                                                                                                                                                
0010001300015A0000000010697280000000321729 AFONSO JOSE BEZERRA E SILVA                       20092023BRL0000000000000000000000001738160000000000479508618620092023000000000173816                                        0 0    00    BD        
0010001300016B   100004446021869                                                                                                                                                                                                                
0010001300017A0000000010697280000000321745 ALAIR JORGE DE ANDRADE                            20092023BRL0000000000000000000000001241230000000000479508618720092023000000000124123                                        0 0    00    BD        
0010001300018B   100014617143890                                                                                                                                                                                                                
0010001300019A0000000010697280000000321753 ALBERDAN BERTOLINO PEREIRA                        20092023BRL0000000000000000000000000983840000000000479508618820092023000000000098384                                        0 0    00    BD        
0010001300020B   100045031142391                                                                                                                                                                                                                
0010001300021A0000000010697280000000321761 ALCIDES DAKUZAKU                                  20092023BRL0000000000000000000000003478580000000000479508618920092023000000000347858                                        0 0    00    BD        
0010001300022B   100007734039812                                                                                                                                                                                                                
0010001300023A0000000010697280000000321788 ALEX BERNARDO                                     20092023BRL0000000000000000000000004495000000000000479508619020092023000000000449500                                        0 0    00    BD        
0010001300024B   100025123093800                                                                                                                                                                                                                
0010001300025A0000000010697280000000321796 ALEXANDRE FERREIRA DANTAS                         20092023BRL0000000000000000000000001110230000000000479508619120092023000000000111023                                        0 0    00    BD        
0010001300026B   100022464547867                                                                                                                                                                                                                
0010001300027A000000001069728000000032180X ALEXANDRE GERALDO SOUZA                           20092023BRL0000000000000000000000000983840000000000479508619220092023000000000098384                                        0 0    00    BD        
0010001300028B   100017749874810                                                                                                                                                                                                                
0010001300029A0000000010697280000000321818 ALEXANDRE JOSE DE SOUSA                           20092023BRL0000000000000000000000000983840000000000479508619320092023000000000098384                                        0 0    00    BD        
0010001300030B   100031381269877                                                                                                                                                                                                                
0010001300031A0000000010697280000000321826 ALZIRA MARIA ALMEIDA DOS SANTO                    20092023BRL0000000000000000000000000983840000000000479508619420092023000000000098384                                        0 0    00    BD        
0010001300032B   100028507846807                                                                                                                                                                                                                
0010001300033A0000000010697280000000321850 ANA PAULA DE OLIVEIRA                             20092023BRL0000000000000000000000000983840000000000479508619520092023000000000098384                                        0 0    00    BD        
0010001300034B   100029681002890                                                                                                                                                                                                                
0010001300035A0000000010697280000000321877 ANDERSON CLEMENTINO                               20092023BRL0000000000000000000000000983840000000000479508619620092023000000000098384                                        0 0    00    BD        
0010001300036B   100033412468860                                                                                                                                                                                                                
0010001300037A0000000010697280000000321931 ANNALI BARBOZA DA SILVA PEREIR                    20092023BRL0000000000000000000000000983840000000000479508619720092023000000000098384                                        0 0    00    BD        
0010001300038B   100008975255409                                                                                                                                                                                                                
0010001300039A000000001069728000000032194X ANTONIO AMARO DA SILVA                            20092023BRL0000000000000000000000001205600000000000479508619820092023000000000120560                                        0 0    00    BD        
0010001300040B   100064163210415                                                                                                                                                                                                                
0010001300041A0000000010697280000000321958 ANTONIO DE SOUZA RODRIGUES                        20092023BRL0000000000000000000000000983840000000000479508619920092023000000000098384                                        0 0    00    BD        
0010001300042B   100024666201890                                                                                                                                                                                                                
0010001300043A0000000010697280000000321966 ANTONIO HERBAS SARMIENTO                          20092023BRL0000000000000000000000001484340000000000479508620020092023000000000148434                                        0 0    00    BD        
0010001300044B   100023486474863                                                                                                                                                                                                                
0010001300045A0000000010697280000000321974 ANTONIO IREMAR GOMES DA SILVA                     20092023BRL0000000000000000000000000983840000000000479508620120092023000000000098384                                        0 0    00    BD        
0010001300046B   100033438398842                                                                                                                                                                                                                
0010001300047A0000000010697280000000321982 ANTONIO RESENDE MARTINS                           20092023BRL0000000000000000000000001314870000000000479508620220092023000000000131487                                        0 0    00    BD        
0010001300048B   100011375952803                                                                                                                                                                                                                
0010001300049A0000000010697280000000321990 ARLETE BORGES DA SILVA                            20092023BRL0000000000000000000000000983840000000000479508620320092023000000000098384                                        0 0    00    BD        
0010001300050B   100000968885551                                                                                                                                                                                                                
0010001300051A0000000010697280000000322016 BRUNA SUELEN SOUZA CALDAS                         20092023BRL0000000000000000000000000983840000000000479508620420092023000000000098384                                        0 0    00    BD        
0010001300052B   100037822394827                                                                                                                                                                                                                
0010001300053A0000000010697280000000322032 CARLOS ALBERTO DE LIMA                            20092023BRL0000000000000000000000001516970000000000479508620520092023000000000151697                                        0 0    00    BD        
0010001300054B   100032598303830                                                                                                                                                                                                                
0010001300055A0000000010697280000000322040 CARLOS EDUARDO DE JESUS                           20092023BRL0000000000000000000000000983840000000000479508620620092023000000000098384                                        0 0    00    BD        
0010001300056B   100032027163875                                                                                                                                                                                                                
0010001300057A0000000010697280000000322059 CAROLINA DE SOUZA EMILIO                          20092023BRL0000000000000000000000000983840000000000479508620720092023000000000098384                                        0 0    00    BD        
0010001300058B   100033650339803                                                                                                                                                                                                                
0010001300059A0000000010697280000000322067 CAROLINA SANTANA ANDRADE                          20092023BRL0000000000000000000000000983840000000000479508620820092023000000000098384                                        0 0    00    BD        
0010001300060B   100031958342866                                                                                                                                                                                                                
0010001300061A0000000010697280000000322075 CAROLINE FARIAS MELO                              20092023BRL0000000000000000000000001121770000000000479508620920092023000000000112177                                        0 0    00    BD        
0010001300062B   100040388829850                                                                                                                                                                                                                
0010001300063A0000000010697280000000322091 CELIO RIBEIRO DO NASCIMENTO                       20092023BRL0000000000000000000000000983840000000000479508621020092023000000000098384                                        0 0    00    BD        
0010001300064B   100029293814854                                                                                                                                                                                                                
0010001300065A0000000010697280000000322105 CELIO TEIXEIRA SANTIAGO                           20092023BRL0000000000000000000000001179620000000000479508621120092023000000000117962                                        0 0    00    BD        
0010001300066B   100028881142830                                                                                                                                                                                                                
0010001300067A0000000010697280000000322113 CELMA NEVES SANTANA                               20092023BRL0000000000000000000000001087680000000000479508621220092023000000000108768                                        0 0    00    BD        
0010001300068B   100038087186842                                                                                                                                                                                                                
0010001300069A0000000010697280000000322121 CICERO HOLANDA DE SOUSA                           20092023BRL0000000000000000000000001753820000000000479508621320092023000000000175382                                        0 0    00    BD        
0010001300070B   100012409730809                                                                                                                                                                                                                
0010001300071A0000000010697280000000322164 CLAUDIA DA SILVA OLIVEIRA                         20092023BRL0000000000000000000000001559290000000000479508621420092023000000000155929                                        0 0    00    BD        
0010001300072B   100016869586845                                                                                                                                                                                                                
0010001300073A0000000010697280000000322172 CLAUDIA DE MOURA SAMPAIO                          20092023BRL0000000000000000000000000983840000000000479508621520092023000000000098384                                        0 0    00    BD        
0010001300074B   100026942672890                                                                                                                                                                                                                
0010001300075A0000000010697280000000322180 CLAUDIA DE OLIVEIRA DUARTE                        20092023BRL0000000000000000000000001074940000000000479508621620092023000000000107494                                        0 0    00    BD        
0010001300076B   100032672475865                                                                                                                                                                                                                
0010001300077A0000000010697280000000322199 CLAUDIA MARIA PEREIRA DA SILVA                    20092023BRL0000000000000000000000001077490000000000479508621720092023000000000107749                                        0 0    00    BD        
0010001300078B   100008391600890                                                                                                                                                                                                                
0010001300079A0000000010697280000000322202 CLAUDILENE SOARES DA SILVA                        20092023BRL0000000000000000000000000983840000000000479508621820092023000000000098384                                        0 0    00    BD        
0010001300080B   100031360379878                                                                                                                                                                                                                
0010001300081A0000000010697280000000322210 CLAUDIONOR SANT ANNA CHAVES                       20092023BRL0000000000000000000000000983840000000000479508621920092023000000000098384                                        0 0    00    BD        
0010001300082B   100016086700826                                                                                                                                                                                                                
0010001300083A0000000010697280000000322237 CLAYTON ANDRADE DOS SANTOS                        20092023BRL0000000000000000000000000983840000000000479508622020092023000000000098384                                        0 0    00    BD        
0010001300084B   100037566455842                                                                                                                                                                                                                
0010001300085A0000000010697280000000322245 CLAYTON FERREIRA DA SILVA                         20092023BRL0000000000000000000000000901270000000000479508622120092023000000000090127                                        0 0    00    BD        
0010001300086B   100027632400893                                                                                                                                                                                                                
0010001300087A0000000010697280000000322253 CLEBER PINTO ALBINO                               20092023BRL0000000000000000000000002420050000000000479508622220092023000000000242005                                        0 0    00    BD        
0010001300088B   100021276364814                                                                                                                                                                                                                
0010001300089A0000000010697280000000322261 CLEITO MARTINS DE OLIVEIRA                        20092023BRL0000000000000000000000001170020000000000479508622320092023000000000117002                                        0 0    00    BD        
0010001300090B   100020590058843                                                                                                                                                                                                                
0010001300091A000000001069728000000032227X CLEONILDA DA SILVA TEREZA                         20092023BRL0000000000000000000000000983840000000000479508622420092023000000000098384                                        0 0    00    BD        
0010001300092B   100030825909856                                                                                                                                                                                                                
0010001300093A0000000010697280000000322288 CORACI DE SOUZA FERREIRA                          20092023BRL0000000000000000000000001909510000000000479508622520092023000000000190951                                        0 0    00    BD        
0010001300094B   100000798760648                                                                                                                                                                                                                
0010001300095A0000000010697280000000322296 CREUSA PENA DE OLIVEIRA DA SIL                    20092023BRL0000000000000000000000001121770000000000479508622620092023000000000112177                                        0 0    00    BD        
0010001300096B   100008983485876                                                                                                                                                                                                                
0010001300097A000000001069728000000032230X CRISTIANE APARECIDA BARBOSA DA                    20092023BRL0000000000000000000000001122020000000000479508622720092023000000000112202                                        0 0    00    BD        
0010001300098B   100015565110866                                                                                                                                                                                                                
0010001300099A0000000010697280000000322318 CRISTIANE APARECIDA DE ANDRADE                    20092023BRL0000000000000000000000002695850000000000479508622820092023000000000269585                                        0 0    00    BD        
0010001300100B   100017708032890                                                                                                                                                                                                                
0010001300101A0000000010697280000000322326 DALVANILZA LOURENCO SILVA                         20092023BRL0000000000000000000000000983840000000000479508622920092023000000000098384                                        0 0    00    BD        
0010001300102B   100031200520866                                                                                                                                                                                                                
0010001300103A0000000010697280000000322342 DANIEL PEREIRA RUAS                               20092023BRL0000000000000000000000001122990000000000479508623020092023000000000112299                                        0 0    00    BD        
0010001300104B   100039772339803                                                                                                                                                                                                                
0010001300105A0000000010697280000000322369 DIEGO RENAN MACHADO                               20092023BRL0000000000000000000000000983840000000000479508623120092023000000000098384                                        0 0    00    BD        
0010001300106B   100036913896867                                                                                                                                                                                                                
0010001300107A0000000010697280000000322377 DIOGO DA SILVA FERREIRA                           20092023BRL0000000000000000000000000949670000000000479508623220092023000000000094967                                        0 0    00    BD        
0010001300108B   100038240435807                                                                                                                                                                                                                
0010001300109A0000000010697280000000322385 DIOGO RODRIGUES DE LIMA                           20092023BRL0000000000000000000000000983840000000000479508623320092023000000000098384                                        0 0    00    BD        
0010001300110B   100041099422841                                                                                                                                                                                                                
0010001300111A0000000010697280000000322393 DOUGLAS ANTONIO DE SENE JUNIOR                    20092023BRL0000000000000000000000000983840000000000479508623420092023000000000098384                                        0 0    00    BD        
0010001300112B   100048656508814                                                                                                                                                                                                                
0010001300113A0000000010697280000000322407 DOUGLAS CERQUEIRA SOUZA                           20092023BRL0000000000000000000000000983840000000000479508623520092023000000000098384                                        0 0    00    BD        
0010001300114B   100041251394825                                                                                                                                                                                                                
0010001300115A0000000010697280000000322415 DOUGLAS DA CRUZ SANTANA                           20092023BRL0000000000000000000000000983840000000000479508623620092023000000000098384                                        0 0    00    BD        
0010001300116B   100035498172826                                                                                                                                                                                                                
0010001300117A0000000010697280000000322423 ED CARLOS CAPELATI                                20092023BRL0000000000000000000000002459510000000000479508623720092023000000000245951                                        0 0    00    BD        
0010001300118B   100018559765875                                                                                                                                                                                                                
0010001300119A0000000010697280000000322431 EDEMILSON MACEDO RIBEIRO                          20092023BRL0000000000000000000000000983840000000000479508623820092023000000000098384                                        0 0    00    BD        
0010001300120B   100020519988841                                                                                                                                                                                                                
0010001300121A000000001069728000000032244X EDI CARLOS DA SILVA                               20092023BRL0000000000000000000000000983840000000000479508623920092023000000000098384                                        0 0    00    BD        
0010001300122B   100028559737839                                                                                                                                                                                                                
0010001300123A0000000010697280000000322458 EDI MOREIRA DA CONCEICAO                          20092023BRL0000000000000000000000000983840000000000479508624020092023000000000098384                                        0 0    00    BD        
0010001300124B   100028477956855                                                                                                                                                                                                                
0010001300125A0000000010697280000000322474 EDLAINE CARVALHO DE SOUZA                         20092023BRL0000000000000000000000000983840000000000479508624120092023000000000098384                                        0 0    00    BD        
0010001300126B   100025458013808                                                                                                                                                                                                                
0010001300127A0000000010697280000000322482 EDSON LAURIANO DIAS                               20092023BRL0000000000000000000000000983840000000000479508624220092023000000000098384                                        0 0    00    BD        
0010001300128B   100030227595840                                                                                                                                                                                                                
0010001300129A0000000010697280000000322490 EDUARDO DA SILVA GOMES                            20092023BRL0000000000000000000000003066500000000000479508624320092023000000000306650                                        0 0    00    BD        
0010001300130B   100034371220886                                                                                                                                                                                                                
0010001300131A0000000010697280000000322504 EGIDIO HENRIQUE DE OLIVEIRA                       20092023BRL0000000000000000000000001232900000000000479508624420092023000000000123290                                        0 0    00    BD        
0010001300132B   100028061789833                                                                                                                                                                                                                
0010001300133A0000000010697280000000322512 ELAINE SANTIAGO DOS SANTOS SIL                    20092023BRL0000000000000000000000000983840000000000479508624520092023000000000098384                                        0 0    00    BD        
0010001300134B   100035039148895                                                                                                                                                                                                                
0010001300135A0000000010697280000000322520 ELIANE ALVES DE OLIVEIRA                          20092023BRL0000000000000000000000001170020000000000479508624620092023000000000117002                                        0 0    00    BD        
0010001300136B   100030964968894                                                                                                                                                                                                                
0010001300137A0000000010697280000000322539 ELIANE APARECIDA FERNANDES                        20092023BRL0000000000000000000000000983840000000000479508624720092023000000000098384                                        0 0    00    BD        
0010001300138B   100022176418832                                                                                                                                                                                                                
0010001300139A0000000010697280000000322563 ELISANGELA DA SILVA SANTOS                        20092023BRL0000000000000000000000001087680000000000479508624820092023000000000108768                                        0 0    00    BD        
0010001300140B   100022534374842                                                                                                                                                                                                                
0010001300141A0000000010697280000000322571 ELISETE DE PAULA GOMES CARNEIR                    20092023BRL0000000000000000000000001734740000000000479508624920092023000000000173474                                        0 0    00    BD        
0010001300142B   100027778794861                                                                                                                                                                                                                
0010001300143A000000001069728000000032258X EMERSON DANTAS DE OLIVEIRA                        20092023BRL0000000000000000000000001375610000000000479508625020092023000000000137561                                        0 0    00    BD        
0010001300144B   100014302663847                                                                                                                                                                                                                
0010001300145A0000000010697280000000322598 ENEIZE DE ALMEIDA SOARES                          20092023BRL0000000000000000000000001128960000000000479508625120092023000000000112896                                        0 0    00    BD        
0010001300146B   100003388447403                                                                                                                                                                                                                
0010001300147A0000000010697280000000322628 EVALDO FERREIRA DE SOUZA                          20092023BRL0000000000000000000000001499570000000000479508625220092023000000000149957                                        0 0    00    BD        
0010001300148B   100014811479866                                                                                                                                                                                                                
0010001300149A0000000010697280000000322644 EVERALDO BISPO SA                                 20092023BRL0000000000000000000000001081520000000000479508625320092023000000000108152                                        0 0    00    BD        
0010001300150B   100095659790500                                                                                                                                                                                                                
0010001300151A0000000010697280000000322652 EVERALDO DE OLIVEIRA ALVES                        20092023BRL0000000000000000000000001367530000000000479508625420092023000000000136753                                        0 0    00    BD        
0010001300152B   100014665774870                                                                                                                                                                                                                
0010001300153A0000000010697280000000322679 FABIO ALVES DA SILVA                              20092023BRL0000000000000000000000001081520000000000479508625520092023000000000108152                                        0 0    00    BD        
0010001300154B   100030230758835                                                                                                                                                                                                                
0010001300155A0000000010697280000000322687 FABIOLA EVELYN RAMOS DE CARVAL                    20092023BRL0000000000000000000000000983840000000000479508625620092023000000000098384                                        0 0    00    BD        
0010001300156B   100045330614864                                                                                                                                                                                                                
0010001300157A0000000010697280000000322717 FERNANDA MATIAS DE SOUZA                          20092023BRL0000000000000000000000000983840000000000479508625720092023000000000098384                                        0 0    00    BD        
0010001300158B   100022796437825                                                                                                                                                                                                                
0010001300159A0000000010697280000000322741 FRANCISCO DAVI SANTOS RODRIGUE                    20092023BRL0000000000000000000000001087680000000000479508625820092023000000000108768                                        0 0    00    BD        
0010001300160B   100031401920888                                                                                                                                                                                                                
0010001300161A000000001069728000000032275X FRANCISCO EDUARDO RAMOS DE PAU                    20092023BRL0000000000000000000000000983840000000000479508625920092023000000000098384                                        0 0    00    BD        
0010001300162B   100034921216835                                                                                                                                                                                                                
0010001300163A0000000010697280000000322768 FRANCISCO JONAS DA SILVA                          20092023BRL0000000000000000000000000983840000000000479508626020092023000000000098384                                        0 0    00    BD        
0010001300164B   100000877648301                                                                                                                                                                                                                
0010001300165A0000000010697280000000322776 GABRIEL ROCHA MASSOLI                             20092023BRL0000000000000000000000001107180000000000479508626120092023000000000110718                                        0 0    00    BD        
0010001300166B   100047054005856                                                                                                                                                                                                                
0010001300167A0000000010697280000000322784 GENIVALDO GOMES DE OLIVEIRA                       20092023BRL0000000000000000000000000983840000000000479508626220092023000000000098384                                        0 0    00    BD        
0010001300168B   100025648398867                                                                                                                                                                                                                
0010001300169A0000000010697280000000322792 GEOGERIS CARLIM MONTEIRO                          20092023BRL0000000000000000000000000983840000000000479508626320092023000000000098384                                        0 0    00    BD        
0010001300170B   100021891368818                                                                                                                                                                                                                
0010001300171A0000000010697280000000322806 GILSON JOSE MARTINS                               20092023BRL0000000000000000000000000870600000000000479508626420092023000000000087060                                        0 0    00    BD        
0010001300172B   100035158037850                                                                                                                                                                                                                
0010001300173A0000000010697280000000322814 GILVAN RAMOS DA CRUZ                              20092023BRL0000000000000000000000000983840000000000479508626520092023000000000098384                                        0 0    00    BD        
0010001300174B   100028612900808                                                                                                                                                                                                                
0010001300175A0000000010697280000000322822 GIOVANE DA SILVA QUILOTI                          20092023BRL0000000000000000000000000983840000000000479508626620092023000000000098384                                        0 0    00    BD        
0010001300176B   100043924841810                                                                                                                                                                                                                
0010001300177A0000000010697280000000322849 GISLENE RODRIGUES                                 20092023BRL0000000000000000000000000983840000000000479508626720092023000000000098384                                        0 0    00    BD        
0010001300178B   100025071381818                                                                                                                                                                                                                
0010001300179A0000000010697280000000322857 GRACIETE LUISA DA SILVA                           20092023BRL0000000000000000000000000819870000000000479508626820092023000000000081987                                        0 0    00    BD        
0010001300180B   100035207668846                                                                                                                                                                                                                
0010001300181A0000000010697280000000322873 GUSTAVO BARBOSA DA SILVA                          20092023BRL0000000000000000000000000983840000000000479508626920092023000000000098384                                        0 0    00    BD        
0010001300182B   100041484171870                                                                                                                                                                                                                
0010001300183A0000000010697280000000322881 GUSTAVO NOGUEIRA SANTOS                           20092023BRL0000000000000000000000001931170000000000479508627020092023000000000193117                                        0 0    00    BD        
0010001300184B   100040423325876                                                                                                                                                                                                                
0010001300185A000000001069728000000032289X GUSTAVO RAMOS FARIAS                              20092023BRL0000000000000000000000000983840000000000479508627120092023000000000098384                                        0 0    00    BD        
0010001300186B   100051068751886                                                                                                                                                                                                                
0010001300187A0000000010697280000000322903 HAMILTON PASSOS DANTAS                            20092023BRL0000000000000000000000001087680000000000479508627220092023000000000108768                                        0 0    00    BD        
0010001300188B   100028583120870                                                                                                                                                                                                                
0010001300189A0000000010697280000000322938 HUDSON DIAS DOS SANTOS                            20092023BRL0000000000000000000000001087680000000000479508627320092023000000000108768                                        0 0    00    BD        
0010001300190B   100034483253840                                                                                                                                                                                                                
0010001300191A0000000010697280000000322946 ILZA APARECIDA DIAS                               20092023BRL0000000000000000000000000983840000000000479508627420092023000000000098384                                        0 0    00    BD        
0010001300192B   100012578132852                                                                                                                                                                                                                
0010001300193A0000000010697280000000322954 IVONETE APARECIDA DOS SANTOS                      20092023BRL0000000000000000000000001170020000000000479508627520092023000000000117002                                        0 0    00    BD        
0010001300194B   100009641571877                                                                                                                                                                                                                
0010001300195A0000000010697280000000322970 JANIO PIRES ARAUJO                                20092023BRL0000000000000000000000000983840000000000479508627620092023000000000098384                                        0 0    00    BD        
0010001300196B   100027867054871                                                                                                                                                                                                                
0010001300197A0000000010697280000000322997 JHENIFER DE OLIVEIRA                              20092023BRL0000000000000000000000000819870000000000479508627720092023000000000081987                                        0 0    00    BD        
0010001300198B   100049555172854                                                                                                                                                                                                                
0010001300199A0000000010697280000000323004 JHONATAN SILVA                                    20092023BRL0000000000000000000000000983840000000000479508627820092023000000000098384                                        0 0    00    BD        
0010001300200B   100036310830848                                                                                                                                                                                                                
0010001300201A0000000010697280000000323020 JOAO DE OLIVEIRA                                  20092023BRL0000000000000000000000000983840000000000479508627920092023000000000098384                                        0 0    00    BD        
0010001300202B   100008829412830                                                                                                                                                                                                                
0010001300203A0000000010697280000000323039 JOAO MARCOS ROMAO DA SILVA                        20092023BRL0000000000000000000000001145760000000000479508628020092023000000000114576                                        0 0    00    BD        
0010001300204B   100010984589406                                                                                                                                                                                                                
0010001300205A0000000010697280000000323047 JOAQUIM FERNANDES FILHO                           20092023BRL0000000000000000000000001229740000000000479508628120092023000000000122974                                        0 0    00    BD        
0010001300206B   100005454957844                                                                                                                                                                                                                
0010001300207A0000000010697280000000323055 JOCELIO FERREIRA DA SILVA                         20092023BRL0000000000000000000000000954800000000000479508628220092023000000000095480                                        0 0    00    BD        
0010001300208B   100033822872857                                                                                                                                                                                                                
0010001300209A0000000010697280000000323063 JOCIENE DOS SANTOS SOARES RIBE                    20092023BRL0000000000000000000000000983840000000000479508628320092023000000000098384                                        0 0    00    BD        
0010001300210B   100005274797563                                                                                                                                                                                                                
0010001300211A0000000010697280000000323071 JOEL GONCALVES DOS SANTOS                         20092023BRL0000000000000000000000000983840000000000479508628420092023000000000098384                                        0 0    00    BD        
0010001300212B   100015633607805                                                                                                                                                                                                                
0010001300213A000000001069728000000032308X JOELMA BORGES DEBUS                               20092023BRL0000000000000000000000002816960000000000479508628520092023000000000281696                                        0 0    00    BD        
0010001300214B   100025562131838                                                                                                                                                                                                                
0010001300215A0000000010697280000000323098 JOHANY NASCIMENTO DA SILVA                        20092023BRL0000000000000000000000000983840000000000479508628620092023000000000098384                                        0 0    00    BD        
0010001300216B   100035402325839                                                                                                                                                                                                                
0010001300217A0000000010697280000000323128 JOSE CICERO DO NASCIMENTO                         20092023BRL0000000000000000000000001232900000000000479508628720092023000000000123290                                        0 0    00    BD        
0010001300218B   100057061637404                                                                                                                                                                                                                
0010001300219A0000000010697280000000323136 JOSE DO NASCIMENTO                                20092023BRL0000000000000000000000001179620000000000479508628820092023000000000117962                                        0 0    00    BD        
0010001300220B   100007942398897                                                                                                                                                                                                                
0010001300221A0000000010697280000000323144 JOSE EDVALDO DOS SANTOS ROCHA                     20092023BRL0000000000000000000000000983840000000000479508628920092023000000000098384                                        0 0    00    BD        
0010001300222B   100095654186434                                                                                                                                                                                                                
0010001300223A0000000010697280000000323152 JOSE GENIVAL DE SOUZA                             20092023BRL0000000000000000000000000688690000000000479508629020092023000000000068869                                        0 0    00    BD        
0010001300224B   100070798001453                                                                                                                                                                                                                
0010001300225A0000000010697280000000323160 JOSE GOMES FILHO                                  20092023BRL0000000000000000000000001247810000000000479508629120092023000000000124781                                        0 0    00    BD        
0010001300226B   100044642911472                                                                                                                                                                                                                
0010001300227A0000000010697280000000323179 JOSE LEANDRO SOARES DE OLIVEIR                    20092023BRL0000000000000000000000001074940000000000479508629220092023000000000107494                                        0 0    00    BD        
0010001300228B   100042643419812                                                                                                                                                                                                                
0010001300229A0000000010697280000000323195 JOSE WILSON JONAS DO NASCIMENT                    20092023BRL0000000000000000000000000983840000000000479508629320092023000000000098384                                        0 0    00    BD        
0010001300230B   100047455837534                                                                                                                                                                                                                
0010001300231A0000000010697280000000323209 JOSEMAR FERREIRA DOS SANTOS                       20092023BRL0000000000000000000000000983840000000000479508629420092023000000000098384                                        0 0    00    BD        
0010001300232B   100021371422877                                                                                                                                                                                                                
0010001300233A0000000010697280000000323217 JOSENALDO SOUZA TEIXEIRA                          20092023BRL0000000000000000000000001789440000000000479508629520092023000000000178944                                        0 0    00    BD        
0010001300234B   100010350958823                                                                                                                                                                                                                
0010001300235A0000000010697280000000323225 JOSILMA SILVA MARTINS                             20092023BRL0000000000000000000000001075100000000000479508629620092023000000000107510                                        0 0    00    BD        
0010001300236B   100000119273306                                                                                                                                                                                                                
0010001300237A0000000010697280000000323233 JOSIMAR DOS SANTOS CAMPOS                         20092023BRL0000000000000000000000001074940000000000479508629720092023000000000107494                                        0 0    00    BD        
0010001300238B   100003224544503                                                                                                                                                                                                                
0010001300239A0000000010697280000000323241 JUAN PABLO NEVES SANTOS                           20092023BRL0000000000000000000000000983840000000000479508629820092023000000000098384                                        0 0    00    BD        
0010001300240B   100052257841867                                                                                                                                                                                                                
0010001300241A000000001069728000000032325X JUCELIO SANTIAGO VIANA                            20092023BRL0000000000000000000000000983840000000000479508629920092023000000000098384                                        0 0    00    BD        
0010001300242B   100042673347810                                                                                                                                                                                                                
0010001300243A0000000010697280000000323268 JURANDIR PEREIRA GOMES                            20092023BRL0000000000000000000000001087680000000000479508630020092023000000000108768                                        0 0    00    BD        
0010001300244B   100029207974843                                                                                                                                                                                                                
0010001300245A0000000010697280000000323276 KAREN GOMES DA SILVA                              20092023BRL0000000000000000000000001117630000000000479508630120092023000000000111763                                        0 0    00    BD        
0010001300246B   100043489670833                                                                                                                                                                                                                
0010001300247A0000000010697280000000323284 KARINE FARIAS NEVES                               20092023BRL0000000000000000000000003182500000000000479508630220092023000000000318250                                        0 0    00    BD        
0010001300248B   100043062315857                                                                                                                                                                                                                
0010001300249A0000000010697280000000323292 KATIA REGINA MOREIRA DE SOUZA                     20092023BRL0000000000000000000000001087680000000000479508630320092023000000000108768                                        0 0    00    BD        
0010001300250B   100018559755802                                                                                                                                                                                                                
0010001300251A0000000010697280000000323306 LAERTE MEIRELES GUERRA                            20092023BRL0000000000000000000000001802670000000000479508630420092023000000000180267                                        0 0    00    BD        
0010001300252B   100014512253858                                                                                                                                                                                                                
0010001300253A0000000010697280000000323314 LAURA KATHELLEN BONFIM MONTEIR                    20092023BRL0000000000000000000000000983130000000000479508630520092023000000000098313                                        0 0    00    BD        
0010001300254B   100051012329801                                                                                                                                                                                                                
0010001300255A0000000010697280000000323322 LEANDRO CRUZ DE JESUS                             20092023BRL0000000000000000000000000983840000000000479508630620092023000000000098384                                        0 0    00    BD        
0010001300256B   100036669550880                                                                                                                                                                                                                
0010001300257A0000000010697280000000323349 LEONARDO DA SILVA SILVEIRA                        20092023BRL0000000000000000000000000983840000000000479508630720092023000000000098384                                        0 0    00    BD        
0010001300258B   100032713099811                                                                                                                                                                                                                
0010001300259A0000000010697280000000323357 LEONARDO DE JESUS DINIZ                           20092023BRL0000000000000000000000000983840000000000479508630820092023000000000098384                                        0 0    00    BD        
0010001300260B   100034137837856                                                                                                                                                                                                                
0010001300261A0000000010697280000000323365 LETICIA CRISTINA DA SILVA MACI                    20092023BRL0000000000000000000000000982960000000000479508630920092023000000000098296                                        0 0    00    BD        
0010001300262B   100045041084882                                                                                                                                                                                                                
0010001300263A0000000010697280000000323373 LETICIA SILVA BARBOSA                             20092023BRL0000000000000000000000000983130000000000479508631020092023000000000098313                                        0 0    00    BD        
0010001300264B   100049837493810                                                                                                                                                                                                                
0010001300265A0000000010697280000000323381 LUCAS BATISTA GARGORIANO                          20092023BRL0000000000000000000000001189760000000000479508631120092023000000000118976                                        0 0    00    BD        
0010001300266B   100038678781882                                                                                                                                                                                                                
0010001300267A000000001069728000000032339X LUCAS SANTOS ROCHA DE SOUSA                       20092023BRL0000000000000000000000001888360000000000479508631220092023000000000188836                                        0 0    00    BD        
0010001300268B   100031899787860                                                                                                                                                                                                                
0010001300269A0000000010697280000000323403 LUCIANA DE CASSIA RODRIGUES PE                    20092023BRL0000000000000000000000001336520000000000479508631320092023000000000133652                                        0 0    00    BD        
0010001300270B   100025399245817                                                                                                                                                                                                                
0010001300271A0000000010697280000000323411 LUCINEIDE SILVA MOREIRA                           20092023BRL0000000000000000000000000983840000000000479508631420092023000000000098384                                        0 0    00    BD        
0010001300272B   100054267617520                                                                                                                                                                                                                
0010001300273A000000001069728000000032342X LUIS FELIPE DE SOUZA                              20092023BRL0000000000000000000000001076860000000000479508631520092023000000000107686                                        0 0    00    BD        
0010001300274B   100033180949864                                                                                                                                                                                                                
0010001300275A0000000010697280000000323438 LUIS FERNANDO TELES SILVA                         20092023BRL0000000000000000000000000983840000000000479508631620092023000000000098384                                        0 0    00    BD        
0010001300276B   100022459524803                                                                                                                                                                                                                
0010001300277A0000000010697280000000323446 LUIS RODRIGUES DOS SANTOS                         20092023BRL0000000000000000000000001205600000000000479508631720092023000000000120560                                        0 0    00    BD        
0010001300278B   100025254036818                                                                                                                                                                                                                
0010001300279A0000000010697280000000323454 LUIZ GONZAGA SANTOS SILVEIRA                      20092023BRL0000000000000000000000001121770000000000479508631820092023000000000112177                                        0 0    00    BD        
0010001300280B   100059907878120                                                                                                                                                                                                                
0010001300281A0000000010697280000000323462 LUIZ SILVA BASTOS                                 20092023BRL0000000000000000000000001269840000000000479508631920092023000000000126984                                        0 0    00    BD        
0010001300282B   100063848236591                                                                                                                                                                                                                
0010001300283A0000000010697280000000323470 MAGNA BARBOSA ARRUDA DE SOUSA                     20092023BRL0000000000000000000000000983840000000000479508632020092023000000000098384                                        0 0    00    BD        
0010001300284B   100017745198879                                                                                                                                                                                                                
0010001300285A0000000010697280000000323489 MAGNO DA SILVA ROCHA                              20092023BRL0000000000000000000000001304530000000000479508632120092023000000000130453                                        0 0    00    BD        
0010001300286B   100035935984857                                                                                                                                                                                                                
0010001300287A0000000010697280000000323497 MANOEL SANTANA DE LIMA                            20092023BRL0000000000000000000000001087680000000000479508632220092023000000000108768                                        0 0    00    BD        
0010001300288B   100033924933847                                                                                                                                                                                                                
0010001300289A0000000010697280000000323500 MARCELO ALVES MENDES                              20092023BRL0000000000000000000000001416040000000000479508632320092023000000000141604                                        0 0    00    BD        
0010001300290B   100029450006873                                                                                                                                                                                                                
0010001300291A0000000010697280000000323519 MARCELO DOS SANTOS JUNIOR                         20092023BRL0000000000000000000000001226170000000000479508632420092023000000000122617                                        0 0    00    BD        
0010001300292B   100040244530840                                                                                                                                                                                                                
0010001300293A0000000010697280000000323535 MARCIO AMARAL DE PADUA                            20092023BRL0000000000000000000000001883490000000000479508632520092023000000000188349                                        0 0    00    BD        
0010001300294B   100014515488856                                                                                                                                                                                                                
0010001300295A0000000010697280000000323551 MARCIO VITOR BATISTA                              20092023BRL0000000000000000000000001170970000000000479508632620092023000000000117097                                        0 0    00    BD        
0010001300296B   100013324731801                                                                                                                                                                                                                
0010001300297A000000001069728000000032356X MARCOS ANTONIO ROSSATI                            20092023BRL0000000000000000000000002258250000000000479508632720092023000000000225825                                        0 0    00    BD        
0010001300298B   100013441240898                                                                                                                                                                                                                
0010001300299A0000000010697280000000323586 MARIA ADRIANA DA SILVA                            20092023BRL0000000000000000000000001197720000000000479508632820092023000000000119772                                        0 0    00    BD        
0010001300300B   100030450364810                                                                                                                                                                                                                
0010001300301A0000000010697280000000323594 MARIA ALDENORA CRUZ SANTANA                       20092023BRL0000000000000000000000001145760000000000479508632920092023000000000114576                                        0 0    00    BD        
0010001300302B   100025021662848                                                                                                                                                                                                                
0010001300303A0000000010697280000000323608 MARIA ANGELICA COELHO GONCALVE                    20092023BRL0000000000000000000000000983840000000000479508633020092023000000000098384                                        0 0    00    BD        
0010001300304B   100040450938859                                                                                                                                                                                                                
0010001300305A0000000010697280000000323624 MARIA APARECIDA QUIRINO                           20092023BRL0000000000000000000000001339050000000000479508633120092023000000000133905                                        0 0    00    BD        
0010001300306B   100032895697809                                                                                                                                                                                                                
0010001300307A0000000010697280000000323632 MARIA APARECIDA SILVA DE OLIVE                    20092023BRL0000000000000000000000000983840000000000479508633220092023000000000098384                                        0 0    00    BD        
0010001300308B   100010046663819                                                                                                                                                                                                                
0010001300309A0000000010697280000000323659 MARIA CUSTODIO SILVA DOS REIS                     20092023BRL0000000000000000000000000983840000000000479508633320092023000000000098384                                        0 0    00    BD        
0010001300310B   100089419510387                                                                                                                                                                                                                
0010001300311A0000000010697280000000323667 MARIA DE FATIMA DA SILVA                          20092023BRL0000000000000000000000001629670000000000479508633420092023000000000162967                                        0 0    00    BD        
0010001300312B   100012516269803                                                                                                                                                                                                                
0010001300313A0000000010697280000000323675 MARIA DE FATIMA RODRIGUES DA S                    20092023BRL0000000000000000000000000983840000000000479508633520092023000000000098384                                        0 0    00    BD        
0010001300314B   100014939349888                                                                                                                                                                                                                
0010001300315A0000000010697280000000323691 MARIA GONCALVES SOARES DE ASSI                    20092023BRL0000000000000000000000000983840000000000479508633620092023000000000098384                                        0 0    00    BD        
0010001300316B   100013069589898                                                                                                                                                                                                                
0010001300317A0000000010697280000000323705 MARIA ISANETE SOARES DOS SANTO                    20092023BRL0000000000000000000000000983840000000000479508633720092023000000000098384                                        0 0    00    BD        
0010001300318B   100034449798864                                                                                                                                                                                                                
0010001300319A0000000010697280000000323713 MARIA JOSE DA SILVA                               20092023BRL0000000000000000000000000983840000000000479508633820092023000000000098384                                        0 0    00    BD        
0010001300320B   100089449622434                                                                                                                                                                                                                
0010001300321A0000000010697280000000323721 MARIA NEUSA SANTOS SENA                           20092023BRL0000000000000000000000001122140000000000479508633920092023000000000112214                                        0 0    00    BD        
0010001300322B   100014627964862                                                                                                                                                                                                                
0010001300323A000000001069728000000032373X MARIA QUITERIA LIMA                               20092023BRL0000000000000000000000000983840000000000479508634020092023000000000098384                                        0 0    00    BD        
0010001300324B   100070770824587                                                                                                                                                                                                                
0010001300325A0000000010697280000000323756 MARTA ALVES PEREIRA                               20092023BRL0000000000000000000000001224520000000000479508634120092023000000000122452                                        0 0    00    BD        
0010001300326B   100014515353845                                                                                                                                                                                                                
0010001300327A0000000010697280000000323764 MATEUS JOSE DA SILVA                              20092023BRL0000000000000000000000000983840000000000479508634220092023000000000098384                                        0 0    00    BD        
0010001300328B   100023847135821                                                                                                                                                                                                                
0010001300329A0000000010697280000000323780 MAURI ALVES FERREIRA                              20092023BRL0000000000000000000000000983840000000000479508634320092023000000000098384                                        0 0    00    BD        
0010001300330B   100028466609806                                                                                                                                                                                                                
0010001300331A0000000010697280000000323799 MAURILIO SOARES DE SOUZA                          20092023BRL0000000000000000000000001849590000000000479508634420092023000000000184959                                        0 0    00    BD        
0010001300332B   100034534565801                                                                                                                                                                                                                
0010001300333A0000000010697280000000323802 MAURO MORIYAMA                                    20092023BRL0000000000000000000000002608420000000000479508634520092023000000000260842                                        0 0    00    BD        
0010001300334B   100000162186800                                                                                                                                                                                                                
0010001300335A0000000010697280000000323829 MILENA ROSSI                                      20092023BRL0000000000000000000000001168820000000000479508634620092023000000000116882                                        0 0    00    BD        
0010001300336B   100029580663807                                                                                                                                                                                                                
0010001300337A0000000010697280000000323837 MOISES GONCALVES LIMA                             20092023BRL0000000000000000000000001087680000000000479508634720092023000000000108768                                        0 0    00    BD        
0010001300338B   100035565631858                                                                                                                                                                                                                
0010001300339A0000000010697280000000323861 NILSON DOS SANTOS ANDRE                           20092023BRL0000000000000000000000003023860000000000479508634820092023000000000302386                                        0 0    00    BD        
0010001300340B   100011278493875                                                                                                                                                                                                                
0010001300341A000000001069728000000032387X OSMAR NERVA                                       20092023BRL0000000000000000000000001658210000000000479508634920092023000000000165821                                        0 0    00    BD        
0010001300342B   100007776256870                                                                                                                                                                                                                
0010001300343A0000000010697280000000323888 OZIEL SEVERINO DA SILVA                           20092023BRL0000000000000000000000000983840000000000479508635020092023000000000098384                                        0 0    00    BD        
0010001300344B   100014086991845                                                                                                                                                                                                                
0010001300345A0000000010697280000000323896 PALOMA FERNANDES DA SILVA                         20092023BRL0000000000000000000000000983840000000000479508635120092023000000000098384                                        0 0    00    BD        
0010001300346B   100034359413831                                                                                                                                                                                                                
0010001300347A0000000010697280000000323934 PAULO LUIZ DA SILVA                               20092023BRL0000000000000000000000001170020000000000479508635220092023000000000117002                                        0 0    00    BD        
0010001300348B   100013461202851                                                                                                                                                                                                                
0010001300349A0000000010697280000000323950 RAFAEL BARRETO DE OLIVEIRA                        20092023BRL0000000000000000000000001312820000000000479508635320092023000000000131282                                        0 0    00    BD        
0010001300350B   100005363699508                                                                                                                                                                                                                
0010001300351A0000000010697280000000323969 RAFAEL DAMACENO                                   20092023BRL0000000000000000000000000983840000000000479508635420092023000000000098384                                        0 0    00    BD        
0010001300352B   100033401789848                                                                                                                                                                                                                
0010001300353A0000000010697280000000323977 RAFAEL FERREIRA DA SILVA                          20092023BRL0000000000000000000000001115390000000000479508635520092023000000000111539                                        0 0    00    BD        
0010001300354B   100037685737884                                                                                                                                                                                                                
0010001300355A0000000010697280000000323985 RAFAEL FRAMINAN PROETTI                           20092023BRL0000000000000000000000002993480000000000479508635620092023000000000299348                                        0 0    00    BD        
0010001300356B   100040208275835                                                                                                                                                                                                                
0010001300357A0000000010697280000000324019 RAUL DINIZ COSTA DE SOUZA                         20092023BRL0000000000000000000000000983840000000000479508635720092023000000000098384                                        0 0    00    BD        
0010001300358B   100016941140828                                                                                                                                                                                                                
0010001300359A0000000010697280000000324035 RENATO CHAGAS LIMA                                20092023BRL0000000000000000000000001984650000000000479508635820092023000000000198465                                        0 0    00    BD        
0010001300360B   100012778102817                                                                                                                                                                                                                
0010001300361A0000000010697280000000324043 RENE CESARIO DE OLIVEIRA                          20092023BRL0000000000000000000000001121770000000000479508635920092023000000000112177                                        0 0    00    BD        
0010001300362B   100008743396852                                                                                                                                                                                                                
0010001300363A0000000010697280000000324051 RICARDO MARQUES DA SILVA MOURA                    20092023BRL0000000000000000000000000983840000000000479508636020092023000000000098384                                        0 0    00    BD        
0010001300364B   100030081605811                                                                                                                                                                                                                
0010001300365A0000000010697280000000324086 ROBERTA VIVIAN SILVA CHIACCHIE                    20092023BRL0000000000000000000000000983840000000000479508636120092023000000000098384                                        0 0    00    BD        
0010001300366B   100022250864861                                                                                                                                                                                                                
0010001300367A0000000010697280000000324116 ROBERTO JOSE DE SANTANA                           20092023BRL0000000000000000000000000983840000000000479508636220092023000000000098384                                        0 0    00    BD        
0010001300368B   100028965273897                                                                                                                                                                                                                
0010001300369A0000000010697280000000324124 ROBSON SANTANA LUZ                                20092023BRL0000000000000000000000001603270000000000479508636320092023000000000160327                                        0 0    00    BD        
0010001300370B   100033842577826                                                                                                                                                                                                                
0010001300371A0000000010697280000000324132 RODRIGO ALVES DE SOUSA                            20092023BRL0000000000000000000000001372540000000000479508636420092023000000000137254                                        0 0    00    BD        
0010001300372B   100029052266840                                                                                                                                                                                                                
0010001300373A0000000010697280000000324140 RODRIGO MASCARENHAS REBOUCAS                      20092023BRL0000000000000000000000001876280000000000479508636520092023000000000187628                                        0 0    00    BD        
0010001300374B   100033101211867                                                                                                                                                                                                                
0010001300375A0000000010697280000000324167 RONALD DIAS PEREIRA                               20092023BRL0000000000000000000000000983840000000000479508636620092023000000000098384                                        0 0    00    BD        
0010001300376B   100045547369896                                                                                                                                                                                                                
0010001300377A0000000010697280000000324175 RONALDO SOUZA PEREIRA                             20092023BRL0000000000000000000000000983840000000000479508636720092023000000000098384                                        0 0    00    BD        
0010001300378B   100088483770504                                                                                                                                                                                                                
0010001300379A0000000010697280000000324183 ROSANA DA SILVA PASSOS                            20092023BRL0000000000000000000000001779780000000000479508636820092023000000000177978                                        0 0    00    BD        
0010001300380B   100016811193824                                                                                                                                                                                                                
0010001300381A0000000010697280000000324191 ROSANA DOS SANTOS SILVA                           20092023BRL0000000000000000000000000983840000000000479508636920092023000000000098384                                        0 0    00    BD        
0010001300382B   100022453783858                                                                                                                                                                                                                
0010001300383A0000000010697280000000324221 RYAN RODRIGUES ALVES                              20092023BRL0000000000000000000000000983840000000000479508637020092023000000000098384                                        0 0    00    BD        
0010001300384B   100049745357812                                                                                                                                                                                                                
0010001300385A000000001069728000000032423X SABRINA DOS SANTOS COSTA                          20092023BRL0000000000000000000000000983840000000000479508637120092023000000000098384                                        0 0    00    BD        
0010001300386B   100040986749800                                                                                                                                                                                                                
0010001300387A0000000010697280000000324248 SAMUEL MOTA DA TRINDADE                           20092023BRL0000000000000000000000001121770000000000479508637220092023000000000112177                                        0 0    00    BD        
0010001300388B   100041950940896                                                                                                                                                                                                                
0010001300389A0000000010697280000000324256 SAULO VIEIRA DE PAULA                             20092023BRL0000000000000000000000001528060000000000479508637320092023000000000152806                                        0 0    00    BD        
0010001300390B   100021295125854                                                                                                                                                                                                                
0010001300391A0000000010697280000000324264 SEBASTIAO HELIO DA SILVA                          20092023BRL0000000000000000000000001503490000000000479508637420092023000000000150349                                        0 0    00    BD        
0010001300392B   100063443252834                                                                                                                                                                                                                
0010001300393A0000000010697280000000324280 SERGIO MOYA MARTINS                               20092023BRL0000000000000000000000002176940000000000479508637520092023000000000217694                                        0 0    00    BD        
0010001300394B   100067387993815                                                                                                                                                                                                                
0010001300395A0000000010697280000000324299 SERGIO NAGAO                                      20092023BRL0000000000000000000000001264290000000000479508637620092023000000000126429                                        0 0    00    BD        
0010001300396B   100028518525829                                                                                                                                                                                                                
0010001300397A0000000010697280000000324302 SERGIO RIBEIRO PARAISO                            20092023BRL0000000000000000000000000983840000000000479508637720092023000000000098384                                        0 0    00    BD        
0010001300398B   100014811173864                                                                                                                                                                                                                
0010001300399A0000000010697280000000324310 SEVERINO ANTONIO DA SILVA FILH                    20092023BRL0000000000000000000000001371950000000000479508637820092023000000000137195                                        0 0    00    BD        
0010001300400B   100058687777434                                                                                                                                                                                                                
0010001300401A0000000010697280000000324329 SEVERINO BELO DA SILVA                            20092023BRL0000000000000000000000001377840000000000479508637920092023000000000137784                                        0 0    00    BD        
0010001300402B   100038434462885                                                                                                                                                                                                                
0010001300403A0000000010697280000000324345 SILVIO JESUS OLIVEIRA                             20092023BRL0000000000000000000000001230810000000000479508638020092023000000000123081                                        0 0    00    BD        
0010001300404B   100041035923890                                                                                                                                                                                                                
0010001300405A0000000010697280000000324361 TAIS APARECIDA DIAS DA SILVA                      20092023BRL0000000000000000000000000983840000000000479508638120092023000000000098384                                        0 0    00    BD        
0010001300406B   100039530131810                                                                                                                                                                                                                
0010001300407A000000001069728000000032437X TALITA GONCALVES DE OLIVEIRA                      20092023BRL0000000000000000000000001129980000000000479508638220092023000000000112998                                        0 0    00    BD        
0010001300408B   100009519170642                                                                                                                                                                                                                
0010001300409A0000000010697280000000324388 THAINA RODRIGUES BITENCOURT CO                    20092023BRL0000000000000000000000000819870000000000479508638320092023000000000081987                                        0 0    00    BD        
0010001300410B   100047762606890                                                                                                                                                                                                                
0010001300411A000000001069728000000032440X THIAGO DOS SANTOS FERREIRA                        20092023BRL0000000000000000000000001170690000000000479508638420092023000000000117069                                        0 0    00    BD        
0010001300412B   100031738006808                                                                                                                                                                                                                
