00100000         2462705180001460007532430126       0334800000001104950 SPAAL INDUSTRIA E COMERCIO LTDBANCO DO BRASIL S.A.                    20409202315451000106008200001201190761PREVIA                                          30          
00100011C3001042 2462705180001460007532430126       0334800000001104950 SPAAL INDUSTRIA E COMERCIO LTD                         082042013000001                              00000                                                               
0010001300001A000000001069728000000020580X DIJAELTON SOUZA SILVA                             05092023BRL0000000000000000000000000986390000000000479014638105092023000000000098639                                        0 0    00    BD        
0010001300002B   100044339295817                                                                                                                                                                                                                
0010001300003A0000000010697280000000321648 ADELINO FERREIRA DOS SANTOS                       05092023BRL0000000000000000000000000757580000000000479014638205092023000000000075758                                        0 0    00    BD        
0010001300004B   100016929425818                                                                                                                                                                                                                
0010001300005A0000000010697280000000321656 ADELMIR SERAFIM PEREIRA                           05092023BRL0000000000000000000000001209560000000000479014638305092023000000000120956                                        0 0    00    BD        
0010001300006B   100014811123840                                                                                                                                                                                                                
0010001300007A0000000010697280000000321664 ADEMILSON SANTOS PEREIRA                          05092023BRL0000000000000000000000001690050000000000479014638405092023000000000169005                                        0 0    00    BD        
0010001300008B   100016310522841                                                                                                                                                                                                                
0010001300009A0000000010697280000000321680 ADOALDO TEIXEIRA SOUZA                            05092023BRL0000000000000000000000001276680000000000479014638505092023000000000127668                                        0 0    00    BD        
0010001300010B   100060375620591                                                                                                                                                                                                                
0010001300011A0000000010697280000000321699 ADRIANA APRIGIO ANDRADE                           05092023BRL0000000000000000000000001290920000000000479014638605092023000000000129092                                        0 0    00    BD        
0010001300012B   100022574479807                                                                                                                                                                                                                
0010001300013A0000000010697280000000321702 ADRIANA DE OLIVEIRA SANTOS                        05092023BRL0000000000000000000000004261200000000000479014638705092023000000000426120                                        0 0    00    BD        
0010001300014B   100016120147802                                                                                                                                                                                                                
0010001300015A0000000010697280000000321710 ADRIANO PENEDO DA SILVA                           05092023BRL0000000000000000000000002132630000000000479014638805092023000000000213263                                        0 0    00    BD        
0010001300016B   100030620905883                                                                                                                                                                                                                
0010001300017A0000000010697280000000321729 AFONSO JOSE BEZERRA E SILVA                       05092023BRL0000000000000000000000002519310000000000479014638905092023000000000251931                                        0 0    00    BD        
0010001300018B   100004446021869                                                                                                                                                                                                                
0010001300019A0000000010697280000000321745 ALAIR JORGE DE ANDRADE                            05092023BRL0000000000000000000000000273950000000000479014639005092023000000000027395                                        0 0    00    BD        
0010001300020B   100014617143890                                                                                                                                                                                                                
0010001300021A0000000010697280000000321753 ALBERDAN BERTOLINO PEREIRA                        05092023BRL0000000000000000000000000438450000000000479014639105092023000000000043845                                        0 0    00    BD        
0010001300022B   100045031142391                                                                                                                                                                                                                
0010001300023A0000000010697280000000321761 ALCIDES DAKUZAKU                                  05092023BRL0000000000000000000000005327920000000000479014639205092023000000000532792                                        0 0    00    BD        
0010001300024B   100007734039812                                                                                                                                                                                                                
0010001300025A0000000010697280000000321788 ALEX BERNARDO                                     05092023BRL0000000000000000000000006249510000000000479014639305092023000000000624951                                        0 0    00    BD        
0010001300026B   100025123093800                                                                                                                                                                                                                
0010001300027A0000000010697280000000321796 ALEXANDRE FERREIRA DANTAS                         05092023BRL0000000000000000000000001485500000000000479014639405092023000000000148550                                        0 0    00    BD        
0010001300028B   100022464547867                                                                                                                                                                                                                
0010001300029A000000001069728000000032180X ALEXANDRE GERALDO SOUZA                           05092023BRL0000000000000000000000001251560000000000479014639505092023000000000125156                                        0 0    00    BD        
0010001300030B   100017749874810                                                                                                                                                                                                                
0010001300031A0000000010697280000000321818 ALEXANDRE JOSE DE SOUSA                           05092023BRL0000000000000000000000000483800000000000479014639605092023000000000048380                                        0 0    00    BD        
0010001300032B   100031381269877                                                                                                                                                                                                                
0010001300033A0000000010697280000000321826 ALZIRA MARIA ALMEIDA DOS SANTO                    05092023BRL0000000000000000000000000647430000000000479014639705092023000000000064743                                        0 0    00    BD        
0010001300034B   100028507846807                                                                                                                                                                                                                
0010001300035A0000000010697280000000321842 ANA CLAUDIA DA CONCEICAO OLIVE                    05092023BRL0000000000000000000000001173900000000000479014639805092023000000000117390                                        0 0    00    BD        
0010001300036B   100006388365493                                                                                                                                                                                                                
0010001300037A0000000010697280000000321850 ANA PAULA DE OLIVEIRA                             05092023BRL0000000000000000000000001063440000000000479014639905092023000000000106344                                        0 0    00    BD        
0010001300038B   100029681002890                                                                                                                                                                                                                
0010001300039A0000000010697280000000321877 ANDERSON CLEMENTINO                               05092023BRL0000000000000000000000001094560000000000479014640005092023000000000109456                                        0 0    00    BD        
0010001300040B   100033412468860                                                                                                                                                                                                                
0010001300041A0000000010697280000000321885 ANDRE EVANGELISTA BISPO                           05092023BRL0000000000000000000000001367030000000000479014640105092023000000000136703                                        0 0    00    BD        
0010001300042B   100041147729875                                                                                                                                                                                                                
0010001300043A0000000010697280000000321893 ANDREA APARECIDA MARTINS FERRE                    05092023BRL0000000000000000000000001152690000000000479014640205092023000000000115269                                        0 0    00    BD        
0010001300044B   100025307140886                                                                                                                                                                                                                
0010001300045A0000000010697280000000321931 ANNALI BARBOZA DA SILVA PEREIR                    05092023BRL0000000000000000000000000924040000000000479014640305092023000000000092404                                        0 0    00    BD        
0010001300046B   100008975255409                                                                                                                                                                                                                
0010001300047A000000001069728000000032194X ANTONIO AMARO DA SILVA                            05092023BRL0000000000000000000000000899940000000000479014640405092023000000000089994                                        0 0    00    BD        
0010001300048B   100064163210415                                                                                                                                                                                                                
0010001300049A0000000010697280000000321958 ANTONIO DE SOUZA RODRIGUES                        05092023BRL0000000000000000000000001251560000000000479014640505092023000000000125156                                        0 0    00    BD        
0010001300050B   100024666201890                                                                                                                                                                                                                
0010001300051A0000000010697280000000321974 ANTONIO IREMAR GOMES DA SILVA                     05092023BRL0000000000000000000000001355970000000000479014640605092023000000000135597                                        0 0    00    BD        
0010001300052B   100033438398842                                                                                                                                                                                                                
0010001300053A0000000010697280000000321982 ANTONIO RESENDE MARTINS                           05092023BRL0000000000000000000000000767480000000000479014640705092023000000000076748                                        0 0    00    BD        
0010001300054B   100011375952803                                                                                                                                                                                                                
0010001300055A0000000010697280000000321990 ARLETE BORGES DA SILVA                            05092023BRL0000000000000000000000001124680000000000479014640805092023000000000112468                                        0 0    00    BD        
0010001300056B   100000968885551                                                                                                                                                                                                                
0010001300057A0000000010697280000000322016 BRUNA SUELEN SOUZA CALDAS                         05092023BRL0000000000000000000000001230340000000000479014640905092023000000000123034                                        0 0    00    BD        
0010001300058B   100037822394827                                                                                                                                                                                                                
0010001300059A0000000010697280000000322024 BRUNO SALVADOR MOITINHO                           05092023BRL0000000000000000000000001035200000000000479014641005092023000000000103520                                        0 0    00    BD        
0010001300060B   100036124684802                                                                                                                                                                                                                
0010001300061A0000000010697280000000322032 CARLOS ALBERTO DE LIMA                            05092023BRL0000000000000000000000001109970000000000479014641105092023000000000110997                                        0 0    00    BD        
0010001300062B   100032598303830                                                                                                                                                                                                                
0010001300063A0000000010697280000000322040 CARLOS EDUARDO DE JESUS                           05092023BRL0000000000000000000000000156880000000000479014641205092023000000000015688                                        0 0    00    BD        
0010001300064B   100032027163875                                                                                                                                                                                                                
0010001300065A0000000010697280000000322059 CAROLINA DE SOUZA EMILIO                          05092023BRL0000000000000000000000000626530000000000479014641305092023000000000062653                                        0 0    00    BD        
0010001300066B   100033650339803                                                                                                                                                                                                                
0010001300067A0000000010697280000000322067 CAROLINA SANTANA SILVA                            05092023BRL0000000000000000000000000617570000000000479014641405092023000000000061757                                        0 0    00    BD        
0010001300068B   100031958342866                                                                                                                                                                                                                
0010001300069A0000000010697280000000322075 CAROLINE FARIAS MELO                              05092023BRL0000000000000000000000000434280000000000479014641505092023000000000043428                                        0 0    00    BD        
0010001300070B   100040388829850                                                                                                                                                                                                                
0010001300071A0000000010697280000000322091 CELIO RIBEIRO DO NASCIMENTO                       05092023BRL0000000000000000000000001211060000000000479014641605092023000000000121106                                        0 0    00    BD        
0010001300072B   100029293814854                                                                                                                                                                                                                
0010001300073A0000000010697280000000322105 CELIO TEIXEIRA SANTIAGO                           05092023BRL0000000000000000000000001420470000000000479014641705092023000000000142047                                        0 0    00    BD        
0010001300074B   100028881142830                                                                                                                                                                                                                
0010001300075A0000000010697280000000322113 CELMA NEVES SANTANA                               05092023BRL0000000000000000000000000482480000000000479014641805092023000000000048248                                        0 0    00    BD        
0010001300076B   100038087186842                                                                                                                                                                                                                
0010001300077A0000000010697280000000322121 CICERO HOLANDA DE SOUSA                           05092023BRL0000000000000000000000001008210000000000479014641905092023000000000100821                                        0 0    00    BD        
0010001300078B   100012409730809                                                                                                                                                                                                                
0010001300079A0000000010697280000000322164 CLAUDIA DA SILVA OLIVEIRA                         05092023BRL0000000000000000000000001958000000000000479014642005092023000000000195800                                        0 0    00    BD        
0010001300080B   100016869586845                                                                                                                                                                                                                
0010001300081A0000000010697280000000322172 CLAUDIA DE MOURA SAMPAIO                          05092023BRL0000000000000000000000001251560000000000479014642105092023000000000125156                                        0 0    00    BD        
0010001300082B   100026942672890                                                                                                                                                                                                                
0010001300083A0000000010697280000000322180 CLAUDIA DE OLIVEIRA DUARTE                        05092023BRL0000000000000000000000001367030000000000479014642205092023000000000136703                                        0 0    00    BD        
0010001300084B   100032672475865                                                                                                                                                                                                                
0010001300085A0000000010697280000000322199 CLAUDIA MARIA PEREIRA DA SILVA                    05092023BRL0000000000000000000000000416190000000000479014642305092023000000000041619                                        0 0    00    BD        
0010001300086B   100008391600890                                                                                                                                                                                                                
0010001300087A0000000010697280000000322202 CLAUDILENE SOARES DA SILVA                        05092023BRL0000000000000000000000000436300000000000479014642405092023000000000043630                                        0 0    00    BD        
0010001300088B   100031360379878                                                                                                                                                                                                                
0010001300089A0000000010697280000000322210 CLAUDIONOR SANT ANNA CHAVES                       05092023BRL0000000000000000000000001235860000000000479014642505092023000000000123586                                        0 0    00    BD        
0010001300090B   100016086700826                                                                                                                                                                                                                
0010001300091A0000000010697280000000322237 CLAYTON ANDRADE DOS SANTOS                        05092023BRL0000000000000000000000001169610000000000479014642605092023000000000116961                                        0 0    00    BD        
0010001300092B   100037566455842                                                                                                                                                                                                                
0010001300093A0000000010697280000000322245 CLAYTON FERREIRA DA SILVA                         05092023BRL0000000000000000000000000778260000000000479014642705092023000000000077826                                        0 0    00    BD        
0010001300094B   100027632400893                                                                                                                                                                                                                
0010001300095A0000000010697280000000322253 CLEBER PINTO ALBINO                               05092023BRL0000000000000000000000004638190000000000479014642805092023000000000463819                                        0 0    00    BD        
0010001300096B   100021276364814                                                                                                                                                                                                                
0010001300097A0000000010697280000000322261 CLEITO MARTINS DE OLIVEIRA                        05092023BRL0000000000000000000000001433530000000000479014642905092023000000000143353                                        0 0    00    BD        
0010001300098B   100020590058843                                                                                                                                                                                                                
0010001300099A000000001069728000000032227X CLEONILDA DA SILVA TEREZA                         05092023BRL0000000000000000000000001118740000000000479014643005092023000000000111874                                        0 0    00    BD        
0010001300100B   100030825909856                                                                                                                                                                                                                
0010001300101A0000000010697280000000322288 CORACI DE SOUZA FERREIRA                          05092023BRL0000000000000000000000001987590000000000479014643105092023000000000198759                                        0 0    00    BD        
0010001300102B   100000798760648                                                                                                                                                                                                                
0010001300103A0000000010697280000000322296 CREUSA PENA DE OLIVEIRA DA SIL                    05092023BRL0000000000000000000000001515470000000000479014643205092023000000000151547                                        0 0    00    BD        
0010001300104B   100008983485876                                                                                                                                                                                                                
0010001300105A000000001069728000000032230X CRISTIANE APARECIDA BARBOSA DA                    05092023BRL0000000000000000000000001060980000000000479014643305092023000000000106098                                        0 0    00    BD        
0010001300106B   100015565110866                                                                                                                                                                                                                
0010001300107A0000000010697280000000322318 CRISTIANE APARECIDA DE ANDRADE                    05092023BRL0000000000000000000000003055540000000000479014643405092023000000000305554                                        0 0    00    BD        
0010001300108B   100017708032890                                                                                                                                                                                                                
0010001300109A0000000010697280000000322326 DALVANILZA LOURENCO SILVA                         05092023BRL0000000000000000000000000922800000000000479014643505092023000000000092280                                        0 0    00    BD        
0010001300110B   100031200520866                                                                                                                                                                                                                
0010001300111A0000000010697280000000322334 DAMACIO PEREIRA ALVES                             05092023BRL0000000000000000000000001817160000000000479014643605092023000000000181716                                        0 0    00    BD        
0010001300112B   100039758494368                                                                                                                                                                                                                
0010001300113A0000000010697280000000322342 DANIEL PEREIRA RUAS                               05092023BRL0000000000000000000000000886230000000000479014643705092023000000000088623                                        0 0    00    BD        
0010001300114B   100039772339803                                                                                                                                                                                                                
0010001300115A0000000010697280000000322369 DIEGO RENAN MACHADO                               05092023BRL0000000000000000000000000445140000000000479014643805092023000000000044514                                        0 0    00    BD        
0010001300116B   100036913896867                                                                                                                                                                                                                
0010001300117A0000000010697280000000322377 DIOGO DA SILVA FERREIRA                           05092023BRL0000000000000000000000000292520000000000479014643905092023000000000029252                                        0 0    00    BD        
0010001300118B   100038240435807                                                                                                                                                                                                                
0010001300119A0000000010697280000000322385 DIOGO RODRIGUES DE LIMA                           05092023BRL0000000000000000000000001251560000000000479014644005092023000000000125156                                        0 0    00    BD        
0010001300120B   100041099422841                                                                                                                                                                                                                
0010001300121A0000000010697280000000322393 DOUGLAS ANTONIO DE SENE JUNIOR                    05092023BRL0000000000000000000000000262300000000000479014644105092023000000000026230                                        0 0    00    BD        
0010001300122B   100048656508814                                                                                                                                                                                                                
0010001300123A0000000010697280000000322407 DOUGLAS CERQUEIRA SOUZA                           05092023BRL0000000000000000000000000527120000000000479014644205092023000000000052712                                        0 0    00    BD        
0010001300124B   100041251394825                                                                                                                                                                                                                
0010001300125A0000000010697280000000322415 DOUGLAS DA CRUZ SANTANA                           05092023BRL0000000000000000000000000636160000000000479014644305092023000000000063616                                        0 0    00    BD        
0010001300126B   100035498172826                                                                                                                                                                                                                
0010001300127A0000000010697280000000322423 ED CARLOS CAPELATI                                05092023BRL0000000000000000000000002572770000000000479014644405092023000000000257277                                        0 0    00    BD        
0010001300128B   100018559765875                                                                                                                                                                                                                
0010001300129A0000000010697280000000322431 EDEMILSON MACEDO RIBEIRO                          05092023BRL0000000000000000000000000826250000000000479014644505092023000000000082625                                        0 0    00    BD        
0010001300130B   100020519988841                                                                                                                                                                                                                
0010001300131A000000001069728000000032244X EDI CARLOS DA SILVA                               05092023BRL0000000000000000000000001153520000000000479014644605092023000000000115352                                        0 0    00    BD        
0010001300132B   100028559737839                                                                                                                                                                                                                
0010001300133A0000000010697280000000322458 EDI MOREIRA DA CONCEICAO                          05092023BRL0000000000000000000000000668170000000000479014644705092023000000000066817                                        0 0    00    BD        
0010001300134B   100028477956855                                                                                                                                                                                                                
0010001300135A0000000010697280000000322474 EDLAINE CARVALHO DE SOUZA                         05092023BRL0000000000000000000000000272700000000000479014644805092023000000000027270                                        0 0    00    BD        
0010001300136B   100025458013808                                                                                                                                                                                                                
0010001300137A0000000010697280000000322482 EDSON LAURIANO DIAS                               05092023BRL0000000000000000000000001119740000000000479014644905092023000000000111974                                        0 0    00    BD        
0010001300138B   100030227595840                                                                                                                                                                                                                
0010001300139A0000000010697280000000322490 EDUARDO DA SILVA GOMES                            05092023BRL0000000000000000000000003087410000000000479014645005092023000000000308741                                        0 0    00    BD        
0010001300140B   100034371220886                                                                                                                                                                                                                
0010001300141A0000000010697280000000322504 EGIDIO HENRIQUE DE OLIVEIRA                       05092023BRL0000000000000000000000001587750000000000479014645105092023000000000158775                                        0 0    00    BD        
0010001300142B   100028061789833                                                                                                                                                                                                                
0010001300143A0000000010697280000000322512 ELAINE SANTIAGO DOS SANTOS SIL                    05092023BRL0000000000000000000000001251560000000000479014645205092023000000000125156                                        0 0    00    BD        
0010001300144B   100035039148895                                                                                                                                                                                                                
0010001300145A0000000010697280000000322520 ELIANE ALVES DE OLIVEIRA                          05092023BRL0000000000000000000000001549660000000000479014645305092023000000000154966                                        0 0    00    BD        
0010001300146B   100030964968894                                                                                                                                                                                                                
0010001300147A0000000010697280000000322539 ELIANE APARECIDA FERNANDES                        05092023BRL0000000000000000000000000445480000000000479014645405092023000000000044548                                        0 0    00    BD        
0010001300148B   100022176418832                                                                                                                                                                                                                
0010001300149A0000000010697280000000322555 ELISANGELA DA SILVA DIAS                          05092023BRL0000000000000000000000002227230000000000479014645505092023000000000222723                                        0 0    00    BD        
0010001300150B   100074358626300                                                                                                                                                                                                                
0010001300151A0000000010697280000000322563 ELISANGELA DA SILVA SANTOS                        05092023BRL0000000000000000000000001245410000000000479014645605092023000000000124541                                        0 0    00    BD        
0010001300152B   100022534374842                                                                                                                                                                                                                
0010001300153A0000000010697280000000322571 ELISETE DE PAULA GOMES CARNEIR                    05092023BRL0000000000000000000000002230570000000000479014645705092023000000000223057                                        0 0    00    BD        
0010001300154B   100027778794861                                                                                                                                                                                                                
0010001300155A000000001069728000000032258X EMERSON DANTAS DE OLIVEIRA                        05092023BRL0000000000000000000000001563950000000000479014645805092023000000000156395                                        0 0    00    BD        
0010001300156B   100014302663847                                                                                                                                                                                                                
0010001300157A0000000010697280000000322598 ENEIZE DE ALMEIDA SOARES                          05092023BRL0000000000000000000000000496730000000000479014645905092023000000000049673                                        0 0    00    BD        
0010001300158B   100003388447403                                                                                                                                                                                                                
0010001300159A000000001069728000000032261X ERIVALDO LOPES DOS SANTOS                         05092023BRL0000000000000000000000001369070000000000479014646005092023000000000136907                                        0 0    00    BD        
0010001300160B   100075080630582                                                                                                                                                                                                                
0010001300161A0000000010697280000000322628 EVALDO FERREIRA DE SOUZA                          05092023BRL0000000000000000000000002046440000000000479014646105092023000000000204644                                        0 0    00    BD        
0010001300162B   100014811479866                                                                                                                                                                                                                
0010001300163A0000000010697280000000322644 EVERALDO BISPO SA                                 05092023BRL0000000000000000000000000157430000000000479014646205092023000000000015743                                        0 0    00    BD        
0010001300164B   100095659790500                                                                                                                                                                                                                
0010001300165A0000000010697280000000322652 EVERALDO DE OLIVEIRA ALVES                        05092023BRL0000000000000000000000001917230000000000479014646305092023000000000191723                                        0 0    00    BD        
0010001300166B   100014665774870                                                                                                                                                                                                                
0010001300167A0000000010697280000000322679 FABIO ALVES DA SILVA                              05092023BRL0000000000000000000000000480430000000000479014646405092023000000000048043                                        0 0    00    BD        
0010001300168B   100030230758835                                                                                                                                                                                                                
0010001300169A0000000010697280000000322687 FABIOLA EVELYN RAMOS DE CARVAL                    05092023BRL0000000000000000000000000360390000000000479014646505092023000000000036039                                        0 0    00    BD        
0010001300170B   100045330614864                                                                                                                                                                                                                
0010001300171A0000000010697280000000322695 FABRICIO BARBOZA SERAFIM                          05092023BRL0000000000000000000000001263170000000000479014646605092023000000000126317                                        0 0    00    BD        
0010001300172B   100022814985817                                                                                                                                                                                                                
0010001300173A0000000010697280000000322717 FERNANDA MATIAS DE SOUZA                          05092023BRL0000000000000000000000001224550000000000479014646705092023000000000122455                                        0 0    00    BD        
0010001300174B   100022796437825                                                                                                                                                                                                                
0010001300175A0000000010697280000000322741 FRANCISCO DAVI SANTOS RODRIGUE                    05092023BRL0000000000000000000000001034190000000000479014646805092023000000000103419                                        0 0    00    BD        
0010001300176B   100031401920888                                                                                                                                                                                                                
0010001300177A0000000010697280000000322768 FRANCISCO JONAS DA SILVA                          05092023BRL0000000000000000000000000707690000000000479014646905092023000000000070769                                        0 0    00    BD        
0010001300178B   100000877648301                                                                                                                                                                                                                
0010001300179A0000000010697280000000322776 GABRIEL ROCHA MASSOLI                             05092023BRL0000000000000000000000001131360000000000479014647005092023000000000113136                                        0 0    00    BD        
0010001300180B   100047054005856                                                                                                                                                                                                                
0010001300181A0000000010697280000000322784 GENIVALDO GOMES DE OLIVEIRA                       05092023BRL0000000000000000000000001236820000000000479014647105092023000000000123682                                        0 0    00    BD        
0010001300182B   100025648398867                                                                                                                                                                                                                
0010001300183A0000000010697280000000322792 GEOGERIS CARLIM MONTEIRO                          05092023BRL0000000000000000000000001169560000000000479014647205092023000000000116956                                        0 0    00    BD        
0010001300184B   100021891368818                                                                                                                                                                                                                
0010001300185A0000000010697280000000322806 GILSON JOSE MARTINS                               05092023BRL0000000000000000000000001671520000000000479014647305092023000000000167152                                        0 0    00    BD        
0010001300186B   100035158037850                                                                                                                                                                                                                
0010001300187A0000000010697280000000322814 GILVAN RAMOS DA CRUZ                              05092023BRL0000000000000000000000001209560000000000479014647405092023000000000120956                                        0 0    00    BD        
0010001300188B   100028612900808                                                                                                                                                                                                                
0010001300189A0000000010697280000000322822 GIOVANE DA SILVA QUILOTI                          05092023BRL0000000000000000000000000476390000000000479014647505092023000000000047639                                        0 0    00    BD        
0010001300190B   100043924841810                                                                                                                                                                                                                
0010001300191A0000000010697280000000322849 GISLENE RODRIGUES                                 05092023BRL0000000000000000000000000643660000000000479014647605092023000000000064366                                        0 0    00    BD        
0010001300192B   100025071381818                                                                                                                                                                                                                
0010001300193A0000000010697280000000322857 GRACIETE LUISA DA SILVA                           05092023BRL0000000000000000000000000471480000000000479014647705092023000000000047148                                        0 0    00    BD        
0010001300194B   100035207668846                                                                                                                                                                                                                
0010001300195A0000000010697280000000322873 GUSTAVO BARBOSA DA SILVA                          05092023BRL0000000000000000000000001186920000000000479014647805092023000000000118692                                        0 0    00    BD        
0010001300196B   100041484171870                                                                                                                                                                                                                
0010001300197A0000000010697280000000322881 GUSTAVO NOGUEIRA SANTOS                           05092023BRL0000000000000000000000003524440000000000479014647905092023000000000352444                                        0 0    00    BD        
0010001300198B   100040423325876                                                                                                                                                                                                                
0010001300199A000000001069728000000032289X GUSTAVO RAMOS FARIAS                              05092023BRL0000000000000000000000001133560000000000479014648005092023000000000113356                                        0 0    00    BD        
0010001300200B   100051068751886                                                                                                                                                                                                                
0010001300201A0000000010697280000000322903 HAMILTON PASSOS DANTAS                            05092023BRL0000000000000000000000001367030000000000479014648105092023000000000136703                                        0 0    00    BD        
0010001300202B   100028583120870                                                                                                                                                                                                                
0010001300203A0000000010697280000000322938 HUDSON DIAS DOS SANTOS                            05092023BRL0000000000000000000000000494810000000000479014648205092023000000000049481                                        0 0    00    BD        
0010001300204B   100034483253840                                                                                                                                                                                                                
0010001300205A0000000010697280000000322946 ILZA APARECIDA DIAS                               05092023BRL0000000000000000000000000348530000000000479014648305092023000000000034853                                        0 0    00    BD        
0010001300206B   100012578132852                                                                                                                                                                                                                
0010001300207A0000000010697280000000322954 IVONETE APARECIDA DOS SANTOS                      05092023BRL0000000000000000000000000490020000000000479014648405092023000000000049002                                        0 0    00    BD        
0010001300208B   100009641571877                                                                                                                                                                                                                
0010001300209A0000000010697280000000322970 JANIO PIRES ARAUJO                                05092023BRL0000000000000000000000001209560000000000479014648505092023000000000120956                                        0 0    00    BD        
0010001300210B   100027867054871                                                                                                                                                                                                                
0010001300211A0000000010697280000000322997 JHENIFER DE OLIVEIRA                              05092023BRL0000000000000000000000000358940000000000479014648605092023000000000035894                                        0 0    00    BD        
0010001300212B   100049555172854                                                                                                                                                                                                                
0010001300213A0000000010697280000000323004 JHONATAN SILVA                                    05092023BRL0000000000000000000000001040710000000000479014648705092023000000000104071                                        0 0    00    BD        
0010001300214B   100036310830848                                                                                                                                                                                                                
0010001300215A0000000010697280000000323020 JOAO DE OLIVEIRA                                  05092023BRL0000000000000000000000001209560000000000479014648805092023000000000120956                                        0 0    00    BD        
0010001300216B   100008829412830                                                                                                                                                                                                                
0010001300217A0000000010697280000000323039 JOAO MARCOS ROMAO DA SILVA                        05092023BRL0000000000000000000000000459730000000000479014648905092023000000000045973                                        0 0    00    BD        
0010001300218B   100010984589406                                                                                                                                                                                                                
0010001300219A0000000010697280000000323047 JOAQUIM FERNANDES FILHO                           05092023BRL0000000000000000000000001426400000000000479014649005092023000000000142640                                        0 0    00    BD        
0010001300220B   100005454957844                                                                                                                                                                                                                
0010001300221A0000000010697280000000323055 JOCELIO FERREIRA DA SILVA                         05092023BRL0000000000000000000000000422390000000000479014649105092023000000000042239                                        0 0    00    BD        
0010001300222B   100033822872857                                                                                                                                                                                                                
0010001300223A0000000010697280000000323063 JOCIENE DOS SANTOS SOARES RIBE                    05092023BRL0000000000000000000000001118740000000000479014649205092023000000000111874                                        0 0    00    BD        
0010001300224B   100005274797563                                                                                                                                                                                                                
0010001300225A0000000010697280000000323071 JOEL GONCALVES DOS SANTOS                         05092023BRL0000000000000000000000001251560000000000479014649305092023000000000125156                                        0 0    00    BD        
0010001300226B   100015633607805                                                                                                                                                                                                                
0010001300227A000000001069728000000032308X JOELMA BORGES DEBUS                               05092023BRL0000000000000000000000001659770000000000479014649405092023000000000165977                                        0 0    00    BD        
0010001300228B   100025562131838                                                                                                                                                                                                                
0010001300229A0000000010697280000000323098 JOHANY NASCIMENTO DA SILVA                        05092023BRL0000000000000000000000000639570000000000479014649505092023000000000063957                                        0 0    00    BD        
0010001300230B   100035402325839                                                                                                                                                                                                                
0010001300231A0000000010697280000000323128 JOSE CICERO DO NASCIMENTO                         05092023BRL0000000000000000000000001606020000000000479014649605092023000000000160602                                        0 0    00    BD        
0010001300232B   100057061637404                                                                                                                                                                                                                
0010001300233A0000000010697280000000323136 JOSE DO NASCIMENTO                                05092023BRL0000000000000000000000000809870000000000479014649705092023000000000080987                                        0 0    00    BD        
0010001300234B   100007942398897                                                                                                                                                                                                                
0010001300235A0000000010697280000000323144 JOSE EDVALDO DOS SANTOS ROCHA                     05092023BRL0000000000000000000000001251560000000000479014649805092023000000000125156                                        0 0    00    BD        
0010001300236B   100095654186434                                                                                                                                                                                                                
0010001300237A0000000010697280000000323152 JOSE GENIVAL DE SOUZA                             05092023BRL0000000000000000000000000720400000000000479014649905092023000000000072040                                        0 0    00    BD        
0010001300238B   100070798001453                                                                                                                                                                                                                
0010001300239A0000000010697280000000323160 JOSE GOMES FILHO                                  05092023BRL0000000000000000000000000594210000000000479014650005092023000000000059421                                        0 0    00    BD        
0010001300240B   100044642911472                                                                                                                                                                                                                
0010001300241A0000000010697280000000323179 JOSE LEANDRO SOARES DE OLIVEIR                    05092023BRL0000000000000000000000001367030000000000479014650105092023000000000136703                                        0 0    00    BD        
0010001300242B   100042643419812                                                                                                                                                                                                                
0010001300243A0000000010697280000000323195 JOSE WILSON JONAS DO NASCIMENT                    05092023BRL0000000000000000000000001201210000000000479014650205092023000000000120121                                        0 0    00    BD        
0010001300244B   100047455837534                                                                                                                                                                                                                
0010001300245A0000000010697280000000323209 JOSEMAR FERREIRA DOS SANTOS                       05092023BRL0000000000000000000000000352830000000000479014650305092023000000000035283                                        0 0    00    BD        
0010001300246B   100021371422877                                                                                                                                                                                                                
0010001300247A0000000010697280000000323217 JOSENALDO SOUZA TEIXEIRA                          05092023BRL0000000000000000000000002231840000000000479014650405092023000000000223184                                        0 0    00    BD        
0010001300248B   100010350958823                                                                                                                                                                                                                
0010001300249A0000000010697280000000323225 JOSILMA SILVA MARTINS                             05092023BRL0000000000000000000000001126490000000000479014650505092023000000000112649                                        0 0    00    BD        
0010001300250B   100000119273306                                                                                                                                                                                                                
0010001300251A0000000010697280000000323233 JOSIMAR DOS SANTOS CAMPOS                         05092023BRL0000000000000000000000001014700000000000479014650605092023000000000101470                                        0 0    00    BD        
0010001300252B   100003224544503                                                                                                                                                                                                                
0010001300253A0000000010697280000000323241 JUAN PABLO NEVES SANTOS                           05092023BRL0000000000000000000000001169260000000000479014650705092023000000000116926                                        0 0    00    BD        
0010001300254B   100052257841867                                                                                                                                                                                                                
0010001300255A000000001069728000000032325X JUCELIO SANTIAGO VIANA                            05092023BRL0000000000000000000000000741930000000000479014650805092023000000000074193                                        0 0    00    BD        
0010001300256B   100042673347810                                                                                                                                                                                                                
0010001300257A0000000010697280000000323268 JURANDIR PEREIRA GOMES                            05092023BRL0000000000000000000000000560190000000000479014650905092023000000000056019                                        0 0    00    BD        
0010001300258B   100029207974843                                                                                                                                                                                                                
0010001300259A0000000010697280000000323276 KAREN GOMES DA SILVA                              05092023BRL0000000000000000000000001419950000000000479014651005092023000000000141995                                        0 0    00    BD        
0010001300260B   100043489670833                                                                                                                                                                                                                
0010001300261A0000000010697280000000323284 KARINE FARIAS NEVES                               05092023BRL0000000000000000000000003331770000000000479014651105092023000000000333177                                        0 0    00    BD        
0010001300262B   100043062315857                                                                                                                                                                                                                
0010001300263A0000000010697280000000323292 KATIA REGINA MOREIRA DE SOUZA                     05092023BRL0000000000000000000000001297010000000000479014651205092023000000000129701                                        0 0    00    BD        
0010001300264B   100018559755802                                                                                                                                                                                                                
0010001300265A0000000010697280000000323306 LAERTE MEIRELES GUERRA                            05092023BRL0000000000000000000000002767940000000000479014651305092023000000000276794                                        0 0    00    BD        
0010001300266B   100014512253858                                                                                                                                                                                                                
0010001300267A0000000010697280000000323314 LAURA KATHELLEN BONFIM MONTEIR                    05092023BRL0000000000000000000000000665300000000000479014651405092023000000000066530                                        0 0    00    BD        
0010001300268B   100051012329801                                                                                                                                                                                                                
0010001300269A0000000010697280000000323322 LEANDRO CRUZ DE JESUS                             05092023BRL0000000000000000000000001265090000000000479014651505092023000000000126509                                        0 0    00    BD        
0010001300270B   100036669550880                                                                                                                                                                                                                
0010001300271A0000000010697280000000323349 LEONARDO DA SILVA SILVEIRA                        05092023BRL0000000000000000000000000374370000000000479014651605092023000000000037437                                        0 0    00    BD        
0010001300272B   100032713099811                                                                                                                                                                                                                
0010001300273A0000000010697280000000323357 LEONARDO DE JESUS DINIZ                           05092023BRL0000000000000000000000000172240000000000479014651705092023000000000017224                                        0 0    00    BD        
0010001300274B   100034137837856                                                                                                                                                                                                                
0010001300275A0000000010697280000000323365 LETICIA CRISTINA DA SILVA MACI                    05092023BRL0000000000000000000000000758570000000000479014651805092023000000000075857                                        0 0    00    BD        
0010001300276B   100045041084882                                                                                                                                                                                                                
0010001300277A0000000010697280000000323373 LETICIA SILVA BARBOSA                             05092023BRL0000000000000000000000001168750000000000479014651905092023000000000116875                                        0 0    00    BD        
0010001300278B   100049837493810                                                                                                                                                                                                                
0010001300279A000000001069728000000032339X LUCAS SANTOS ROCHA DE SOUSA                       05092023BRL0000000000000000000000001884090000000000479014652005092023000000000188409                                        0 0    00    BD        
0010001300280B   100031899787860                                                                                                                                                                                                                
0010001300281A0000000010697280000000323403 LUCIANA DE CASSIA RODRIGUES PE                    05092023BRL0000000000000000000000001758390000000000479014652105092023000000000175839                                        0 0    00    BD        
0010001300282B   100025399245817                                                                                                                                                                                                                
0010001300283A0000000010697280000000323411 LUCINEIDE SILVA MOREIRA                           05092023BRL0000000000000000000000000983500000000000479014652205092023000000000098350                                        0 0    00    BD        
0010001300284B   100054267617520                                                                                                                                                                                                                
0010001300285A000000001069728000000032342X LUIS FELIPE DE SOUZA                              05092023BRL0000000000000000000000001047210000000000479014652305092023000000000104721                                        0 0    00    BD        
0010001300286B   100033180949864                                                                                                                                                                                                                
0010001300287A0000000010697280000000323438 LUIS FERNANDO TELES SILVA                         05092023BRL0000000000000000000000001169610000000000479014652405092023000000000116961                                        0 0    00    BD        
0010001300288B   100022459524803                                                                                                                                                                                                                
0010001300289A0000000010697280000000323446 LUIS RODRIGUES DOS SANTOS                         05092023BRL0000000000000000000000000287650000000000479014652505092023000000000028765                                        0 0    00    BD        
0010001300290B   100025254036818                                                                                                                                                                                                                
0010001300291A0000000010697280000000323454 LUIZ GONZAGA SANTOS SILVEIRA                      05092023BRL0000000000000000000000000584980000000000479014652605092023000000000058498                                        0 0    00    BD        
0010001300292B   100059907878120                                                                                                                                                                                                                
0010001300293A0000000010697280000000323462 LUIZ SILVA BASTOS                                 05092023BRL0000000000000000000000000939420000000000479014652705092023000000000093942                                        0 0    00    BD        
0010001300294B   100063848236591                                                                                                                                                                                                                
0010001300295A0000000010697280000000323470 MAGNA BARBOSA ARRUDA DE SOUSA                     05092023BRL0000000000000000000000000318870000000000479014652805092023000000000031887                                        0 0    00    BD        
0010001300296B   100017745198879                                                                                                                                                                                                                
0010001300297A0000000010697280000000323489 MAGNO DA SILVA ROCHA                              05092023BRL0000000000000000000000001306620000000000479014652905092023000000000130662                                        0 0    00    BD        
0010001300298B   100035935984857                                                                                                                                                                                                                
0010001300299A0000000010697280000000323497 MANOEL SANTANA DE LIMA                            05092023BRL0000000000000000000000000952250000000000479014653005092023000000000095225                                        0 0    00    BD        
0010001300300B   100033924933847                                                                                                                                                                                                                
0010001300301A0000000010697280000000323500 MARCELO ALVES MENDES                              05092023BRL0000000000000000000000001959260000000000479014653105092023000000000195926                                        0 0    00    BD        
0010001300302B   100029450006873                                                                                                                                                                                                                
0010001300303A0000000010697280000000323519 MARCELO DOS SANTOS JUNIOR                         05092023BRL0000000000000000000000001703700000000000479014653205092023000000000170370                                        0 0    00    BD        
0010001300304B   100040244530840                                                                                                                                                                                                                
0010001300305A0000000010697280000000323535 MARCIO AMARAL DE PADUA                            05092023BRL0000000000000000000000002499040000000000479014653305092023000000000249904                                        0 0    00    BD        
0010001300306B   100014515488856                                                                                                                                                                                                                
0010001300307A0000000010697280000000323551 MARCIO VITOR BATISTA                              05092023BRL0000000000000000000000001411240000000000479014653405092023000000000141124                                        0 0    00    BD        
0010001300308B   100013324731801                                                                                                                                                                                                                
0010001300309A000000001069728000000032356X MARCOS ANTONIO ROSSATI                            05092023BRL0000000000000000000000003229190000000000479014653505092023000000000322919                                        0 0    00    BD        
0010001300310B   100013441240898                                                                                                                                                                                                                
0010001300311A0000000010697280000000323586 MARIA ADRIANA DA SILVA                            05092023BRL0000000000000000000000001480060000000000479014653605092023000000000148006                                        0 0    00    BD        
0010001300312B   100030450364810                                                                                                                                                                                                                
0010001300313A0000000010697280000000323594 MARIA ALDENORA CRUZ SANTANA                       05092023BRL0000000000000000000000000889620000000000479014653705092023000000000088962                                        0 0    00    BD        
0010001300314B   100025021662848                                                                                                                                                                                                                
0010001300315A0000000010697280000000323608 MARIA ANGELICA COELHO GONCALVE                    05092023BRL0000000000000000000000001095620000000000479014653805092023000000000109562                                        0 0    00    BD        
0010001300316B   100040450938859                                                                                                                                                                                                                
0010001300317A0000000010697280000000323616 MARIA APARECIDA DOS SANTOS                        05092023BRL0000000000000000000000001292440000000000479014653905092023000000000129244                                        0 0    00    BD        
0010001300318B   100009642096838                                                                                                                                                                                                                
0010001300319A0000000010697280000000323624 MARIA APARECIDA QUIRINO                           05092023BRL0000000000000000000000000755660000000000479014654005092023000000000075566                                        0 0    00    BD        
0010001300320B   100032895697809                                                                                                                                                                                                                
0010001300321A0000000010697280000000323632 MARIA APARECIDA SILVA DE OLIVE                    05092023BRL0000000000000000000000000597800000000000479014654105092023000000000059780                                        0 0    00    BD        
0010001300322B   100010046663819                                                                                                                                                                                                                
0010001300323A0000000010697280000000323659 MARIA CUSTODIO SILVA DOS REIS                     05092023BRL0000000000000000000000000866180000000000479014654205092023000000000086618                                        0 0    00    BD        
0010001300324B   100089419510387                                                                                                                                                                                                                
0010001300325A0000000010697280000000323667 MARIA DE FATIMA DA SILVA                          05092023BRL0000000000000000000000001211250000000000479014654305092023000000000121125                                        0 0    00    BD        
0010001300326B   100012516269803                                                                                                                                                                                                                
0010001300327A0000000010697280000000323675 MARIA DE FATIMA RODRIGUES DA S                    05092023BRL0000000000000000000000001076740000000000479014654405092023000000000107674                                        0 0    00    BD        
0010001300328B   100014939349888                                                                                                                                                                                                                
0010001300329A0000000010697280000000323691 MARIA GONCALVES SOARES DE ASSI                    05092023BRL0000000000000000000000001124910000000000479014654505092023000000000112491                                        0 0    00    BD        
0010001300330B   100013069589898                                                                                                                                                                                                                
0010001300331A0000000010697280000000323705 MARIA ISANETE SOARES DOS SANTO                    05092023BRL0000000000000000000000001251560000000000479014654605092023000000000125156                                        0 0    00    BD        
0010001300332B   100034449798864                                                                                                                                                                                                                
0010001300333A0000000010697280000000323713 MARIA JOSE DA SILVA                               05092023BRL0000000000000000000000001118740000000000479014654705092023000000000111874                                        0 0    00    BD        
0010001300334B   100089449622434                                                                                                                                                                                                                
0010001300335A0000000010697280000000323721 MARIA NEUSA SANTOS SENA                           05092023BRL0000000000000000000000001278030000000000479014654805092023000000000127803                                        0 0    00    BD        
0010001300336B   100014627964862                                                                                                                                                                                                                
0010001300337A000000001069728000000032373X MARIA QUITERIA LIMA                               05092023BRL0000000000000000000000001185150000000000479014654905092023000000000118515                                        0 0    00    BD        
0010001300338B   100070770824587                                                                                                                                                                                                                
0010001300339A0000000010697280000000323756 MARTA ALVES PEREIRA                               05092023BRL0000000000000000000000001441350000000000479014655005092023000000000144135                                        0 0    00    BD        
0010001300340B   100014515353845                                                                                                                                                                                                                
0010001300341A0000000010697280000000323764 MATEUS JOSE DA SILVA                              05092023BRL0000000000000000000000001137360000000000479014655105092023000000000113736                                        0 0    00    BD        
0010001300342B   100023847135821                                                                                                                                                                                                                
0010001300343A0000000010697280000000323780 MAURI ALVES FERREIRA                              05092023BRL0000000000000000000000000872910000000000479014655205092023000000000087291                                        0 0    00    BD        
0010001300344B   100028466609806                                                                                                                                                                                                                
0010001300345A0000000010697280000000323799 MAURILIO SOARES DE SOUZA                          05092023BRL0000000000000000000000001522780000000000479014655305092023000000000152278                                        0 0    00    BD        
0010001300346B   100034534565801                                                                                                                                                                                                                
0010001300347A0000000010697280000000323802 MAURO MORIYAMA                                    05092023BRL0000000000000000000000003977120000000000479014655405092023000000000397712                                        0 0    00    BD        
0010001300348B   100000162186800                                                                                                                                                                                                                
0010001300349A0000000010697280000000323829 MILENA ROSSI                                      05092023BRL0000000000000000000000000865930000000000479014655505092023000000000086593                                        0 0    00    BD        
0010001300350B   100029580663807                                                                                                                                                                                                                
0010001300351A0000000010697280000000323837 MOISES GONCALVES LIMA                             05092023BRL0000000000000000000000000026170000000000479014655605092023000000000002617                                        0 0    00    BD        
0010001300352B   100035565631858                                                                                                                                                                                                                
0010001300353A0000000010697280000000323861 NILSON DOS SANTOS ANDRE                           05092023BRL0000000000000000000000004612520000000000479014655705092023000000000461252                                        0 0    00    BD        
0010001300354B   100011278493875                                                                                                                                                                                                                
0010001300355A000000001069728000000032387X OSMAR NERVA                                       05092023BRL0000000000000000000000002304010000000000479014655805092023000000000230401                                        0 0    00    BD        
0010001300356B   100007776256870                                                                                                                                                                                                                
0010001300357A0000000010697280000000323888 OZIEL SEVERINO DA SILVA                           05092023BRL0000000000000000000000001251560000000000479014655905092023000000000125156                                        0 0    00    BD        
0010001300358B   100014086991845                                                                                                                                                                                                                
0010001300359A0000000010697280000000323896 PALOMA FERNANDES DA SILVA                         05092023BRL0000000000000000000000001465200000000000479014656005092023000000000146520                                        0 0    00    BD        
0010001300360B   100034359413831                                                                                                                                                                                                                
0010001300361A0000000010697280000000323918 PAULO HENRIQUE DA SILVA                           05092023BRL0000000000000000000000001413000000000000479014656105092023000000000141300                                        0 0    00    BD        
0010001300362B   100034881998862                                                                                                                                                                                                                
0010001300363A0000000010697280000000323934 PAULO LUIZ DA SILVA                               05092023BRL0000000000000000000000001549660000000000479014656205092023000000000154966                                        0 0    00    BD        
0010001300364B   100013461202851                                                                                                                                                                                                                
0010001300365A0000000010697280000000323950 RAFAEL BARRETO DE OLIVEIRA                        05092023BRL0000000000000000000000001514480000000000479014656305092023000000000151448                                        0 0    00    BD        
0010001300366B   100005363699508                                                                                                                                                                                                                
0010001300367A0000000010697280000000323969 RAFAEL DAMACENO                                   05092023BRL0000000000000000000000001251560000000000479014656405092023000000000125156                                        0 0    00    BD        
0010001300368B   100033401789848                                                                                                                                                                                                                
0010001300369A0000000010697280000000323977 RAFAEL FERREIRA DA SILVA                          05092023BRL0000000000000000000000001427520000000000479014656505092023000000000142752                                        0 0    00    BD        
0010001300370B   100037685737884                                                                                                                                                                                                                
0010001300371A0000000010697280000000323985 RAFAEL FRAMINAN PROETTI                           05092023BRL0000000000000000000000004548150000000000479014656605092023000000000454815                                        0 0    00    BD        
0010001300372B   100040208275835                                                                                                                                                                                                                
0010001300373A0000000010697280000000323993 RAFAEL SANTOS GABRIEL                             05092023BRL0000000000000000000000001437070000000000479014656705092023000000000143707                                        0 0    00    BD        
0010001300374B   100039165071840                                                                                                                                                                                                                
0010001300375A0000000010697280000000324000 RAIMUNDO DE AQUINO SANTOS                         05092023BRL0000000000000000000000000467540000000000479014656805092023000000000046754                                        0 0    00    BD        
0010001300376B   100003219471501                                                                                                                                                                                                                
0010001300377A0000000010697280000000324019 RAUL DINIZ COSTA DE SOUZA                         05092023BRL0000000000000000000000001251560000000000479014656905092023000000000125156                                        0 0    00    BD        
0010001300378B   100016941140828                                                                                                                                                                                                                
0010001300379A0000000010697280000000324035 RENATO CHAGAS LIMA                                05092023BRL0000000000000000000000002146400000000000479014657005092023000000000214640                                        0 0    00    BD        
0010001300380B   100012778102817                                                                                                                                                                                                                
0010001300381A0000000010697280000000324043 RENE CESARIO DE OLIVEIRA                          05092023BRL0000000000000000000000001300170000000000479014657105092023000000000130017                                        0 0    00    BD        
0010001300382B   100008743396852                                                                                                                                                                                                                
0010001300383A0000000010697280000000324051 RICARDO MARQUES DA SILVA MOURA                    05092023BRL0000000000000000000000000300700000000000479014657205092023000000000030070                                        0 0    00    BD        
0010001300384B   100030081605811                                                                                                                                                                                                                
0010001300385A0000000010697280000000324086 ROBERTA VIVIAN SILVA CHIACCHIE                    05092023BRL0000000000000000000000000830090000000000479014657305092023000000000083009                                        0 0    00    BD        
0010001300386B   100022250864861                                                                                                                                                                                                                
0010001300387A0000000010697280000000324108 ROBERTO DA SILVA SOBRAL                           05092023BRL0000000000000000000000001073530000000000479014657405092023000000000107353                                        0 0    00    BD        
0010001300388B   100034639137800                                                                                                                                                                                                                
0010001300389A0000000010697280000000324116 ROBERTO JOSE DE SANTANA                           05092023BRL0000000000000000000000001118730000000000479014657505092023000000000111873                                        0 0    00    BD        
0010001300390B   100028965273897                                                                                                                                                                                                                
0010001300391A0000000010697280000000324124 ROBSON SANTANA LUZ                                05092023BRL0000000000000000000000002104360000000000479014657605092023000000000210436                                        0 0    00    BD        
0010001300392B   100033842577826                                                                                                                                                                                                                
0010001300393A0000000010697280000000324132 RODRIGO ALVES DE SOUSA                            05092023BRL0000000000000000000000001664990000000000479014657705092023000000000166499                                        0 0    00    BD        
0010001300394B   100029052266840                                                                                                                                                                                                                
0010001300395A0000000010697280000000324140 RODRIGO MASCARENHAS REBOUCAS                      05092023BRL0000000000000000000000000859890000000000479014657805092023000000000085989                                        0 0    00    BD        
0010001300396B   100033101211867                                                                                                                                                                                                                
0010001300397A0000000010697280000000324167 RONALD DIAS PEREIRA                               05092023BRL0000000000000000000000001229950000000000479014657905092023000000000122995                                        0 0    00    BD        
0010001300398B   100045547369896                                                                                                                                                                                                                
0010001300399A0000000010697280000000324175 RONALDO SOUZA PEREIRA                             05092023BRL0000000000000000000000000315060000000000479014658005092023000000000031506                                        0 0    00    BD        
0010001300400B   100088483770504                                                                                                                                                                                                                
0010001300401A0000000010697280000000324183 ROSANA DA SILVA PASSOS                            05092023BRL0000000000000000000000001432230000000000479014658105092023000000000143223                                        0 0    00    BD        
0010001300402B   100016811193824                                                                                                                                                                                                                
0010001300403A0000000010697280000000324191 ROSANA DOS SANTOS SILVA                           05092023BRL0000000000000000000000001105000000000000479014658205092023000000000110500                                        0 0    00    BD        
0010001300404B   100022453783858                                                                                                                                                                                                                
0010001300405A0000000010697280000000324221 RYAN RODRIGUES ALVES                              05092023BRL0000000000000000000000001235800000000000479014658305092023000000000123580                                        0 0    00    BD        
0010001300406B   100049745357812                                                                                                                                                                                                                
0010001300407A000000001069728000000032423X SABRINA DOS SANTOS COSTA                          05092023BRL0000000000000000000000000215410000000000479014658405092023000000000021541                                        0 0    00    BD        
0010001300408B   100040986749800                                                                                                                                                                                                                
0010001300409A0000000010697280000000324248 SAMUEL MOTA DA TRINDADE                           05092023BRL0000000000000000000000001395070000000000479014658505092023000000000139507                                        0 0    00    BD        
0010001300410B   100041950940896                                                                                                                                                                                                                
0010001300411A0000000010697280000000324256 SAULO VIEIRA DE PAULA                             05092023BRL0000000000000000000000001874490000000000479014658605092023000000000187449                                        0 0    00    BD        
0010001300412B   100021295125854                                                                                                                                                                                                                
