00100000         2462705180001460007532430126       0334800000001104950 SPAAL INDUSTRIA E COMERCIO LTDBANCO DO BRASIL S.A.                    20407202309451400097108200001201190761PREVIA                                          30          
00100011C3001042 2462705180001460007532430126       0334800000001104950 SPAAL INDUSTRIA E COMERCIO LTD                         082042013000001                              00000                                                               
0010001300001A000000001069728000000020580X DIJAELTON SOUZA SILVA                             05072023BRL0000000000000000000000001183890000000000475939296205072023000000000118389                                        0 0    00    BD        
0010001300002B   100044339295817                                                                                                                                                                                                                
0010001300003A0000000010697280000000321648 ADELINO FERREIRA DOS SANTOS                       05072023BRL0000000000000000000000001034140000000000475939296305072023000000000103414                                        0 0    00    BD        
0010001300004B   100016929425818                                                                                                                                                                                                                
0010001300005A0000000010697280000000321656 ADELMIR SERAFIM PEREIRA                           05072023BRL0000000000000000000000001242530000000000475939296405072023000000000124253                                        0 0    00    BD        
0010001300006B   100014811123840                                                                                                                                                                                                                
0010001300007A0000000010697280000000321664 ADEMILSON SANTOS PEREIRA                          05072023BRL0000000000000000000000001675090000000000475939296505072023000000000167509                                        0 0    00    BD        
0010001300008B   100016310522841                                                                                                                                                                                                                
0010001300009A0000000010697280000000321680 ADOALDO TEIXEIRA SOUZA                            05072023BRL0000000000000000000000000280250000000000475939296605072023000000000028025                                        0 0    00    BD        
0010001300010B   100060375620591                                                                                                                                                                                                                
0010001300011A0000000010697280000000321699 ADRIANA APRIGIO ANDRADE                           05072023BRL0000000000000000000000001689460000000000475939296705072023000000000168946                                        0 0    00    BD        
0010001300012B   100022574479807                                                                                                                                                                                                                
0010001300013A0000000010697280000000321702 ADRIANA DE OLIVEIRA SANTOS                        05072023BRL0000000000000000000000014256370000000000475939296805072023000000001425637                                        0 0    00    BD        
0010001300014B   100016120147802                                                                                                                                                                                                                
0010001300015A0000000010697280000000321710 ADRIANO PENEDO DA SILVA                           05072023BRL0000000000000000000000002170860000000000475939296905072023000000000217086                                        0 0    00    BD        
0010001300016B   100030620905883                                                                                                                                                                                                                
0010001300017A0000000010697280000000321729 AFONSO JOSE BEZERRA E SILVA                       05072023BRL0000000000000000000000002393490000000000475939297005072023000000000239349                                        0 0    00    BD        
0010001300018B   100004446021869                                                                                                                                                                                                                
0010001300019A0000000010697280000000321745 ALAIR JORGE DE ANDRADE                            05072023BRL0000000000000000000000000764990000000000475939297105072023000000000076499                                        0 0    00    BD        
0010001300020B   100014617143890                                                                                                                                                                                                                
0010001300021A0000000010697280000000321753 ALBERDAN BERTOLINO PEREIRA                        05072023BRL0000000000000000000000000405750000000000475939297205072023000000000040575                                        0 0    00    BD        
0010001300022B   100045031142391                                                                                                                                                                                                                
0010001300023A0000000010697280000000321761 ALCIDES DAKUZAKU                                  05072023BRL0000000000000000000000005330880000000000475939297305072023000000000533088                                        0 0    00    BD        
0010001300024B   100007734039812                                                                                                                                                                                                                
0010001300025A0000000010697280000000321788 ALEX BERNARDO                                     05072023BRL0000000000000000000000006252470000000000475939297405072023000000000625247                                        0 0    00    BD        
0010001300026B   100025123093800                                                                                                                                                                                                                
0010001300027A0000000010697280000000321796 ALEXANDRE FERREIRA DANTAS                         05072023BRL0000000000000000000000001273420000000000475939297505072023000000000127342                                        0 0    00    BD        
0010001300028B   100022464547867                                                                                                                                                                                                                
0010001300029A000000001069728000000032180X ALEXANDRE GERALDO SOUZA                           05072023BRL0000000000000000000000001183890000000000475939297605072023000000000118389                                        0 0    00    BD        
0010001300030B   100017749874810                                                                                                                                                                                                                
0010001300031A0000000010697280000000321818 ALEXANDRE JOSE DE SOUSA                           05072023BRL0000000000000000000000000515440000000000475939297705072023000000000051544                                        0 0    00    BD        
0010001300032B   100031381269877                                                                                                                                                                                                                
0010001300033A0000000010697280000000321826 ALZIRA MARIA ALMEIDA DOS SANTO                    05072023BRL0000000000000000000000000453720000000000475939297805072023000000000045372                                        0 0    00    BD        
0010001300034B   100028507846807                                                                                                                                                                                                                
0010001300035A0000000010697280000000321842 ANA CLAUDIA DA CONCEICAO OLIVE                    05072023BRL0000000000000000000000001115820000000000475939297905072023000000000111582                                        0 0    00    BD        
0010001300036B   100006388365493                                                                                                                                                                                                                
0010001300037A0000000010697280000000321850 ANA PAULA DE OLIVEIRA                             05072023BRL0000000000000000000000001129890000000000475939298005072023000000000112989                                        0 0    00    BD        
0010001300038B   100029681002890                                                                                                                                                                                                                
0010001300039A0000000010697280000000321877 ANDERSON CLEMENTINO                               05072023BRL0000000000000000000000000740410000000000475939298105072023000000000074041                                        0 0    00    BD        
0010001300040B   100033412468860                                                                                                                                                                                                                
0010001300041A0000000010697280000000321885 ANDRE EVANGELISTA BISPO                           05072023BRL0000000000000000000000001295710000000000475939298205072023000000000129571                                        0 0    00    BD        
0010001300042B   100041147729875                                                                                                                                                                                                                
0010001300043A0000000010697280000000321893 ANDREA APARECIDA MARTINS FERRE                    05072023BRL0000000000000000000000001052120000000000475939298305072023000000000105212                                        0 0    00    BD        
0010001300044B   100025307140886                                                                                                                                                                                                                
0010001300045A0000000010697280000000321931 ANNALI BARBOZA DA SILVA PEREIR                    05072023BRL0000000000000000000000001242910000000000475939298405072023000000000124291                                        0 0    00    BD        
0010001300046B   100008975255409                                                                                                                                                                                                                
0010001300047A000000001069728000000032194X ANTONIO AMARO DA SILVA                            05072023BRL0000000000000000000000001761510000000000475939298505072023000000000176151                                        0 0    00    BD        
0010001300048B   100064163210415                                                                                                                                                                                                                
0010001300049A0000000010697280000000321958 ANTONIO DE SOUZA RODRIGUES                        05072023BRL0000000000000000000000001110460000000000475939298605072023000000000111046                                        0 0    00    BD        
0010001300050B   100024666201890                                                                                                                                                                                                                
0010001300051A0000000010697280000000321966 ANTONIO HERBAS SARMIENTO                          05072023BRL0000000000000000000000002039530000000000475939298705072023000000000203953                                        0 0    00    BD        
0010001300052B   100023486474863                                                                                                                                                                                                                
0010001300053A0000000010697280000000321974 ANTONIO IREMAR GOMES DA SILVA                     05072023BRL0000000000000000000000001266860000000000475939298805072023000000000126686                                        0 0    00    BD        
0010001300054B   100033438398842                                                                                                                                                                                                                
0010001300055A0000000010697280000000321982 ANTONIO RESENDE MARTINS                           05072023BRL0000000000000000000000001880160000000000475939298905072023000000000188016                                        0 0    00    BD        
0010001300056B   100011375952803                                                                                                                                                                                                                
0010001300057A0000000010697280000000321990 ARLETE BORGES DA SILVA                            05072023BRL0000000000000000000000001114330000000000475939299005072023000000000111433                                        0 0    00    BD        
0010001300058B   100000968885551                                                                                                                                                                                                                
0010001300059A0000000010697280000000322016 BRUNA SUELEN SOUZA CALDAS                         05072023BRL0000000000000000000000000905970000000000475939299105072023000000000090597                                        0 0    00    BD        
0010001300060B   100037822394827                                                                                                                                                                                                                
0010001300061A0000000010697280000000322024 BRUNO SALVADOR MOITINHO                           05072023BRL0000000000000000000000001512040000000000475939299205072023000000000151204                                        0 0    00    BD        
0010001300062B   100036124684802                                                                                                                                                                                                                
0010001300063A0000000010697280000000322032 CARLOS ALBERTO DE LIMA                            05072023BRL0000000000000000000000000786080000000000475939299305072023000000000078608                                        0 0    00    BD        
0010001300064B   100032598303830                                                                                                                                                                                                                
0010001300065A0000000010697280000000322040 CARLOS EDUARDO DE JESUS                           05072023BRL0000000000000000000000000881710000000000475939299405072023000000000088171                                        0 0    00    BD        
0010001300066B   100032027163875                                                                                                                                                                                                                
0010001300067A0000000010697280000000322059 CAROLINA DE SOUZA EMILIO                          05072023BRL0000000000000000000000000754040000000000475939299505072023000000000075404                                        0 0    00    BD        
0010001300068B   100033650339803                                                                                                                                                                                                                
0010001300069A0000000010697280000000322067 CAROLINA SANTANA SILVA                            05072023BRL0000000000000000000000000643810000000000475939299605072023000000000064381                                        0 0    00    BD        
0010001300070B   100031958342866                                                                                                                                                                                                                
0010001300071A0000000010697280000000322075 CAROLINE FARIAS MELO                              05072023BRL0000000000000000000000000727990000000000475939299705072023000000000072799                                        0 0    00    BD        
0010001300072B   100040388829850                                                                                                                                                                                                                
0010001300073A0000000010697280000000322091 CELIO RIBEIRO DO NASCIMENTO                       05072023BRL0000000000000000000000000889660000000000475939299805072023000000000088966                                        0 0    00    BD        
0010001300074B   100029293814854                                                                                                                                                                                                                
0010001300075A0000000010697280000000322105 CELIO TEIXEIRA SANTIAGO                           05072023BRL0000000000000000000000001054830000000000475939299905072023000000000105483                                        0 0    00    BD        
0010001300076B   100028881142830                                                                                                                                                                                                                
0010001300077A0000000010697280000000322113 CELMA NEVES SANTANA                               05072023BRL0000000000000000000000000544440000000000475939300005072023000000000054444                                        0 0    00    BD        
0010001300078B   100038087186842                                                                                                                                                                                                                
0010001300079A0000000010697280000000322121 CICERO HOLANDA DE SOUSA                           05072023BRL0000000000000000000000001144270000000000475939300105072023000000000114427                                        0 0    00    BD        
0010001300080B   100012409730809                                                                                                                                                                                                                
0010001300081A0000000010697280000000322164 CLAUDIA DA SILVA OLIVEIRA                         05072023BRL0000000000000000000000002056090000000000475939300205072023000000000205609                                        0 0    00    BD        
0010001300082B   100016869586845                                                                                                                                                                                                                
0010001300083A0000000010697280000000322172 CLAUDIA DE MOURA SAMPAIO                          05072023BRL0000000000000000000000001157440000000000475939300305072023000000000115744                                        0 0    00    BD        
0010001300084B   100026942672890                                                                                                                                                                                                                
0010001300085A0000000010697280000000322180 CLAUDIA DE OLIVEIRA DUARTE                        05072023BRL0000000000000000000000001155330000000000475939300405072023000000000115533                                        0 0    00    BD        
0010001300086B   100032672475865                                                                                                                                                                                                                
0010001300087A0000000010697280000000322199 CLAUDIA MARIA PEREIRA DA SILVA                    05072023BRL0000000000000000000000000302580000000000475939300505072023000000000030258                                        0 0    00    BD        
0010001300088B   100008391600890                                                                                                                                                                                                                
0010001300089A0000000010697280000000322202 CLAUDILENE SOARES DA SILVA                        05072023BRL0000000000000000000000000348110000000000475939300605072023000000000034811                                        0 0    00    BD        
0010001300090B   100031360379878                                                                                                                                                                                                                
0010001300091A0000000010697280000000322210 CLAUDIONOR SANT ANNA CHAVES                       05072023BRL0000000000000000000000001057850000000000475939300705072023000000000105785                                        0 0    00    BD        
0010001300092B   100016086700826                                                                                                                                                                                                                
0010001300093A0000000010697280000000322237 CLAYTON ANDRADE DOS SANTOS                        05072023BRL0000000000000000000000001183890000000000475939300805072023000000000118389                                        0 0    00    BD        
0010001300094B   100037566455842                                                                                                                                                                                                                
0010001300095A0000000010697280000000322245 CLAYTON FERREIRA DA SILVA                         05072023BRL0000000000000000000000001160410000000000475939300905072023000000000116041                                        0 0    00    BD        
0010001300096B   100027632400893                                                                                                                                                                                                                
0010001300097A0000000010697280000000322253 CLEBER PINTO ALBINO                               05072023BRL0000000000000000000000004641150000000000475939301005072023000000000464115                                        0 0    00    BD        
0010001300098B   100021276364814                                                                                                                                                                                                                
0010001300099A0000000010697280000000322261 CLEITO MARTINS DE OLIVEIRA                        05072023BRL0000000000000000000000001311980000000000475939301105072023000000000131198                                        0 0    00    BD        
0010001300100B   100020590058843                                                                                                                                                                                                                
0010001300101A000000001069728000000032227X CLEONILDA DA SILVA TEREZA                         05072023BRL0000000000000000000000001061010000000000475939301205072023000000000106101                                        0 0    00    BD        
0010001300102B   100030825909856                                                                                                                                                                                                                
0010001300103A0000000010697280000000322288 CORACI DE SOUZA FERREIRA                          05072023BRL0000000000000000000000002327720000000000475939301305072023000000000232772                                        0 0    00    BD        
0010001300104B   100000798760648                                                                                                                                                                                                                
0010001300105A0000000010697280000000322296 CREUSA PENA DE OLIVEIRA DA SIL                    05072023BRL0000000000000000000000001180030000000000475939301405072023000000000118003                                        0 0    00    BD        
0010001300106B   100008983485876                                                                                                                                                                                                                
0010001300107A000000001069728000000032230X CRISTIANE APARECIDA BARBOSA DA                    05072023BRL0000000000000000000000000998480000000000475939301505072023000000000099848                                        0 0    00    BD        
0010001300108B   100015565110866                                                                                                                                                                                                                
0010001300109A0000000010697280000000322318 CRISTIANE APARECIDA DE ANDRADE                    05072023BRL0000000000000000000000012964740000000000475939301605072023000000001296474                                        0 0    00    BD        
0010001300110B   100017708032890                                                                                                                                                                                                                
0010001300111A0000000010697280000000322326 DALVANILZA LOURENCO SILVA                         05072023BRL0000000000000000000000000619450000000000475939301705072023000000000061945                                        0 0    00    BD        
0010001300112B   100031200520866                                                                                                                                                                                                                
0010001300113A0000000010697280000000322334 DAMACIO PEREIRA ALVES                             05072023BRL0000000000000000000000001718410000000000475939301805072023000000000171841                                        0 0    00    BD        
0010001300114B   100039758494368                                                                                                                                                                                                                
0010001300115A0000000010697280000000322342 DANIEL PEREIRA RUAS                               05072023BRL0000000000000000000000001381740000000000475939301905072023000000000138174                                        0 0    00    BD        
0010001300116B   100039772339803                                                                                                                                                                                                                
0010001300117A0000000010697280000000322369 DIEGO RENAN MACHADO                               05072023BRL0000000000000000000000000465930000000000475939302005072023000000000046593                                        0 0    00    BD        
0010001300118B   100036913896867                                                                                                                                                                                                                
0010001300119A0000000010697280000000322377 DIOGO DA SILVA FERREIRA                           05072023BRL0000000000000000000000002169300000000000475939302105072023000000000216930                                        0 0    00    BD        
0010001300120B   100038240435807                                                                                                                                                                                                                
0010001300121A0000000010697280000000322385 DIOGO RODRIGUES DE LIMA                           05072023BRL0000000000000000000000001183890000000000475939302205072023000000000118389                                        0 0    00    BD        
0010001300122B   100041099422841                                                                                                                                                                                                                
0010001300123A0000000010697280000000322393 DOUGLAS ANTONIO DE SENE JUNIOR                    05072023BRL0000000000000000000000000304490000000000475939302305072023000000000030449                                        0 0    00    BD        
0010001300124B   100048656508814                                                                                                                                                                                                                
0010001300125A0000000010697280000000322407 DOUGLAS CERQUEIRA SOUZA                           05072023BRL0000000000000000000000001754150000000000475939302405072023000000000175415                                        0 0    00    BD        
0010001300126B   100041251394825                                                                                                                                                                                                                
0010001300127A0000000010697280000000322415 DOUGLAS DA CRUZ SANTANA                           05072023BRL0000000000000000000000000626260000000000475939302505072023000000000062626                                        0 0    00    BD        
0010001300128B   100035498172826                                                                                                                                                                                                                
0010001300129A0000000010697280000000322423 ED CARLOS CAPELATI                                05072023BRL0000000000000000000000002304840000000000475939302605072023000000000230484                                        0 0    00    BD        
0010001300130B   100018559765875                                                                                                                                                                                                                
0010001300131A0000000010697280000000322431 EDEMILSON MACEDO RIBEIRO                          05072023BRL0000000000000000000000001224070000000000475939302705072023000000000122407                                        0 0    00    BD        
0010001300132B   100020519988841                                                                                                                                                                                                                
0010001300133A000000001069728000000032244X EDI CARLOS DA SILVA                               05072023BRL0000000000000000000000001183890000000000475939302805072023000000000118389                                        0 0    00    BD        
0010001300134B   100028559737839                                                                                                                                                                                                                
0010001300135A0000000010697280000000322458 EDI MOREIRA DA CONCEICAO                          05072023BRL0000000000000000000000000600500000000000475939302905072023000000000060050                                        0 0    00    BD        
0010001300136B   100028477956855                                                                                                                                                                                                                
0010001300137A0000000010697280000000322474 EDLAINE CARVALHO DE SOUZA                         05072023BRL0000000000000000000000000246570000000000475939303005072023000000000024657                                        0 0    00    BD        
0010001300138B   100025458013808                                                                                                                                                                                                                
0010001300139A0000000010697280000000322482 EDSON LAURIANO DIAS                               05072023BRL0000000000000000000000000102150000000000475939303105072023000000000010215                                        0 0    00    BD        
0010001300140B   100030227595840                                                                                                                                                                                                                
0010001300141A0000000010697280000000322490 EDUARDO DA SILVA GOMES                            05072023BRL0000000000000000000000004480840000000000475939303205072023000000000448084                                        0 0    00    BD        
0010001300142B   100034371220886                                                                                                                                                                                                                
0010001300143A0000000010697280000000322504 EGIDIO HENRIQUE DE OLIVEIRA                       05072023BRL0000000000000000000000001502880000000000475939303305072023000000000150288                                        0 0    00    BD        
0010001300144B   100028061789833                                                                                                                                                                                                                
0010001300145A0000000010697280000000322512 ELAINE SANTIAGO DOS SANTOS SIL                    05072023BRL0000000000000000000000001183890000000000475939303405072023000000000118389                                        0 0    00    BD        
0010001300146B   100035039148895                                                                                                                                                                                                                
0010001300147A0000000010697280000000322520 ELIANE ALVES DE OLIVEIRA                          05072023BRL0000000000000000000000001463020000000000475939303505072023000000000146302                                        0 0    00    BD        
0010001300148B   100030964968894                                                                                                                                                                                                                
0010001300149A0000000010697280000000322539 ELIANE APARECIDA FERNANDES                        05072023BRL0000000000000000000000000981860000000000475939303605072023000000000098186                                        0 0    00    BD        
0010001300150B   100022176418832                                                                                                                                                                                                                
0010001300151A0000000010697280000000322555 ELISANGELA DA SILVA DIAS                          05072023BRL0000000000000000000000002243120000000000475939303705072023000000000224312                                        0 0    00    BD        
0010001300152B   100074358626300                                                                                                                                                                                                                
0010001300153A0000000010697280000000322563 ELISANGELA DA SILVA SANTOS                        05072023BRL0000000000000000000000001150630000000000475939303805072023000000000115063                                        0 0    00    BD        
0010001300154B   100022534374842                                                                                                                                                                                                                
0010001300155A0000000010697280000000322571 ELISETE DE PAULA GOMES CARNEIR                    05072023BRL0000000000000000000000002263720000000000475939303905072023000000000226372                                        0 0    00    BD        
0010001300156B   100027778794861                                                                                                                                                                                                                
0010001300157A000000001069728000000032258X EMERSON DANTAS DE OLIVEIRA                        05072023BRL0000000000000000000000001518790000000000475939304005072023000000000151879                                        0 0    00    BD        
0010001300158B   100014302663847                                                                                                                                                                                                                
0010001300159A0000000010697280000000322598 ENEIZE DE ALMEIDA SOARES                          05072023BRL0000000000000000000000001448870000000000475939304105072023000000000144887                                        0 0    00    BD        
0010001300160B   100003388447403                                                                                                                                                                                                                
0010001300161A000000001069728000000032261X ERIVALDO LOPES DOS SANTOS                         05072023BRL0000000000000000000000001266070000000000475939304205072023000000000126607                                        0 0    00    BD        
0010001300162B   100075080630582                                                                                                                                                                                                                
0010001300163A0000000010697280000000322628 EVALDO FERREIRA DE SOUZA                          05072023BRL0000000000000000000000002049130000000000475939304305072023000000000204913                                        0 0    00    BD        
0010001300164B   100014811479866                                                                                                                                                                                                                
0010001300165A0000000010697280000000322644 EVERALDO BISPO SA                                 05072023BRL0000000000000000000000000020380000000000475939304405072023000000000002038                                        0 0    00    BD        
0010001300166B   100095659790500                                                                                                                                                                                                                
0010001300167A0000000010697280000000322652 EVERALDO DE OLIVEIRA ALVES                        05072023BRL0000000000000000000000001741530000000000475939304505072023000000000174153                                        0 0    00    BD        
0010001300168B   100014665774870                                                                                                                                                                                                                
0010001300169A0000000010697280000000322679 FABIO ALVES DA SILVA                              05072023BRL0000000000000000000000000671880000000000475939304605072023000000000067188                                        0 0    00    BD        
0010001300170B   100030230758835                                                                                                                                                                                                                
0010001300171A0000000010697280000000322687 FABIOLA EVELYN RAMOS DE CARVAL                    05072023BRL0000000000000000000000000262220000000000475939304705072023000000000026222                                        0 0    00    BD        
0010001300172B   100045330614864                                                                                                                                                                                                                
0010001300173A0000000010697280000000322695 FABRICIO BARBOZA SERAFIM                          05072023BRL0000000000000000000000001165250000000000475939304805072023000000000116525                                        0 0    00    BD        
0010001300174B   100022814985817                                                                                                                                                                                                                
0010001300175A0000000010697280000000322717 FERNANDA MATIAS DE SOUZA                          05072023BRL0000000000000000000000001179730000000000475939304905072023000000000117973                                        0 0    00    BD        
0010001300176B   100022796437825                                                                                                                                                                                                                
0010001300177A0000000010697280000000322741 FRANCISCO DAVI SANTOS RODRIGUE                    05072023BRL0000000000000000000000001117750000000000475939305005072023000000000111775                                        0 0    00    BD        
0010001300178B   100031401920888                                                                                                                                                                                                                
0010001300179A000000001069728000000032275X FRANCISCO EDUARDO RAMOS DE PAU                    05072023BRL0000000000000000000000001698830000000000475939305105072023000000000169883                                        0 0    00    BD        
0010001300180B   100034921216835                                                                                                                                                                                                                
0010001300181A0000000010697280000000322768 FRANCISCO JONAS DA SILVA                          05072023BRL0000000000000000000000000617510000000000475939305205072023000000000061751                                        0 0    00    BD        
0010001300182B   100000877648301                                                                                                                                                                                                                
0010001300183A0000000010697280000000322776 GABRIEL ROCHA MASSOLI                             05072023BRL0000000000000000000000001137970000000000475939305305072023000000000113797                                        0 0    00    BD        
0010001300184B   100047054005856                                                                                                                                                                                                                
0010001300185A0000000010697280000000322784 GENIVALDO GOMES DE OLIVEIRA                       05072023BRL0000000000000000000000001143190000000000475939305405072023000000000114319                                        0 0    00    BD        
0010001300186B   100025648398867                                                                                                                                                                                                                
0010001300187A0000000010697280000000322792 GEOGERIS CARLIM MONTEIRO                          05072023BRL0000000000000000000000001183890000000000475939305505072023000000000118389                                        0 0    00    BD        
0010001300188B   100021891368818                                                                                                                                                                                                                
0010001300189A0000000010697280000000322806 GILSON JOSE MARTINS                               05072023BRL0000000000000000000000002158200000000000475939305605072023000000000215820                                        0 0    00    BD        
0010001300190B   100035158037850                                                                                                                                                                                                                
0010001300191A0000000010697280000000322814 GILVAN RAMOS DA CRUZ                              05072023BRL0000000000000000000000001141890000000000475939305705072023000000000114189                                        0 0    00    BD        
0010001300192B   100028612900808                                                                                                                                                                                                                
0010001300193A0000000010697280000000322822 GIOVANE DA SILVA QUILOTI                          05072023BRL0000000000000000000000000440570000000000475939305805072023000000000044057                                        0 0    00    BD        
0010001300194B   100043924841810                                                                                                                                                                                                                
0010001300195A0000000010697280000000322849 GISLENE RODRIGUES                                 05072023BRL0000000000000000000000000942000000000000475939305905072023000000000094200                                        0 0    00    BD        
0010001300196B   100025071381818                                                                                                                                                                                                                
0010001300197A0000000010697280000000322857 GRACIETE LUISA DA SILVA                           05072023BRL0000000000000000000000001122450000000000475939306005072023000000000112245                                        0 0    00    BD        
0010001300198B   100035207668846                                                                                                                                                                                                                
0010001300199A0000000010697280000000322873 GUSTAVO BARBOSA DA SILVA                          05072023BRL0000000000000000000000000425510000000000475939306105072023000000000042551                                        0 0    00    BD        
0010001300200B   100041484171870                                                                                                                                                                                                                
0010001300201A0000000010697280000000322881 GUSTAVO NOGUEIRA SANTOS                           05072023BRL0000000000000000000000002594760000000000475939306205072023000000000259476                                        0 0    00    BD        
0010001300202B   100040423325876                                                                                                                                                                                                                
0010001300203A000000001069728000000032289X GUSTAVO RAMOS FARIAS                              05072023BRL0000000000000000000000001061010000000000475939306305072023000000000106101                                        0 0    00    BD        
0010001300204B   100051068751886                                                                                                                                                                                                                
0010001300205A0000000010697280000000322903 HAMILTON PASSOS DANTAS                            05072023BRL0000000000000000000000001295710000000000475939306405072023000000000129571                                        0 0    00    BD        
0010001300206B   100028583120870                                                                                                                                                                                                                
0010001300207A0000000010697280000000322938 HUDSON DIAS DOS SANTOS                            05072023BRL0000000000000000000000000628060000000000475939306505072023000000000062806                                        0 0    00    BD        
0010001300208B   100034483253840                                                                                                                                                                                                                
0010001300209A0000000010697280000000322946 ILZA APARECIDA DIAS                               05072023BRL0000000000000000000000000346330000000000475939306605072023000000000034633                                        0 0    00    BD        
0010001300210B   100012578132852                                                                                                                                                                                                                
0010001300211A0000000010697280000000322954 IVONETE APARECIDA DOS SANTOS                      05072023BRL0000000000000000000000000057620000000000475939306705072023000000000005762                                        0 0    00    BD        
0010001300212B   100009641571877                                                                                                                                                                                                                
0010001300213A0000000010697280000000322962 JANAINA AURELIANO DA SILVA                        05072023BRL0000000000000000000000000128890000000000475939306805072023000000000012889                                        0 0    00    BD        
0010001300214B   100005940673597                                                                                                                                                                                                                
0010001300215A0000000010697280000000322970 JANIO PIRES ARAUJO                                05072023BRL0000000000000000000000000258700000000000475939306905072023000000000025870                                        0 0    00    BD        
0010001300216B   100027867054871                                                                                                                                                                                                                
0010001300217A0000000010697280000000322997 JHENIFER DE OLIVEIRA                              05072023BRL0000000000000000000000000546940000000000475939307005072023000000000054694                                        0 0    00    BD        
0010001300218B   100049555172854                                                                                                                                                                                                                
0010001300219A0000000010697280000000323004 JHONATAN SILVA                                    05072023BRL0000000000000000000000000864050000000000475939307105072023000000000086405                                        0 0    00    BD        
0010001300220B   100036310830848                                                                                                                                                                                                                
0010001300221A0000000010697280000000323020 JOAO DE OLIVEIRA                                  05072023BRL0000000000000000000000001141890000000000475939307205072023000000000114189                                        0 0    00    BD        
0010001300222B   100008829412830                                                                                                                                                                                                                
0010001300223A0000000010697280000000323039 JOAO MARCOS ROMAO DA SILVA                        05072023BRL0000000000000000000000000512460000000000475939307305072023000000000051246                                        0 0    00    BD        
0010001300224B   100010984589406                                                                                                                                                                                                                
0010001300225A0000000010697280000000323047 JOAQUIM FERNANDES FILHO                           05072023BRL0000000000000000000000001266910000000000475939307405072023000000000126691                                        0 0    00    BD        
0010001300226B   100005454957844                                                                                                                                                                                                                
0010001300227A0000000010697280000000323055 JOCELIO FERREIRA DA SILVA                         05072023BRL0000000000000000000000000915790000000000475939307505072023000000000091579                                        0 0    00    BD        
0010001300228B   100033822872857                                                                                                                                                                                                                
0010001300229A0000000010697280000000323063 JOCIENE DOS SANTOS SOARES RIBE                    05072023BRL0000000000000000000000001061010000000000475939307605072023000000000106101                                        0 0    00    BD        
0010001300230B   100005274797563                                                                                                                                                                                                                
0010001300231A0000000010697280000000323071 JOEL GONCALVES DOS SANTOS                         05072023BRL0000000000000000000000000885030000000000475939307705072023000000000088503                                        0 0    00    BD        
0010001300232B   100015633607805                                                                                                                                                                                                                
0010001300233A000000001069728000000032308X JOELMA BORGES DEBUS                               05072023BRL0000000000000000000000014147330000000000475939307805072023000000001414733                                        0 0    00    BD        
0010001300234B   100025562131838                                                                                                                                                                                                                
0010001300235A0000000010697280000000323098 JOHANY NASCIMENTO DA SILVA                        05072023BRL0000000000000000000000000495010000000000475939307905072023000000000049501                                        0 0    00    BD        
0010001300236B   100035402325839                                                                                                                                                                                                                
0010001300237A0000000010697280000000323128 JOSE CICERO DO NASCIMENTO                         05072023BRL0000000000000000000000001474960000000000475939308005072023000000000147496                                        0 0    00    BD        
0010001300238B   100057061637404                                                                                                                                                                                                                
0010001300239A0000000010697280000000323136 JOSE DO NASCIMENTO                                05072023BRL0000000000000000000000000721670000000000475939308105072023000000000072167                                        0 0    00    BD        
0010001300240B   100007942398897                                                                                                                                                                                                                
0010001300241A0000000010697280000000323144 JOSE EDVALDO DOS SANTOS ROCHA                     05072023BRL0000000000000000000000001183890000000000475939308205072023000000000118389                                        0 0    00    BD        
0010001300242B   100095654186434                                                                                                                                                                                                                
0010001300243A0000000010697280000000323152 JOSE GENIVAL DE SOUZA                             05072023BRL0000000000000000000000001657520000000000475939308305072023000000000165752                                        0 0    00    BD        
0010001300244B   100070798001453                                                                                                                                                                                                                
0010001300245A0000000010697280000000323160 JOSE GOMES FILHO                                  05072023BRL0000000000000000000000002159850000000000475939308405072023000000000215985                                        0 0    00    BD        
0010001300246B   100044642911472                                                                                                                                                                                                                
0010001300247A0000000010697280000000323179 JOSE LEANDRO SOARES DE OLIVEIR                    05072023BRL0000000000000000000000001295710000000000475939308505072023000000000129571                                        0 0    00    BD        
0010001300248B   100042643419812                                                                                                                                                                                                                
0010001300249A0000000010697280000000323187 JOSE MARQUES DA SILVA                             05072023BRL0000000000000000000000001519900000000000475939308605072023000000000151990                                        0 0    00    BD        
0010001300250B   100007704387847                                                                                                                                                                                                                
0010001300251A0000000010697280000000323195 JOSE WILSON JONAS DO NASCIMENT                    05072023BRL0000000000000000000000001141890000000000475939308705072023000000000114189                                        0 0    00    BD        
0010001300252B   100047455837534                                                                                                                                                                                                                
0010001300253A0000000010697280000000323209 JOSEMAR FERREIRA DOS SANTOS                       05072023BRL0000000000000000000000001070000000000000475939308805072023000000000107000                                        0 0    00    BD        
0010001300254B   100021371422877                                                                                                                                                                                                                
0010001300255A0000000010697280000000323217 JOSENALDO SOUZA TEIXEIRA                          05072023BRL0000000000000000000000002273010000000000475939308905072023000000000227301                                        0 0    00    BD        
0010001300256B   100010350958823                                                                                                                                                                                                                
0010001300257A0000000010697280000000323225 JOSILMA SILVA MARTINS                             05072023BRL0000000000000000000000000899660000000000475939309005072023000000000089966                                        0 0    00    BD        
0010001300258B   100000119273306                                                                                                                                                                                                                
0010001300259A0000000010697280000000323233 JOSIMAR DOS SANTOS CAMPOS                         05072023BRL0000000000000000000000001174070000000000475939309105072023000000000117407                                        0 0    00    BD        
0010001300260B   100003224544503                                                                                                                                                                                                                
0010001300261A0000000010697280000000323241 JUAN PABLO NEVES SANTOS                           05072023BRL0000000000000000000000001562970000000000475939309205072023000000000156297                                        0 0    00    BD        
0010001300262B   100052257841867                                                                                                                                                                                                                
0010001300263A000000001069728000000032325X JUCELIO SANTIAGO VIANA                            05072023BRL0000000000000000000000000535430000000000475939309305072023000000000053543                                        0 0    00    BD        
0010001300264B   100042673347810                                                                                                                                                                                                                
0010001300265A0000000010697280000000323268 JURANDIR PEREIRA GOMES                            05072023BRL0000000000000000000000000525330000000000475939309405072023000000000052533                                        0 0    00    BD        
0010001300266B   100029207974843                                                                                                                                                                                                                
0010001300267A0000000010697280000000323276 KAREN GOMES DA SILVA                              05072023BRL0000000000000000000000001354670000000000475939309505072023000000000135467                                        0 0    00    BD        
0010001300268B   100043489670833                                                                                                                                                                                                                
0010001300269A0000000010697280000000323284 KARINE FARIAS NEVES                               05072023BRL0000000000000000000000003300670000000000475939309605072023000000000330067                                        0 0    00    BD        
0010001300270B   100043062315857                                                                                                                                                                                                                
0010001300271A0000000010697280000000323292 KATIA REGINA MOREIRA DE SOUZA                     05072023BRL0000000000000000000000001077320000000000475939309705072023000000000107732                                        0 0    00    BD        
0010001300272B   100018559755802                                                                                                                                                                                                                
0010001300273A0000000010697280000000323306 LAERTE MEIRELES GUERRA                            05072023BRL0000000000000000000000000833490000000000475939309805072023000000000083349                                        0 0    00    BD        
0010001300274B   100014512253858                                                                                                                                                                                                                
0010001300275A0000000010697280000000323314 LAURA KATHELLEN BONFIM MONTEIR                    05072023BRL0000000000000000000000000656020000000000475939309905072023000000000065602                                        0 0    00    BD        
0010001300276B   100051012329801                                                                                                                                                                                                                
0010001300277A0000000010697280000000323322 LEANDRO CRUZ DE JESUS                             05072023BRL0000000000000000000000001714970000000000475939310005072023000000000171497                                        0 0    00    BD        
0010001300278B   100036669550880                                                                                                                                                                                                                
0010001300279A0000000010697280000000323349 LEONARDO DA SILVA SILVEIRA                        05072023BRL0000000000000000000000000296650000000000475939310105072023000000000029665                                        0 0    00    BD        
0010001300280B   100032713099811                                                                                                                                                                                                                
0010001300281A0000000010697280000000323357 LEONARDO DE JESUS DINIZ                           05072023BRL0000000000000000000000000106640000000000475939310205072023000000000010664                                        0 0    00    BD        
0010001300282B   100034137837856                                                                                                                                                                                                                
0010001300283A0000000010697280000000323365 LETICIA CRISTINA DA SILVA MACI                    05072023BRL0000000000000000000000000616950000000000475939310305072023000000000061695                                        0 0    00    BD        
0010001300284B   100045041084882                                                                                                                                                                                                                
0010001300285A0000000010697280000000323373 LETICIA SILVA BARBOSA                             05072023BRL0000000000000000000000001171710000000000475939310405072023000000000117171                                        0 0    00    BD        
0010001300286B   100049837493810                                                                                                                                                                                                                
0010001300287A0000000010697280000000323381 LUCAS BATISTA GARGORIANO                          05072023BRL0000000000000000000000000446740000000000475939310505072023000000000044674                                        0 0    00    BD        
0010001300288B   100038678781882                                                                                                                                                                                                                
0010001300289A000000001069728000000032339X LUCAS SANTOS ROCHA DE SOUSA                       05072023BRL0000000000000000000000002256740000000000475939310605072023000000000225674                                        0 0    00    BD        
0010001300290B   100031899787860                                                                                                                                                                                                                
0010001300291A0000000010697280000000323403 LUCIANA DE CASSIA RODRIGUES PE                    05072023BRL0000000000000000000000001761350000000000475939310705072023000000000176135                                        0 0    00    BD        
0010001300292B   100025399245817                                                                                                                                                                                                                
0010001300293A0000000010697280000000323411 LUCINEIDE SILVA MOREIRA                           05072023BRL0000000000000000000000000925770000000000475939310805072023000000000092577                                        0 0    00    BD        
0010001300294B   100054267617520                                                                                                                                                                                                                
0010001300295A000000001069728000000032342X LUIS FELIPE DE SOUZA                              05072023BRL0000000000000000000000000939330000000000475939310905072023000000000093933                                        0 0    00    BD        
0010001300296B   100033180949864                                                                                                                                                                                                                
0010001300297A0000000010697280000000323438 LUIS FERNANDO TELES SILVA                         05072023BRL0000000000000000000000001183890000000000475939311005072023000000000118389                                        0 0    00    BD        
0010001300298B   100022459524803                                                                                                                                                                                                                
0010001300299A0000000010697280000000323446 LUIS RODRIGUES DOS SANTOS                         05072023BRL0000000000000000000000000380210000000000475939311105072023000000000038021                                        0 0    00    BD        
0010001300300B   100025254036818                                                                                                                                                                                                                
0010001300301A0000000010697280000000323454 LUIZ GONZAGA SANTOS SILVEIRA                      05072023BRL0000000000000000000000000553290000000000475939311205072023000000000055329                                        0 0    00    BD        
0010001300302B   100059907878120                                                                                                                                                                                                                
0010001300303A0000000010697280000000323462 LUIZ SILVA BASTOS                                 05072023BRL0000000000000000000000001540200000000000475939311305072023000000000154020                                        0 0    00    BD        
0010001300304B   100063848236591                                                                                                                                                                                                                
0010001300305A0000000010697280000000323470 MAGNA BARBOSA ARRUDA DE SOUSA                     05072023BRL0000000000000000000000000313000000000000475939311405072023000000000031300                                        0 0    00    BD        
0010001300306B   100017745198879                                                                                                                                                                                                                
0010001300307A0000000010697280000000323489 MAGNO DA SILVA ROCHA                              05072023BRL0000000000000000000000001317430000000000475939311505072023000000000131743                                        0 0    00    BD        
0010001300308B   100035935984857                                                                                                                                                                                                                
0010001300309A0000000010697280000000323497 MANOEL SANTANA DE LIMA                            05072023BRL0000000000000000000000000887040000000000475939311605072023000000000088704                                        0 0    00    BD        
0010001300310B   100033924933847                                                                                                                                                                                                                
0010001300311A0000000010697280000000323500 MARCELO ALVES MENDES                              05072023BRL0000000000000000000000001670060000000000475939311705072023000000000167006                                        0 0    00    BD        
0010001300312B   100029450006873                                                                                                                                                                                                                
0010001300313A0000000010697280000000323519 MARCELO DOS SANTOS JUNIOR                         05072023BRL0000000000000000000000001622490000000000475939311805072023000000000162249                                        0 0    00    BD        
0010001300314B   100040244530840                                                                                                                                                                                                                
0010001300315A0000000010697280000000323535 MARCIO AMARAL DE PADUA                            05072023BRL0000000000000000000000002542380000000000475939311905072023000000000254238                                        0 0    00    BD        
0010001300316B   100014515488856                                                                                                                                                                                                                
0010001300317A0000000010697280000000323551 MARCIO VITOR BATISTA                              05072023BRL0000000000000000000000000734700000000000475939312005072023000000000073470                                        0 0    00    BD        
0010001300318B   100013324731801                                                                                                                                                                                                                
0010001300319A000000001069728000000032356X MARCOS ANTONIO ROSSATI                            05072023BRL0000000000000000000000003232680000000000475939312105072023000000000323268                                        0 0    00    BD        
0010001300320B   100013441240898                                                                                                                                                                                                                
0010001300321A0000000010697280000000323586 MARIA ADRIANA DA SILVA                            05072023BRL0000000000000000000000001422970000000000475939312205072023000000000142297                                        0 0    00    BD        
0010001300322B   100030450364810                                                                                                                                                                                                                
0010001300323A0000000010697280000000323594 MARIA ALDENORA CRUZ SANTANA                       05072023BRL0000000000000000000000001236030000000000475939312305072023000000000123603                                        0 0    00    BD        
0010001300324B   100025021662848                                                                                                                                                                                                                
0010001300325A0000000010697280000000323608 MARIA ANGELICA COELHO GONCALVE                    05072023BRL0000000000000000000000001003590000000000475939312405072023000000000100359                                        0 0    00    BD        
0010001300326B   100040450938859                                                                                                                                                                                                                
0010001300327A0000000010697280000000323616 MARIA APARECIDA DOS SANTOS                        05072023BRL0000000000000000000000001254500000000000475939312505072023000000000125450                                        0 0    00    BD        
0010001300328B   100009642096838                                                                                                                                                                                                                
0010001300329A0000000010697280000000323624 MARIA APARECIDA QUIRINO                           05072023BRL0000000000000000000000002018210000000000475939312605072023000000000201821                                        0 0    00    BD        
0010001300330B   100032895697809                                                                                                                                                                                                                
0010001300331A0000000010697280000000323632 MARIA APARECIDA SILVA DE OLIVE                    05072023BRL0000000000000000000000000846340000000000475939312705072023000000000084634                                        0 0    00    BD        
0010001300332B   100010046663819                                                                                                                                                                                                                
0010001300333A0000000010697280000000323659 MARIA CUSTODIO SILVA DOS REIS                     05072023BRL0000000000000000000000001258260000000000475939312805072023000000000125826                                        0 0    00    BD        
0010001300334B   100089419510387                                                                                                                                                                                                                
0010001300335A0000000010697280000000323667 MARIA DE FATIMA DA SILVA                          05072023BRL0000000000000000000000001198710000000000475939312905072023000000000119871                                        0 0    00    BD        
0010001300336B   100012516269803                                                                                                                                                                                                                
0010001300337A0000000010697280000000323675 MARIA DE FATIMA RODRIGUES DA S                    05072023BRL0000000000000000000000001019010000000000475939313005072023000000000101901                                        0 0    00    BD        
0010001300338B   100014939349888                                                                                                                                                                                                                
0010001300339A0000000010697280000000323691 MARIA GONCALVES SOARES DE ASSI                    05072023BRL0000000000000000000000000298190000000000475939313105072023000000000029819                                        0 0    00    BD        
0010001300340B   100013069589898                                                                                                                                                                                                                
0010001300341A0000000010697280000000323705 MARIA ISANETE SOARES DOS SANTO                    05072023BRL0000000000000000000000001183890000000000475939313205072023000000000118389                                        0 0    00    BD        
0010001300342B   100034449798864                                                                                                                                                                                                                
0010001300343A0000000010697280000000323713 MARIA JOSE DA SILVA                               05072023BRL0000000000000000000000001006020000000000475939313305072023000000000100602                                        0 0    00    BD        
0010001300344B   100089449622434                                                                                                                                                                                                                
0010001300345A0000000010697280000000323721 MARIA NEUSA SANTOS SENA                           05072023BRL0000000000000000000000001361230000000000475939313405072023000000000136123                                        0 0    00    BD        
0010001300346B   100014627964862                                                                                                                                                                                                                
0010001300347A000000001069728000000032373X MARIA QUITERIA LIMA                               05072023BRL0000000000000000000000001122450000000000475939313505072023000000000112245                                        0 0    00    BD        
0010001300348B   100070770824587                                                                                                                                                                                                                
0010001300349A0000000010697280000000323756 MARTA ALVES PEREIRA                               05072023BRL0000000000000000000000001350950000000000475939313605072023000000000135095                                        0 0    00    BD        
0010001300350B   100014515353845                                                                                                                                                                                                                
0010001300351A0000000010697280000000323764 MATEUS JOSE DA SILVA                              05072023BRL0000000000000000000000001071170000000000475939313705072023000000000107117                                        0 0    00    BD        
0010001300352B   100023847135821                                                                                                                                                                                                                
0010001300353A0000000010697280000000323780 MAURI ALVES FERREIRA                              05072023BRL0000000000000000000000000679720000000000475939313805072023000000000067972                                        0 0    00    BD        
0010001300354B   100028466609806                                                                                                                                                                                                                
0010001300355A0000000010697280000000323799 MAURILIO SOARES DE SOUZA                          05072023BRL0000000000000000000000002310880000000000475939313905072023000000000231088                                        0 0    00    BD        
0010001300356B   100034534565801                                                                                                                                                                                                                
0010001300357A0000000010697280000000323802 MAURO MORIYAMA                                    05072023BRL0000000000000000000000003979810000000000475939314005072023000000000397981                                        0 0    00    BD        
0010001300358B   100000162186800                                                                                                                                                                                                                
0010001300359A0000000010697280000000323829 MILENA ROSSI                                      05072023BRL0000000000000000000000000856970000000000475939314105072023000000000085697                                        0 0    00    BD        
0010001300360B   100029580663807                                                                                                                                                                                                                
0010001300361A0000000010697280000000323837 MOISES GONCALVES LIMA                             05072023BRL0000000000000000000000000462190000000000475939314205072023000000000046219                                        0 0    00    BD        
0010001300362B   100035565631858                                                                                                                                                                                                                
0010001300363A0000000010697280000000323861 NILSON DOS SANTOS ANDRE                           05072023BRL0000000000000000000000003700610000000000475939314305072023000000000370061                                        0 0    00    BD        
0010001300364B   100011278493875                                                                                                                                                                                                                
0010001300365A000000001069728000000032387X OSMAR NERVA                                       05072023BRL0000000000000000000000002178580000000000475939314405072023000000000217858                                        0 0    00    BD        
0010001300366B   100007776256870                                                                                                                                                                                                                
0010001300367A0000000010697280000000323888 OZIEL SEVERINO DA SILVA                           05072023BRL0000000000000000000000001183890000000000475939314505072023000000000118389                                        0 0    00    BD        
0010001300368B   100014086991845                                                                                                                                                                                                                
0010001300369A0000000010697280000000323896 PALOMA FERNANDES DA SILVA                         05072023BRL0000000000000000000000002188370000000000475939314605072023000000000218837                                        0 0    00    BD        
0010001300370B   100034359413831                                                                                                                                                                                                                
0010001300371A0000000010697280000000323918 PAULO HENRIQUE DA SILVA                           05072023BRL0000000000000000000000001315030000000000475939314705072023000000000131503                                        0 0    00    BD        
0010001300372B   100034881998862                                                                                                                                                                                                                
0010001300373A0000000010697280000000323934 PAULO LUIZ DA SILVA                               05072023BRL0000000000000000000000001072100000000000475939314805072023000000000107210                                        0 0    00    BD        
0010001300374B   100013461202851                                                                                                                                                                                                                
0010001300375A0000000010697280000000323950 RAFAEL BARRETO DE OLIVEIRA                        05072023BRL0000000000000000000000001512390000000000475939314905072023000000000151239                                        0 0    00    BD        
0010001300376B   100005363699508                                                                                                                                                                                                                
0010001300377A0000000010697280000000323969 RAFAEL DAMACENO                                   05072023BRL0000000000000000000000001183890000000000475939315005072023000000000118389                                        0 0    00    BD        
0010001300378B   100033401789848                                                                                                                                                                                                                
0010001300379A0000000010697280000000323977 RAFAEL FERREIRA DA SILVA                          05072023BRL0000000000000000000000001183890000000000475939315105072023000000000118389                                        0 0    00    BD        
0010001300380B   100037685737884                                                                                                                                                                                                                
0010001300381A0000000010697280000000323985 RAFAEL FRAMINAN PROETTI                           05072023BRL0000000000000000000000004551110000000000475939315205072023000000000455111                                        0 0    00    BD        
0010001300382B   100040208275835                                                                                                                                                                                                                
0010001300383A0000000010697280000000323993 RAFAEL SANTOS GABRIEL                             05072023BRL0000000000000000000000001473120000000000475939315305072023000000000147312                                        0 0    00    BD        
0010001300384B   100039165071840                                                                                                                                                                                                                
0010001300385A0000000010697280000000324000 RAIMUNDO DE AQUINO SANTOS                         05072023BRL0000000000000000000000000533830000000000475939315405072023000000000053383                                        0 0    00    BD        
0010001300386B   100003219471501                                                                                                                                                                                                                
0010001300387A0000000010697280000000324019 RAUL DINIZ COSTA DE SOUZA                         05072023BRL0000000000000000000000001183890000000000475939315505072023000000000118389                                        0 0    00    BD        
0010001300388B   100016941140828                                                                                                                                                                                                                
0010001300389A0000000010697280000000324035 RENATO CHAGAS LIMA                                05072023BRL0000000000000000000000003313510000000000475939315605072023000000000331351                                        0 0    00    BD        
0010001300390B   100012778102817                                                                                                                                                                                                                
0010001300391A0000000010697280000000324043 RENE CESARIO DE OLIVEIRA                          05072023BRL0000000000000000000000001205530000000000475939315705072023000000000120553                                        0 0    00    BD        
0010001300392B   100008743396852                                                                                                                                                                                                                
0010001300393A0000000010697280000000324051 RICARDO MARQUES DA SILVA MOURA                    05072023BRL0000000000000000000000000454710000000000475939315805072023000000000045471                                        0 0    00    BD        
0010001300394B   100030081605811                                                                                                                                                                                                                
0010001300395A0000000010697280000000324086 ROBERTA VIVIAN SILVA CHIACCHIE                    05072023BRL0000000000000000000000000758610000000000475939315905072023000000000075861                                        0 0    00    BD        
0010001300396B   100022250864861                                                                                                                                                                                                                
0010001300397A0000000010697280000000324108 ROBERTO DA SILVA SOBRAL                           05072023BRL0000000000000000000000000988840000000000475939316005072023000000000098884                                        0 0    00    BD        
0010001300398B   100034639137800                                                                                                                                                                                                                
0010001300399A0000000010697280000000324116 ROBERTO JOSE DE SANTANA                           05072023BRL0000000000000000000000001051220000000000475939316105072023000000000105122                                        0 0    00    BD        
0010001300400B   100028965273897                                                                                                                                                                                                                
0010001300401A0000000010697280000000324124 ROBSON SANTANA LUZ                                05072023BRL0000000000000000000000002294260000000000475939316205072023000000000229426                                        0 0    00    BD        
0010001300402B   100033842577826                                                                                                                                                                                                                
0010001300403A0000000010697280000000324132 RODRIGO ALVES DE SOUSA                            05072023BRL0000000000000000000000001593520000000000475939316305072023000000000159352                                        0 0    00    BD        
0010001300404B   100029052266840                                                                                                                                                                                                                
0010001300405A0000000010697280000000324140 RODRIGO MASCARENHAS REBOUCAS                      05072023BRL0000000000000000000000001337630000000000475939316405072023000000000133763                                        0 0    00    BD        
0010001300406B   100033101211867                                                                                                                                                                                                                
0010001300407A0000000010697280000000324167 RONALD DIAS PEREIRA                               05072023BRL0000000000000000000000000999290000000000475939316505072023000000000099929                                        0 0    00    BD        
0010001300408B   100045547369896                                                                                                                                                                                                                
0010001300409A0000000010697280000000324175 RONALDO SOUZA PEREIRA                             05072023BRL0000000000000000000000000727060000000000475939316605072023000000000072706                                        0 0    00    BD        
0010001300410B   100088483770504                                                                                                                                                                                                                
0010001300411A0000000010697280000000324183 ROSANA DA SILVA PASSOS                            05072023BRL0000000000000000000000001436260000000000475939316705072023000000000143626                                        0 0    00    BD        
0010001300412B   100016811193824                                                                                                                                                                                                                
