00100000         2462705180001460007532430126       0334800000001104950 SPAAL INDUSTRIA E COMERCIO LTDBANCO DO BRASIL S.A.                    22208202300461100104208200001201190761CONSOLIDADO                                     30          
00100011C3001042 2462705180001460007532430126       0334800000001104950 SPAAL INDUSTRIA E COMERCIO LTD                         082042013000001                              00000                                                               
0010001300001A0000000010697280000000321656 ADELMIR SERAFIM PEREIRA                           18082023BRL0000000000000000000000000983840000000000477982680218082023000000000098384                                        000000000    00        
0010001300002B   100014811123840                                                                                                                                                                                                                
0010001300003Z                                                                336123C27AB4782A                                                                                                                                        00        
0010001300004A0000000010697280000000321664 ADEMILSON SANTOS PEREIRA                          18082023BRL0000000000000000000000001328410000000000477982680318082023000000000132841                                        000000000    00        
0010001300005B   100016310522841                                                                                                                                                                                                                
0010001300006Z                                                                BD8078EE0DFFBEF7                                                                                                                                        00        
0010001300007A0000000010697280000000321680 ADOALDO TEIXEIRA SOUZA                            18082023BRL0000000000000000000000000983840000000000477982680418082023000000000098384                                        000000000    00        
0010001300008B   100060375620591                                                                                                                                                                                                                
0010001300009Z                                                                131E1D983DA4B1B2                                                                                                                                        00        
0010001300010A0000000010697280000000321699 ADRIANA APRIGIO ANDRADE                           18082023BRL0000000000000000000000001069970000000000477982680518082023000000000106997                                        000000000    00        
0010001300011B   100022574479807                                                                                                                                                                                                                
0010001300012Z                                                                EFDA61C1B9F91879                                                                                                                                        00        
0010001300013A0000000010697280000000321702 ADRIANA DE OLIVEIRA SANTOS                        18082023BRL0000000000000000000000002727120000000000477982680618082023000000000272712                                        000000000    00        
0010001300014B   100016120147802                                                                                                                                                                                                                
0010001300015Z                                                                7CC6D46FE4E18BAA                                                                                                                                        00        
0010001300016A0000000010697280000000321710 ADRIANO PENEDO DA SILVA                           18082023BRL0000000000000000000000001784520000000000477982680718082023000000000178452                                        000000000    00        
0010001300017B   100030620905883                                                                                                                                                                                                                
0010001300018Z                                                                5495151A381ECFA8                                                                                                                                        00        
0010001300019A0000000010697280000000321729 AFONSO JOSE BEZERRA E SILVA                       18082023BRL0000000000000000000000001738120000000000477982680818082023000000000173812                                        000000000    00        
0010001300020B   100004446021869                                                                                                                                                                                                                
0010001300021Z                                                                46746382FC3455E6                                                                                                                                        00        
0010001300022A0000000010697280000000321745 ALAIR JORGE DE ANDRADE                            18082023BRL0000000000000000000000001269840000000000477982680918082023000000000126984                                        000000000    00        
0010001300023B   100014617143890                                                                                                                                                                                                                
0010001300024Z                                                                6184034899F84C88                                                                                                                                        00        
0010001300025A0000000010697280000000321753 ALBERDAN BERTOLINO PEREIRA                        18082023BRL0000000000000000000000000983840000000000477982681018082023000000000098384                                        000000000    00        
0010001300026B   100045031142391                                                                                                                                                                                                                
0010001300027Z                                                                754A298F956F9593                                                                                                                                        00        
0010001300028A0000000010697280000000321761 ALCIDES DAKUZAKU                                  18082023BRL0000000000000000000000003478580000000000477982681118082023000000000347858                                        000000000    00        
0010001300029B   100007734039812                                                                                                                                                                                                                
0010001300030Z                                                                5733466BDF87CDF3                                                                                                                                        00        
0010001300031A0000000010697280000000321788 ALEX BERNARDO                                     18082023BRL0000000000000000000000004023450000000000477982681218082023000000000402345                                        000000000    00        
0010001300032B   100025123093800                                                                                                                                                                                                                
0010001300033Z                                                                78E937D61366677F                                                                                                                                        00        
0010001300034A0000000010697280000000321796 ALEXANDRE FERREIRA DANTAS                         18082023BRL0000000000000000000000001110350000000000477982681318082023000000000111035                                        000000000    00        
0010001300035B   100022464547867                                                                                                                                                                                                                
0010001300036Z                                                                1BB7D5492FC0213B                                                                                                                                        00        
0010001300037A000000001069728000000032180X ALEXANDRE GERALDO SOUZA                           18082023BRL0000000000000000000000000983840000000000477982681418082023000000000098384                                        000000000    00        
0010001300038B   100017749874810                                                                                                                                                                                                                
0010001300039Z                                                                36ECBC8F605A6767                                                                                                                                        00        
0010001300040A0000000010697280000000321818 ALEXANDRE JOSE DE SOUSA                           18082023BRL0000000000000000000000000983840000000000477982681518082023000000000098384                                        000000000    00        
0010001300041B   100031381269877                                                                                                                                                                                                                
0010001300042Z                                                                C8D66F648AD9500A                                                                                                                                        00        
0010001300043A0000000010697280000000321826 ALZIRA MARIA ALMEIDA DOS SANTO                    18082023BRL0000000000000000000000000983840000000000477982681618082023000000000098384                                        000000000    00        
0010001300044B   100028507846807                                                                                                                                                                                                                
0010001300045Z                                                                AFD8660A77045B74                                                                                                                                        00        
0010001300046A0000000010697280000000321842 ANA CLAUDIA DA CONCEICAO OLIVE                    18082023BRL0000000000000000000000000983840000000000477982681718082023000000000098384                                        000000000    00        
0010001300047B   100006388365493                                                                                                                                                                                                                
0010001300048Z                                                                00079F0C6FA97F3C                                                                                                                                        00        
0010001300049A0000000010697280000000321850 ANA PAULA DE OLIVEIRA                             18082023BRL0000000000000000000000000983840000000000477982681818082023000000000098384                                        000000000    00        
0010001300050B   100029681002890                                                                                                                                                                                                                
0010001300051Z                                                                D6E90843034C94FB                                                                                                                                        00        
0010001300052A0000000010697280000000321877 ANDERSON CLEMENTINO                               18082023BRL0000000000000000000000000983840000000000477982681918082023000000000098384                                        000000000    00        
0010001300053B   100033412468860                                                                                                                                                                                                                
0010001300054Z                                                                831A26E9728624F7                                                                                                                                        00        
0010001300055A0000000010697280000000321885 ANDRE EVANGELISTA BISPO                           18082023BRL0000000000000000000000001087680000000000477982682018082023000000000108768                                        000000000    00        
0010001300056B   100041147729875                                                                                                                                                                                                                
0010001300057Z                                                                55FA7DE89694B4EC                                                                                                                                        00        
0010001300058A0000000010697280000000321893 ANDREA APARECIDA MARTINS FERRE                    18082023BRL0000000000000000000000000983840000000000477982682118082023000000000098384                                        000000000    00        
0010001300059B   100025307140886                                                                                                                                                                                                                
0010001300060Z                                                                E5680C13DAAFB1FA                                                                                                                                        00        
0010001300061A0000000010697280000000321931 ANNALI BARBOZA DA SILVA PEREIR                    18082023BRL0000000000000000000000000983840000000000477982682218082023000000000098384                                        000000000    00        
0010001300062B   100008975255409                                                                                                                                                                                                                
0010001300063Z                                                                859F6159594220EF                                                                                                                                        00        
0010001300064A000000001069728000000032194X ANTONIO AMARO DA SILVA                            18082023BRL0000000000000000000000001205600000000000477982682318082023000000000120560                                        000000000    00        
0010001300065B   100064163210415                                                                                                                                                                                                                
0010001300066Z                                                                67884AADE9AABA0B                                                                                                                                        00        
0010001300067A0000000010697280000000321958 ANTONIO DE SOUZA RODRIGUES                        18082023BRL0000000000000000000000000983840000000000477982682418082023000000000098384                                        000000000    00        
0010001300068B   100024666201890                                                                                                                                                                                                                
0010001300069Z                                                                A806F262F36C3A48                                                                                                                                        00        
0010001300070A0000000010697280000000321966 ANTONIO HERBAS SARMIENTO                          18082023BRL0000000000000000000000001655580000000000477982682518082023000000000165558                                        000000000    00        
0010001300071B   100023486474863                                                                                                                                                                                                                
0010001300072Z                                                                E46595AFAAAAA97F                                                                                                                                        00        
0010001300073A0000000010697280000000321974 ANTONIO IREMAR GOMES DA SILVA                     18082023BRL0000000000000000000000000983840000000000477982682618082023000000000098384                                        000000000    00        
0010001300074B   100033438398842                                                                                                                                                                                                                
0010001300075Z                                                                241830A8332AACD6                                                                                                                                        00        
0010001300076A0000000010697280000000321990 ARLETE BORGES DA SILVA                            18082023BRL0000000000000000000000000983840000000000477982682718082023000000000098384                                        000000000    00        
0010001300077B   100000968885551                                                                                                                                                                                                                
0010001300078Z                                                                222E5EA302EBB281                                                                                                                                        00        
0010001300079A0000000010697280000000322016 BRUNA SUELEN SOUZA CALDAS                         18082023BRL0000000000000000000000000983840000000000477982682818082023000000000098384                                        000000000    00        
0010001300080B   100037822394827                                                                                                                                                                                                                
0010001300081Z                                                                3639755017AD200D                                                                                                                                        00        
0010001300082A0000000010697280000000322032 CARLOS ALBERTO DE LIMA                            18082023BRL0000000000000000000000001522650000000000477982682918082023000000000152265                                        000000000    00        
0010001300083B   100032598303830                                                                                                                                                                                                                
0010001300084Z                                                                F8AD354C87CCBB28                                                                                                                                        00        
0010001300085A0000000010697280000000322059 CAROLINA DE SOUZA EMILIO                          18082023BRL0000000000000000000000000983840000000000477982683018082023000000000098384                                        000000000    00        
0010001300086B   100033650339803                                                                                                                                                                                                                
0010001300087Z                                                                8D8E8E37CB8B809D                                                                                                                                        00        
0010001300088A0000000010697280000000322067 CAROLINA SANTANA SILVA                            18082023BRL0000000000000000000000000983840000000000477982683118082023000000000098384                                        000000000    00        
0010001300089B   100031958342866                                                                                                                                                                                                                
0010001300090Z                                                                5E067E8441F04DB0                                                                                                                                        00        
0010001300091A0000000010697280000000322075 CAROLINE FARIAS MELO                              18082023BRL0000000000000000000000001121760000000000477982683218082023000000000112176                                        000000000    00        
0010001300092B   100040388829850                                                                                                                                                                                                                
0010001300093Z                                                                04FDF78CCAFE847B                                                                                                                                        00        
0010001300094A0000000010697280000000322091 CELIO RIBEIRO DO NASCIMENTO                       18082023BRL0000000000000000000000000983840000000000477982683318082023000000000098384                                        000000000    00        
0010001300095B   100029293814854                                                                                                                                                                                                                
0010001300096Z                                                                AB9FC6AD3B53EC52                                                                                                                                        00        
0010001300097A0000000010697280000000322105 CELIO TEIXEIRA SANTIAGO                           18082023BRL0000000000000000000000001181870000000000477982683418082023000000000118187                                        000000000    00        
0010001300098B   100028881142830                                                                                                                                                                                                                
0010001300099Z                                                                B218E6D8E6FA4C9D                                                                                                                                        00        
0010001300100A0000000010697280000000322121 CICERO HOLANDA DE SOUSA                           18082023BRL0000000000000000000000001754670000000000477982683518082023000000000175467                                        000000000    00        
0010001300101B   100012409730809                                                                                                                                                                                                                
0010001300102Z                                                                E19EB6E65A0970B8                                                                                                                                        00        
0010001300103A0000000010697280000000322164 CLAUDIA DA SILVA OLIVEIRA                         18082023BRL0000000000000000000000001559290000000000477982683618082023000000000155929                                        000000000    00        
0010001300104B   100016869586845                                                                                                                                                                                                                
0010001300105Z                                                                D9B2BCED21797D08                                                                                                                                        00        
0010001300106A0000000010697280000000322172 CLAUDIA DE MOURA SAMPAIO                          18082023BRL0000000000000000000000000983840000000000477982683718082023000000000098384                                        000000000    00        
0010001300107B   100026942672890                                                                                                                                                                                                                
0010001300108Z                                                                A307FB4B41BA7898                                                                                                                                        00        
0010001300109A0000000010697280000000322180 CLAUDIA DE OLIVEIRA DUARTE                        18082023BRL0000000000000000000000001074940000000000477982683818082023000000000107494                                        000000000    00        
0010001300110B   100032672475865                                                                                                                                                                                                                
0010001300111Z                                                                0CD0E581D761302B                                                                                                                                        00        
0010001300112A0000000010697280000000322199 CLAUDIA MARIA PEREIRA DA SILVA                    18082023BRL0000000000000000000000001075640000000000477982683918082023000000000107564                                        000000000    00        
0010001300113B   100008391600890                                                                                                                                                                                                                
0010001300114Z                                                                D89E0B63DCBE7327                                                                                                                                        00        
0010001300115A0000000010697280000000322202 CLAUDILENE SOARES DA SILVA                        18082023BRL0000000000000000000000000983840000000000477982684018082023000000000098384                                        000000000    00        
0010001300116B   100031360379878                                                                                                                                                                                                                
0010001300117Z                                                                06678890A290A28D                                                                                                                                        00        
0010001300118A0000000010697280000000322210 CLAUDIONOR SANT ANNA CHAVES                       18082023BRL0000000000000000000000000983840000000000477982684118082023000000000098384                                        000000000    00        
0010001300119B   100016086700826                                                                                                                                                                                                                
0010001300120Z                                                                24C428D7C7BF68FA                                                                                                                                        00        
0010001300121A0000000010697280000000322237 CLAYTON ANDRADE DOS SANTOS                        18082023BRL0000000000000000000000000983840000000000477982684218082023000000000098384                                        000000000    00        
0010001300122B   100037566455842                                                                                                                                                                                                                
0010001300123Z                                                                AAC6562D1ABB3777                                                                                                                                        00        
0010001300124A0000000010697280000000322253 CLEBER PINTO ALBINO                               18082023BRL0000000000000000000000002420050000000000477982684318082023000000000242005                                        000000000    00        
0010001300125B   100021276364814                                                                                                                                                                                                                
0010001300126Z                                                                2CFBD9377D50F575                                                                                                                                        00        
0010001300127A0000000010697280000000322261 CLEITO MARTINS DE OLIVEIRA                        18082023BRL0000000000000000000000001170010000000000477982684418082023000000000117001                                        000000000    00        
0010001300128B   100020590058843                                                                                                                                                                                                                
0010001300129Z                                                                F348A83B41ADA297                                                                                                                                        00        
0010001300130A000000001069728000000032227X CLEONILDA DA SILVA TEREZA                         18082023BRL0000000000000000000000000983840000000000477982684518082023000000000098384                                        000000000    00        
0010001300131B   100030825909856                                                                                                                                                                                                                
0010001300132Z                                                                E80058B7E45A4C9E                                                                                                                                        00        
0010001300133A0000000010697280000000322288 CORACI DE SOUZA FERREIRA                          18082023BRL0000000000000000000000002153410000000000477982684618082023000000000215341                                        000000000    00        
0010001300134B   100000798760648                                                                                                                                                                                                                
0010001300135Z                                                                769DF7575F3EDB65                                                                                                                                        00        
0010001300136A0000000010697280000000322296 CREUSA PENA DE OLIVEIRA DA SIL                    18082023BRL0000000000000000000000001145760000000000477982684718082023000000000114576                                        000000000    00        
0010001300137B   100008983485876                                                                                                                                                                                                                
0010001300138Z                                                                45D2DD7EBFC8ECF7                                                                                                                                        00        
0010001300139A000000001069728000000032230X CRISTIANE APARECIDA BARBOSA DA                    18082023BRL0000000000000000000000001121760000000000477982684818082023000000000112176                                        000000000    00        
0010001300140B   100015565110866                                                                                                                                                                                                                
0010001300141Z                                                                4C1429BADE3B2449                                                                                                                                        00        
0010001300142A0000000010697280000000322318 CRISTIANE APARECIDA DE ANDRADE                    18082023BRL0000000000000000000000002695850000000000477982684918082023000000000269585                                        000000000    00        
0010001300143B   100017708032890                                                                                                                                                                                                                
0010001300144Z                                                                FD43012FCA326F70                                                                                                                                        00        
0010001300145A0000000010697280000000322326 DALVANILZA LOURENCO SILVA                         18082023BRL0000000000000000000000000983840000000000477982685018082023000000000098384                                        000000000    00        
0010001300146B   100031200520866                                                                                                                                                                                                                
0010001300147Z                                                                122760E3C668FA1B                                                                                                                                        00        
0010001300148A0000000010697280000000322334 DAMACIO PEREIRA ALVES                             18082023BRL0000000000000000000000001371340000000000477982685118082023000000000137134                                        000000000    00        
0010001300149B   100039758494368                                                                                                                                                                                                                
0010001300150Z                                                                B51BC9B267EADDA8                                                                                                                                        00        
0010001300151A0000000010697280000000322342 DANIEL PEREIRA RUAS                               18082023BRL0000000000000000000000001122540000000000477982685218082023000000000112254                                        000000000    00        
0010001300152B   100039772339803                                                                                                                                                                                                                
0010001300153Z                                                                505D4301EB1A40FF                                                                                                                                        00        
0010001300154A0000000010697280000000322369 DIEGO RENAN MACHADO                               18082023BRL0000000000000000000000000983840000000000477982685318082023000000000098384                                        000000000    00        
0010001300155B   100036913896867                                                                                                                                                                                                                
0010001300156Z                                                                C6B87747291E1D70                                                                                                                                        00        
0010001300157A0000000010697280000000322385 DIOGO RODRIGUES DE LIMA                           18082023BRL0000000000000000000000000983840000000000477982685418082023000000000098384                                        000000000    00        
0010001300158B   100041099422841                                                                                                                                                                                                                
0010001300159Z                                                                F98D162BA93F5015                                                                                                                                        00        
0010001300160A0000000010697280000000322393 DOUGLAS ANTONIO DE SENE JUNIOR                    18082023BRL0000000000000000000000000983840000000000477982685518082023000000000098384                                        000000000    00        
0010001300161B   100048656508814                                                                                                                                                                                                                
0010001300162Z                                                                D5394506BA99F50C                                                                                                                                        00        
0010001300163A0000000010697280000000322407 DOUGLAS CERQUEIRA SOUZA                           18082023BRL0000000000000000000000000983840000000000477982685618082023000000000098384                                        000000000    00        
0010001300164B   100041251394825                                                                                                                                                                                                                
0010001300165Z                                                                1330E00332FC9252                                                                                                                                        00        
0010001300166A0000000010697280000000322415 DOUGLAS DA CRUZ SANTANA                           18082023BRL0000000000000000000000000983840000000000477982685718082023000000000098384                                        000000000    00        
0010001300167B   100035498172826                                                                                                                                                                                                                
0010001300168Z                                                                00DC8724D98E2CFD                                                                                                                                        00        
0010001300169A0000000010697280000000322423 ED CARLOS CAPELATI                                18082023BRL0000000000000000000000002489330000000000477982685818082023000000000248933                                        000000000    00        
0010001300170B   100018559765875                                                                                                                                                                                                                
0010001300171Z                                                                E42158018514D17A                                                                                                                                        00        
0010001300172A0000000010697280000000322431 EDEMILSON MACEDO RIBEIRO                          18082023BRL0000000000000000000000000754280000000000477982685918082023000000000075428                                        000000000    00        
0010001300173B   100020519988841                                                                                                                                                                                                                
0010001300174Z                                                                BC26096AC6ACD079                                                                                                                                        00        
0010001300175A000000001069728000000032244X EDI CARLOS DA SILVA                               18082023BRL0000000000000000000000000983840000000000477982686018082023000000000098384                                        000000000    00        
0010001300176B   100028559737839                                                                                                                                                                                                                
0010001300177Z                                                                D3AD959664E49785                                                                                                                                        00        
0010001300178A0000000010697280000000322458 EDI MOREIRA DA CONCEICAO                          18082023BRL0000000000000000000000000983840000000000477982686118082023000000000098384                                        000000000    00        
0010001300179B   100028477956855                                                                                                                                                                                                                
0010001300180Z                                                                F244B4B6F017D541                                                                                                                                        00        
0010001300181A0000000010697280000000322474 EDLAINE CARVALHO DE SOUZA                         18082023BRL0000000000000000000000000983840000000000477982686218082023000000000098384                                        000000000    00        
0010001300182B   100025458013808                                                                                                                                                                                                                
0010001300183Z                                                                BE4B2EFCE93FEDCF                                                                                                                                        00        
0010001300184A0000000010697280000000322482 EDSON LAURIANO DIAS                               18082023BRL0000000000000000000000000983840000000000477982686318082023000000000098384                                        000000000    00        
0010001300185B   100030227595840                                                                                                                                                                                                                
0010001300186Z                                                                B0C8CA321B606DDF                                                                                                                                        00        
0010001300187A0000000010697280000000322504 EGIDIO HENRIQUE DE OLIVEIRA                       18082023BRL0000000000000000000000001232890000000000477982686418082023000000000123289                                        000000000    00        
0010001300188B   100028061789833                                                                                                                                                                                                                
0010001300189Z                                                                05F8785847866899                                                                                                                                        00        
0010001300190A0000000010697280000000322512 ELAINE SANTIAGO DOS SANTOS SIL                    18082023BRL0000000000000000000000000983840000000000477982686518082023000000000098384                                        000000000    00        
0010001300191B   100035039148895                                                                                                                                                                                                                
0010001300192Z                                                                0C2C24081757FF26                                                                                                                                        00        
0010001300193A0000000010697280000000322520 ELIANE ALVES DE OLIVEIRA                          18082023BRL0000000000000000000000001170010000000000477982686618082023000000000117001                                        000000000    00        
0010001300194B   100030964968894                                                                                                                                                                                                                
0010001300195Z                                                                1CA49DF359B439AA                                                                                                                                        00        
0010001300196A0000000010697280000000322539 ELIANE APARECIDA FERNANDES                        18082023BRL0000000000000000000000000983840000000000477982686718082023000000000098384                                        000000000    00        
0010001300197B   100022176418832                                                                                                                                                                                                                
0010001300198Z                                                                273B12D53A6965D2                                                                                                                                        00        
0010001300199A0000000010697280000000322563 ELISANGELA DA SILVA SANTOS                        18082023BRL0000000000000000000000001087680000000000477982686818082023000000000108768                                        000000000    00        
0010001300200B   100022534374842                                                                                                                                                                                                                
0010001300201Z                                                                316653F8EDC5FC28                                                                                                                                        00        
0010001300202A0000000010697280000000322571 ELISETE DE PAULA GOMES CARNEIR                    18082023BRL0000000000000000000000001734740000000000477982686918082023000000000173474                                        000000000    00        
0010001300203B   100027778794861                                                                                                                                                                                                                
0010001300204Z                                                                D755F79B03105E72                                                                                                                                        00        
0010001300205A000000001069728000000032258X EMERSON DANTAS DE OLIVEIRA                        18082023BRL0000000000000000000000001370630000000000477982687018082023000000000137063                                        000000000    00        
0010001300206B   100014302663847                                                                                                                                                                                                                
0010001300207Z                                                                967EA84E8EBB4776                                                                                                                                        00        
0010001300208A0000000010697280000000322598 ENEIZE DE ALMEIDA SOARES                          18082023BRL0000000000000000000000001129130000000000477982687118082023000000000112913                                        000000000    00        
0010001300209B   100003388447403                                                                                                                                                                                                                
0010001300210Z                                                                BF64E4A489E8EF7A                                                                                                                                        00        
0010001300211A000000001069728000000032261X ERIVALDO LOPES DOS SANTOS                         18082023BRL0000000000000000000000000983840000000000477982687218082023000000000098384                                        000000000    00        
0010001300212B   100075080630582                                                                                                                                                                                                                
0010001300213Z                                                                1664D9CD0D5223BC                                                                                                                                        00        
0010001300214A0000000010697280000000322628 EVALDO FERREIRA DE SOUZA                          18082023BRL0000000000000000000000001499570000000000477982687318082023000000000149957                                        000000000    00        
0010001300215B   100014811479866                                                                                                                                                                                                                
0010001300216Z                                                                BC47424BEBEA4188                                                                                                                                        00        
0010001300217A0000000010697280000000322644 EVERALDO BISPO SA                                 18082023BRL0000000000000000000000001081520000000000477982687418082023000000000108152                                        000000000    00        
0010001300218B   100095659790500                                                                                                                                                                                                                
0010001300219Z                                                                914D8F4068DB37D2                                                                                                                                        00        
0010001300220A0000000010697280000000322652 EVERALDO DE OLIVEIRA ALVES                        18082023BRL0000000000000000000000001367500000000000477982687518082023000000000136750                                        000000000    00        
0010001300221B   100014665774870                                                                                                                                                                                                                
0010001300222Z                                                                66B9351EEC45A7A7                                                                                                                                        00        
0010001300223A0000000010697280000000322679 FABIO ALVES DA SILVA                              18082023BRL0000000000000000000000001069620000000000477982687618082023000000000106962                                        000000000    00        
0010001300224B   100030230758835                                                                                                                                                                                                                
0010001300225Z                                                                5F11DD905CC34B35                                                                                                                                        00        
0010001300226A0000000010697280000000322687 FABIOLA EVELYN RAMOS DE CARVAL                    18082023BRL0000000000000000000000000983840000000000477982687718082023000000000098384                                        000000000    00        
0010001300227B   100045330614864                                                                                                                                                                                                                
0010001300228Z                                                                44BEA6E6B988179A                                                                                                                                        00        
0010001300229A0000000010697280000000322695 FABRICIO BARBOZA SERAFIM                          18082023BRL0000000000000000000000000983840000000000477982687818082023000000000098384                                        000000000    00        
0010001300230B   100022814985817                                                                                                                                                                                                                
0010001300231Z                                                                8D099735945CDC6C                                                                                                                                        00        
0010001300232A0000000010697280000000322717 FERNANDA MATIAS DE SOUZA                          18082023BRL0000000000000000000000000983840000000000477982687918082023000000000098384                                        000000000    00        
0010001300233B   100022796437825                                                                                                                                                                                                                
0010001300234Z                                                                2FB6841FBF8B9964                                                                                                                                        00        
0010001300235A0000000010697280000000322768 FRANCISCO JONAS DA SILVA                          18082023BRL0000000000000000000000000983840000000000477982688018082023000000000098384                                        000000000    00        
0010001300236B   100000877648301                                                                                                                                                                                                                
0010001300237Z                                                                EBF9115D62589601                                                                                                                                        00        
0010001300238A0000000010697280000000322776 GABRIEL ROCHA MASSOLI                             18082023BRL0000000000000000000000001107180000000000477982688118082023000000000110718                                        000000000    00        
0010001300239B   100047054005856                                                                                                                                                                                                                
0010001300240Z                                                                7337502E15D6EB75                                                                                                                                        00        
0010001300241A0000000010697280000000322784 GENIVALDO GOMES DE OLIVEIRA                       18082023BRL0000000000000000000000000983840000000000477982688218082023000000000098384                                        000000000    00        
0010001300242B   100025648398867                                                                                                                                                                                                                
0010001300243Z                                                                31CCF6DE7CF9C58E                                                                                                                                        00        
0010001300244A0000000010697280000000322792 GEOGERIS CARLIM MONTEIRO                          18082023BRL0000000000000000000000000983840000000000477982688318082023000000000098384                                        000000000    00        
0010001300245B   100021891368818                                                                                                                                                                                                                
0010001300246Z                                                                C2F3D732B306F104                                                                                                                                        00        
0010001300247A0000000010697280000000322806 GILSON JOSE MARTINS                               18082023BRL0000000000000000000000000754420000000000477982688418082023000000000075442                                        000000000    00        
0010001300248B   100035158037850                                                                                                                                                                                                                
0010001300249Z                                                                2D0205F1D9EE40F2                                                                                                                                        00        
0010001300250A0000000010697280000000322814 GILVAN RAMOS DA CRUZ                              18082023BRL0000000000000000000000000983840000000000477982688518082023000000000098384                                        000000000    00        
0010001300251B   100028612900808                                                                                                                                                                                                                
0010001300252Z                                                                6E5298B62218D684                                                                                                                                        00        
0010001300253A0000000010697280000000322822 GIOVANE DA SILVA QUILOTI                          18082023BRL0000000000000000000000000983840000000000477982688618082023000000000098384                                        000000000    00        
0010001300254B   100043924841810                                                                                                                                                                                                                
0010001300255Z                                                                85BD18C1B28507D9                                                                                                                                        00        
0010001300256A0000000010697280000000322849 GISLENE RODRIGUES                                 18082023BRL0000000000000000000000000983840000000000477982688718082023000000000098384                                        000000000    00        
0010001300257B   100025071381818                                                                                                                                                                                                                
0010001300258Z                                                                0D6EB5D7D34DF355                                                                                                                                        00        
0010001300259A0000000010697280000000322873 GUSTAVO BARBOSA DA SILVA                          18082023BRL0000000000000000000000000983840000000000477982688818082023000000000098384                                        000000000    00        
0010001300260B   100041484171870                                                                                                                                                                                                                
0010001300261Z                                                                BB23ECE5DC4F6775                                                                                                                                        00        
0010001300262A0000000010697280000000322881 GUSTAVO NOGUEIRA SANTOS                           18082023BRL0000000000000000000000001931170000000000477982688918082023000000000193117                                        000000000    00        
0010001300263B   100040423325876                                                                                                                                                                                                                
0010001300264Z                                                                1FB5A02BE4B4B5B8                                                                                                                                        00        
0010001300265A000000001069728000000032289X GUSTAVO RAMOS FARIAS                              18082023BRL0000000000000000000000000983840000000000477982689018082023000000000098384                                        000000000    00        
0010001300266B   100051068751886                                                                                                                                                                                                                
0010001300267Z                                                                BCB80DFA17A6595D                                                                                                                                        00        
0010001300268A0000000010697280000000322903 HAMILTON PASSOS DANTAS                            18082023BRL0000000000000000000000001087680000000000477982689118082023000000000108768                                        000000000    00        
0010001300269B   100028583120870                                                                                                                                                                                                                
0010001300270Z                                                                169B249E4EBD252B                                                                                                                                        00        
0010001300271A0000000010697280000000322938 HUDSON DIAS DOS SANTOS                            18082023BRL0000000000000000000000001087680000000000477982689218082023000000000108768                                        000000000    00        
0010001300272B   100034483253840                                                                                                                                                                                                                
0010001300273Z                                                                60500BAAFE3CA056                                                                                                                                        00        
0010001300274A0000000010697280000000322946 ILZA APARECIDA DIAS                               18082023BRL0000000000000000000000000983840000000000477982689318082023000000000098384                                        000000000    00        
0010001300275B   100012578132852                                                                                                                                                                                                                
0010001300276Z                                                                CEE67BE1567C939A                                                                                                                                        00        
0010001300277A0000000010697280000000322954 IVONETE APARECIDA DOS SANTOS                      18082023BRL0000000000000000000000001170010000000000477982689418082023000000000117001                                        000000000    00        
0010001300278B   100009641571877                                                                                                                                                                                                                
0010001300279Z                                                                9CAB725A078EBC32                                                                                                                                        00        
0010001300280A0000000010697280000000322970 JANIO PIRES ARAUJO                                18082023BRL0000000000000000000000000983840000000000477982689518082023000000000098384                                        000000000    00        
0010001300281B   100027867054871                                                                                                                                                                                                                
0010001300282Z                                                                C699025FCEFE82C0                                                                                                                                        00        
0010001300283A0000000010697280000000323004 JHONATAN SILVA                                    18082023BRL0000000000000000000000000983840000000000477982689618082023000000000098384                                        000000000    00        
0010001300284B   100036310830848                                                                                                                                                                                                                
0010001300285Z                                                                DE9A0774B75145B6                                                                                                                                        00        
0010001300286A0000000010697280000000323020 JOAO DE OLIVEIRA                                  18082023BRL0000000000000000000000000983840000000000477982689718082023000000000098384                                        000000000    00        
0010001300287B   100008829412830                                                                                                                                                                                                                
0010001300288Z                                                                441DE8D3881EB778                                                                                                                                        00        
0010001300289A0000000010697280000000323047 JOAQUIM FERNANDES FILHO                           18082023BRL0000000000000000000000001269840000000000477982689818082023000000000126984                                        000000000    00        
0010001300290B   100005454957844                                                                                                                                                                                                                
0010001300291Z                                                                DA28FB2FD978CBC9                                                                                                                                        00        
0010001300292A0000000010697280000000323063 JOCIENE DOS SANTOS SOARES RIBE                    18082023BRL0000000000000000000000000983840000000000477982689918082023000000000098384                                        000000000    00        
0010001300293B   100005274797563                                                                                                                                                                                                                
0010001300294Z                                                                69705BC5705BBEBB                                                                                                                                        00        
0010001300295A0000000010697280000000323071 JOEL GONCALVES DOS SANTOS                         18082023BRL0000000000000000000000000983840000000000477982690018082023000000000098384                                        000000000    00        
0010001300296B   100015633607805                                                                                                                                                                                                                
0010001300297Z                                                                9C778E79F382ED17                                                                                                                                        00        
0010001300298A000000001069728000000032308X JOELMA BORGES DEBUS                               18082023BRL0000000000000000000000002707490000000000477982690118082023000000000270749                                        000000000    00        
0010001300299B   100025562131838                                                                                                                                                                                                                
0010001300300Z                                                                59292214D37B704B                                                                                                                                        00        
0010001300301A0000000010697280000000323098 JOHANY NASCIMENTO DA SILVA                        18082023BRL0000000000000000000000000983840000000000477982690218082023000000000098384                                        000000000    00        
0010001300302B   100035402325839                                                                                                                                                                                                                
0010001300303Z                                                                9927B7E897EFE1DC                                                                                                                                        00        
0010001300304A0000000010697280000000323128 JOSE CICERO DO NASCIMENTO                         18082023BRL0000000000000000000000001232890000000000477982690318082023000000000123289                                        000000000    00        
0010001300305B   100057061637404                                                                                                                                                                                                                
0010001300306Z                                                                0C7496A074007186                                                                                                                                        00        
0010001300307A0000000010697280000000323136 JOSE DO NASCIMENTO                                18082023BRL0000000000000000000000001179610000000000477982690418082023000000000117961                                        000000000    00        
0010001300308B   100007942398897                                                                                                                                                                                                                
0010001300309Z                                                                B139704CC999A4C2                                                                                                                                        00        
0010001300310A0000000010697280000000323144 JOSE EDVALDO DOS SANTOS ROCHA                     18082023BRL0000000000000000000000000983840000000000477982690518082023000000000098384                                        000000000    00        
0010001300311B   100095654186434                                                                                                                                                                                                                
0010001300312Z                                                                3E21B422184842A7                                                                                                                                        00        
0010001300313A0000000010697280000000323152 JOSE GENIVAL DE SOUZA                             18082023BRL0000000000000000000000000655890000000000477982690618082023000000000065589                                        000000000    00        
0010001300314B   100070798001453                                                                                                                                                                                                                
0010001300315Z                                                                3CFF3D05F3378F39                                                                                                                                        00        
0010001300316A0000000010697280000000323160 JOSE GOMES FILHO                                  18082023BRL0000000000000000000000001248470000000000477982690718082023000000000124847                                        000000000    00        
0010001300317B   100044642911472                                                                                                                                                                                                                
0010001300318Z                                                                4D960505A916B45D                                                                                                                                        00        
0010001300319A0000000010697280000000323179 JOSE LEANDRO SOARES DE OLIVEIR                    18082023BRL0000000000000000000000001074940000000000477982690818082023000000000107494                                        000000000    00        
0010001300320B   100042643419812                                                                                                                                                                                                                
0010001300321Z                                                                BA6016FE1C7F7138                                                                                                                                        00        
0010001300322A0000000010697280000000323195 JOSE WILSON JONAS DO NASCIMENT                    18082023BRL0000000000000000000000000983840000000000477982690918082023000000000098384                                        000000000    00        
0010001300323B   100047455837534                                                                                                                                                                                                                
0010001300324Z                                                                353D29857329E50C                                                                                                                                        00        
0010001300325A0000000010697280000000323217 JOSENALDO SOUZA TEIXEIRA                          18082023BRL0000000000000000000000002099680000000000477982691018082023000000000209968                                        000000000    00        
0010001300326B   100010350958823                                                                                                                                                                                                                
0010001300327Z                                                                9FB69E27BBCC9C82                                                                                                                                        00        
0010001300328A0000000010697280000000323225 JOSILMA SILVA MARTINS                             18082023BRL0000000000000000000000001075100000000000477982691118082023000000000107510                                        000000000    00        
0010001300329B   100000119273306                                                                                                                                                                                                                
0010001300330Z                                                                92309424AC463D5E                                                                                                                                        00        
0010001300331A0000000010697280000000323233 JOSIMAR DOS SANTOS CAMPOS                         18082023BRL0000000000000000000000001074940000000000477982691218082023000000000107494                                        000000000    00        
0010001300332B   100003224544503                                                                                                                                                                                                                
0010001300333Z                                                                1EAC99BFD6469582                                                                                                                                        00        
0010001300334A0000000010697280000000323241 JUAN PABLO NEVES SANTOS                           18082023BRL0000000000000000000000000983840000000000477982691318082023000000000098384                                        000000000    00        
0010001300335B   100052257841867                                                                                                                                                                                                                
0010001300336Z                                                                4C6108F5F301BF09                                                                                                                                        00        
0010001300337A000000001069728000000032325X JUCELIO SANTIAGO VIANA                            18082023BRL0000000000000000000000000983840000000000477982691418082023000000000098384                                        000000000    00        
0010001300338B   100042673347810                                                                                                                                                                                                                
0010001300339Z                                                                93DB66440CB4C540                                                                                                                                        00        
0010001300340A0000000010697280000000323268 JURANDIR PEREIRA GOMES                            18082023BRL0000000000000000000000001087680000000000477982691518082023000000000108768                                        000000000    00        
0010001300341B   100029207974843                                                                                                                                                                                                                
0010001300342Z                                                                ADF915217273DE23                                                                                                                                        00        
0010001300343A0000000010697280000000323276 KAREN GOMES DA SILVA                              18082023BRL0000000000000000000000001117500000000000477982691618082023000000000111750                                        000000000    00        
0010001300344B   100043489670833                                                                                                                                                                                                                
0010001300345Z                                                                E37E79D04794F648                                                                                                                                        00        
0010001300346A0000000010697280000000323284 KARINE FARIAS NEVES                               18082023BRL0000000000000000000000003182500000000000477982691718082023000000000318250                                        000000000    00        
0010001300347B   100043062315857                                                                                                                                                                                                                
0010001300348Z                                                                0F235D69358B8F73                                                                                                                                        00        
0010001300349A0000000010697280000000323292 KATIA REGINA MOREIRA DE SOUZA                     18082023BRL0000000000000000000000001087680000000000477982691818082023000000000108768                                        000000000    00        
0010001300350B   100018559755802                                                                                                                                                                                                                
0010001300351Z                                                                29FBCF06475F5625                                                                                                                                        00        
0010001300352A0000000010697280000000323306 LAERTE MEIRELES GUERRA                            18082023BRL0000000000000000000000001802670000000000477982691918082023000000000180267                                        000000000    00        
0010001300353B   100014512253858                                                                                                                                                                                                                
0010001300354Z                                                                36732ADA21481F55                                                                                                                                        00        
0010001300355A0000000010697280000000323314 LAURA KATHELLEN BONFIM MONTEIR                    18082023BRL0000000000000000000000000983130000000000477982692018082023000000000098313                                        000000000    00        
0010001300356B   100051012329801                                                                                                                                                                                                                
0010001300357Z                                                                F7EE2941DFC59B21                                                                                                                                        00        
0010001300358A0000000010697280000000323322 LEANDRO CRUZ DE JESUS                             18082023BRL0000000000000000000000000983840000000000477982692118082023000000000098384                                        000000000    00        
0010001300359B   100036669550880                                                                                                                                                                                                                
0010001300360Z                                                                43B2520F1877E854                                                                                                                                        00        
0010001300361A0000000010697280000000323349 LEONARDO DA SILVA SILVEIRA                        18082023BRL0000000000000000000000000983840000000000477982692218082023000000000098384                                        000000000    00        
0010001300362B   100032713099811                                                                                                                                                                                                                
0010001300363Z                                                                450F0A2B5F4D2F81                                                                                                                                        00        
0010001300364A0000000010697280000000323357 LEONARDO DE JESUS DINIZ                           18082023BRL0000000000000000000000000983840000000000477982692318082023000000000098384                                        000000000    00        
0010001300365B   100034137837856                                                                                                                                                                                                                
0010001300366Z                                                                D2E7F8D476C0EED0                                                                                                                                        00        
0010001300367A0000000010697280000000323365 LETICIA CRISTINA DA SILVA MACI                    18082023BRL0000000000000000000000000982960000000000477982692418082023000000000098296                                        000000000    00        
0010001300368B   100045041084882                                                                                                                                                                                                                
0010001300369Z                                                                BABF596FC9656839                                                                                                                                        00        
0010001300370A0000000010697280000000323373 LETICIA SILVA BARBOSA                             18082023BRL0000000000000000000000000983130000000000477982692518082023000000000098313                                        000000000    00        
0010001300371B   100049837493810                                                                                                                                                                                                                
0010001300372Z                                                                AA0BAD80C2D72554                                                                                                                                        00        
0010001300373A000000001069728000000032339X LUCAS SANTOS ROCHA DE SOUSA                       18082023BRL0000000000000000000000002133870000000000477982692618082023000000000213387                                        000000000    00        
0010001300374B   100031899787860                                                                                                                                                                                                                
0010001300375Z                                                                D3D325F863A023E6                                                                                                                                        00        
0010001300376A0000000010697280000000323403 LUCIANA DE CASSIA RODRIGUES PE                    18082023BRL0000000000000000000000001336520000000000477982692718082023000000000133652                                        000000000    00        
0010001300377B   100025399245817                                                                                                                                                                                                                
0010001300378Z                                                                A33940A0340B32A5                                                                                                                                        00        
0010001300379A0000000010697280000000323411 LUCINEIDE SILVA MOREIRA                           18082023BRL0000000000000000000000000983840000000000477982692818082023000000000098384                                        000000000    00        
0010001300380B   100054267617520                                                                                                                                                                                                                
0010001300381Z                                                                357DEC6662D292BA                                                                                                                                        00        
0010001300382A000000001069728000000032342X LUIS FELIPE DE SOUZA                              18082023BRL0000000000000000000000001087680000000000477982692918082023000000000108768                                        000000000    00        
0010001300383B   100033180949864                                                                                                                                                                                                                
0010001300384Z                                                                A86E40DAFAB91E71                                                                                                                                        00        
0010001300385A0000000010697280000000323438 LUIS FERNANDO TELES SILVA                         18082023BRL0000000000000000000000000983840000000000477982693018082023000000000098384                                        000000000    00        
0010001300386B   100022459524803                                                                                                                                                                                                                
0010001300387Z                                                                9667906803D1D08A                                                                                                                                        00        
0010001300388A0000000010697280000000323446 LUIS RODRIGUES DOS SANTOS                         18082023BRL0000000000000000000000001205600000000000477982693118082023000000000120560                                        000000000    00        
0010001300389B   100025254036818                                                                                                                                                                                                                
0010001300390Z                                                                6BEB012A85627654                                                                                                                                        00        
0010001300391A0000000010697280000000323454 LUIZ GONZAGA SANTOS SILVEIRA                      18082023BRL0000000000000000000000001121760000000000477982693218082023000000000112176                                        000000000    00        
0010001300392B   100059907878120                                                                                                                                                                                                                
0010001300393Z                                                                1F1707A8450AF6B3                                                                                                                                        00        
0010001300394A0000000010697280000000323470 MAGNA BARBOSA ARRUDA DE SOUSA                     18082023BRL0000000000000000000000000983840000000000477982693318082023000000000098384                                        000000000    00        
0010001300395B   100017745198879                                                                                                                                                                                                                
0010001300396Z                                                                24AFF042F327ABB8                                                                                                                                        00        
0010001300397A0000000010697280000000323489 MAGNO DA SILVA ROCHA                              18082023BRL0000000000000000000000001293270000000000477982693418082023000000000129327                                        000000000    00        
0010001300398B   100035935984857                                                                                                                                                                                                                
0010001300399Z                                                                572A3A15AEFA7E87                                                                                                                                        00        
0010001300400A0000000010697280000000323497 MANOEL SANTANA DE LIMA                            18082023BRL0000000000000000000000001087680000000000477982693518082023000000000108768                                        000000000    00        
0010001300401B   100033924933847                                                                                                                                                                                                                
0010001300402Z                                                                E2F176E7FD0E16DE                                                                                                                                        00        
0010001300403A0000000010697280000000323500 MARCELO ALVES MENDES                              18082023BRL0000000000000000000000001549020000000000477982693618082023000000000154902                                        000000000    00        
0010001300404B   100029450006873                                                                                                                                                                                                                
0010001300405Z                                                                8DF04BC162A4C37C                                                                                                                                        00        
0010001300406A0000000010697280000000323519 MARCELO DOS SANTOS JUNIOR                         18082023BRL0000000000000000000000001236420000000000477982693718082023000000000123642                                        000000000    00        
0010001300407B   100040244530840                                                                                                                                                                                                                
0010001300408Z                                                                E05B10F0A4621A2E                                                                                                                                        00        
0010001300409A0000000010697280000000323535 MARCIO AMARAL DE PADUA                            18082023BRL0000000000000000000000001883490000000000477982693818082023000000000188349                                        000000000    00        
0010001300410B   100014515488856                                                                                                                                                                                                                
0010001300411Z                                                                0FC060E1D349EA1B                                                                                                                                        00        
0010001300412A0000000010697280000000323551 MARCIO VITOR BATISTA                              18082023BRL0000000000000000000000001170210000000000477982693918082023000000000117021                                        000000000    00        
