00100000         2462705180001460007532430126       0334800000001104950 SPAAL INDUSTRIA E COMERCIO LTDBANCO DO BRASIL S.A.                    21907202316152300099308200001201190761PREVIA                                          30          
00100011C3001042 2462705180001460007532430126       0334800000001104950 SPAAL INDUSTRIA E COMERCIO LTD                         082042013000001                              00000                                                               
0010001300001A000000001069728000000020580X DIJAELTON SOUZA SILVA                             20072023BRL0000000000000000000000000983840000000000476524535820072023000000000098384                                        0 0    00    BD        
0010001300002B   100044339295817                                                                                                                                                                                                                
0010001300003A0000000010697280000000321648 ADELINO FERREIRA DOS SANTOS                       20072023BRL0000000000000000000000001257730000000000476524535920072023000000000125773                                        0 0    00    BD        
0010001300004B   100016929425818                                                                                                                                                                                                                
0010001300005A0000000010697280000000321656 ADELMIR SERAFIM PEREIRA                           20072023BRL0000000000000000000000000983840000000000476524536020072023000000000098384                                        0 0    00    BD        
0010001300006B   100014811123840                                                                                                                                                                                                                
0010001300007A0000000010697280000000321664 ADEMILSON SANTOS PEREIRA                          20072023BRL0000000000000000000000001332130000000000476524536120072023000000000133213                                        0 0    00    BD        
0010001300008B   100016310522841                                                                                                                                                                                                                
0010001300009A0000000010697280000000321680 ADOALDO TEIXEIRA SOUZA                            20072023BRL0000000000000000000000000885460000000000476524536220072023000000000088546                                        0 0    00    BD        
0010001300010B   100060375620591                                                                                                                                                                                                                
0010001300011A0000000010697280000000321699 ADRIANA APRIGIO ANDRADE                           20072023BRL0000000000000000000000001033690000000000476524536320072023000000000103369                                        0 0    00    BD        
0010001300012B   100022574479807                                                                                                                                                                                                                
0010001300013A0000000010697280000000321702 ADRIANA DE OLIVEIRA SANTOS                        20072023BRL0000000000000000000000002727120000000000476524536420072023000000000272712                                        0 0    00    BD        
0010001300014B   100016120147802                                                                                                                                                                                                                
0010001300015A0000000010697280000000321729 AFONSO JOSE BEZERRA E SILVA                       20072023BRL0000000000000000000000001760740000000000476524536520072023000000000176074                                        0 0    00    BD        
0010001300016B   100004446021869                                                                                                                                                                                                                
0010001300017A0000000010697280000000321753 ALBERDAN BERTOLINO PEREIRA                        20072023BRL0000000000000000000000000983840000000000476524536620072023000000000098384                                        0 0    00    BD        
0010001300018B   100045031142391                                                                                                                                                                                                                
0010001300019A0000000010697280000000321761 ALCIDES DAKUZAKU                                  20072023BRL0000000000000000000000003478580000000000476524536720072023000000000347858                                        0 0    00    BD        
0010001300020B   100007734039812                                                                                                                                                                                                                
0010001300021A0000000010697280000000321788 ALEX BERNARDO                                     20072023BRL0000000000000000000000004023450000000000476524536820072023000000000402345                                        0 0    00    BD        
0010001300022B   100025123093800                                                                                                                                                                                                                
0010001300023A0000000010697280000000321796 ALEXANDRE FERREIRA DANTAS                         20072023BRL0000000000000000000000001125980000000000476524536920072023000000000112598                                        0 0    00    BD        
0010001300024B   100022464547867                                                                                                                                                                                                                
0010001300025A000000001069728000000032180X ALEXANDRE GERALDO SOUZA                           20072023BRL0000000000000000000000000983840000000000476524537020072023000000000098384                                        0 0    00    BD        
0010001300026B   100017749874810                                                                                                                                                                                                                
0010001300027A0000000010697280000000321818 ALEXANDRE JOSE DE SOUSA                           20072023BRL0000000000000000000000000983840000000000476524537120072023000000000098384                                        0 0    00    BD        
0010001300028B   100031381269877                                                                                                                                                                                                                
0010001300029A0000000010697280000000321826 ALZIRA MARIA ALMEIDA DOS SANTO                    20072023BRL0000000000000000000000000983840000000000476524537220072023000000000098384                                        0 0    00    BD        
0010001300030B   100028507846807                                                                                                                                                                                                                
0010001300031A0000000010697280000000321842 ANA CLAUDIA DA CONCEICAO OLIVE                    20072023BRL0000000000000000000000000983840000000000476524537320072023000000000098384                                        0 0    00    BD        
0010001300032B   100006388365493                                                                                                                                                                                                                
0010001300033A0000000010697280000000321877 ANDERSON CLEMENTINO                               20072023BRL0000000000000000000000000983840000000000476524537420072023000000000098384                                        0 0    00    BD        
0010001300034B   100033412468860                                                                                                                                                                                                                
0010001300035A0000000010697280000000321885 ANDRE EVANGELISTA BISPO                           20072023BRL0000000000000000000000001087680000000000476524537520072023000000000108768                                        0 0    00    BD        
0010001300036B   100041147729875                                                                                                                                                                                                                
0010001300037A0000000010697280000000321893 ANDREA APARECIDA MARTINS FERRE                    20072023BRL0000000000000000000000000983840000000000476524537620072023000000000098384                                        0 0    00    BD        
0010001300038B   100025307140886                                                                                                                                                                                                                
0010001300039A0000000010697280000000321931 ANNALI BARBOZA DA SILVA PEREIR                    20072023BRL0000000000000000000000000983840000000000476524537720072023000000000098384                                        0 0    00    BD        
0010001300040B   100008975255409                                                                                                                                                                                                                
0010001300041A0000000010697280000000321958 ANTONIO DE SOUZA RODRIGUES                        20072023BRL0000000000000000000000000983840000000000476524537820072023000000000098384                                        0 0    00    BD        
0010001300042B   100024666201890                                                                                                                                                                                                                
0010001300043A0000000010697280000000321966 ANTONIO HERBAS SARMIENTO                          20072023BRL0000000000000000000000001551260000000000476524537920072023000000000155126                                        0 0    00    BD        
0010001300044B   100023486474863                                                                                                                                                                                                                
0010001300045A0000000010697280000000321974 ANTONIO IREMAR GOMES DA SILVA                     20072023BRL0000000000000000000000000983840000000000476524538020072023000000000098384                                        0 0    00    BD        
0010001300046B   100033438398842                                                                                                                                                                                                                
0010001300047A0000000010697280000000321982 ANTONIO RESENDE MARTINS                           20072023BRL0000000000000000000000001430770000000000476524538120072023000000000143077                                        0 0    00    BD        
0010001300048B   100011375952803                                                                                                                                                                                                                
0010001300049A0000000010697280000000322016 BRUNA SUELEN SOUZA CALDAS                         20072023BRL0000000000000000000000000983840000000000476524538220072023000000000098384                                        0 0    00    BD        
0010001300050B   100037822394827                                                                                                                                                                                                                
0010001300051A0000000010697280000000322024 BRUNO SALVADOR MOITINHO                           20072023BRL0000000000000000000000000969780000000000476524538320072023000000000096978                                        0 0    00    BD        
0010001300052B   100036124684802                                                                                                                                                                                                                
0010001300053A0000000010697280000000322032 CARLOS ALBERTO DE LIMA                            20072023BRL0000000000000000000000001546950000000000476524538420072023000000000154695                                        0 0    00    BD        
0010001300054B   100032598303830                                                                                                                                                                                                                
0010001300055A0000000010697280000000322040 CARLOS EDUARDO DE JESUS                           20072023BRL0000000000000000000000000983840000000000476524538520072023000000000098384                                        0 0    00    BD        
0010001300056B   100032027163875                                                                                                                                                                                                                
0010001300057A0000000010697280000000322059 CAROLINA DE SOUZA EMILIO                          20072023BRL0000000000000000000000000983840000000000476524538620072023000000000098384                                        0 0    00    BD        
0010001300058B   100033650339803                                                                                                                                                                                                                
0010001300059A0000000010697280000000322067 CAROLINA SANTANA SILVA                            20072023BRL0000000000000000000000000983840000000000476524538720072023000000000098384                                        0 0    00    BD        
0010001300060B   100031958342866                                                                                                                                                                                                                
0010001300061A0000000010697280000000322075 CAROLINE FARIAS MELO                              20072023BRL0000000000000000000000001130210000000000476524538820072023000000000113021                                        0 0    00    BD        
0010001300062B   100040388829850                                                                                                                                                                                                                
0010001300063A0000000010697280000000322091 CELIO RIBEIRO DO NASCIMENTO                       20072023BRL0000000000000000000000000655890000000000476524538920072023000000000065589                                        0 0    00    BD        
0010001300064B   100029293814854                                                                                                                                                                                                                
0010001300065A0000000010697280000000322105 CELIO TEIXEIRA SANTIAGO                           20072023BRL0000000000000000000000001205600000000000476524539020072023000000000120560                                        0 0    00    BD        
0010001300066B   100028881142830                                                                                                                                                                                                                
0010001300067A0000000010697280000000322121 CICERO HOLANDA DE SOUSA                           20072023BRL0000000000000000000000001734780000000000476524539120072023000000000173478                                        0 0    00    BD        
0010001300068B   100012409730809                                                                                                                                                                                                                
0010001300069A0000000010697280000000322164 CLAUDIA DA SILVA OLIVEIRA                         20072023BRL0000000000000000000000001559290000000000476524539220072023000000000155929                                        0 0    00    BD        
0010001300070B   100016869586845                                                                                                                                                                                                                
0010001300071A0000000010697280000000322172 CLAUDIA DE MOURA SAMPAIO                          20072023BRL0000000000000000000000000983840000000000476524539320072023000000000098384                                        0 0    00    BD        
0010001300072B   100026942672890                                                                                                                                                                                                                
0010001300073A0000000010697280000000322180 CLAUDIA DE OLIVEIRA DUARTE                        20072023BRL0000000000000000000000001087680000000000476524539420072023000000000108768                                        0 0    00    BD        
0010001300074B   100032672475865                                                                                                                                                                                                                
0010001300075A0000000010697280000000322199 CLAUDIA MARIA PEREIRA DA SILVA                    20072023BRL0000000000000000000000001088560000000000476524539520072023000000000108856                                        0 0    00    BD        
0010001300076B   100008391600890                                                                                                                                                                                                                
0010001300077A0000000010697280000000322202 CLAUDILENE SOARES DA SILVA                        20072023BRL0000000000000000000000000983840000000000476524539620072023000000000098384                                        0 0    00    BD        
0010001300078B   100031360379878                                                                                                                                                                                                                
0010001300079A0000000010697280000000322210 CLAUDIONOR SANT ANNA CHAVES                       20072023BRL0000000000000000000000000983840000000000476524539720072023000000000098384                                        0 0    00    BD        
0010001300080B   100016086700826                                                                                                                                                                                                                
0010001300081A0000000010697280000000322245 CLAYTON FERREIRA DA SILVA                         20072023BRL0000000000000000000000001069350000000000476524539820072023000000000106935                                        0 0    00    BD        
0010001300082B   100027632400893                                                                                                                                                                                                                
0010001300083A0000000010697280000000322253 CLEBER PINTO ALBINO                               20072023BRL0000000000000000000000002420050000000000476524539920072023000000000242005                                        0 0    00    BD        
0010001300084B   100021276364814                                                                                                                                                                                                                
0010001300085A0000000010697280000000322261 CLEITO MARTINS DE OLIVEIRA                        20072023BRL0000000000000000000000001177640000000000476524540020072023000000000117764                                        0 0    00    BD        
0010001300086B   100020590058843                                                                                                                                                                                                                
0010001300087A000000001069728000000032227X CLEONILDA DA SILVA TEREZA                         20072023BRL0000000000000000000000000983840000000000476524540120072023000000000098384                                        0 0    00    BD        
0010001300088B   100030825909856                                                                                                                                                                                                                
0010001300089A000000001069728000000032230X CRISTIANE APARECIDA BARBOSA DA                    20072023BRL0000000000000000000000001128980000000000476524540220072023000000000112898                                        0 0    00    BD        
0010001300090B   100015565110866                                                                                                                                                                                                                
0010001300091A0000000010697280000000322318 CRISTIANE APARECIDA DE ANDRADE                    20072023BRL0000000000000000000000002695850000000000476524540320072023000000000269585                                        0 0    00    BD        
0010001300092B   100017708032890                                                                                                                                                                                                                
0010001300093A0000000010697280000000322326 DALVANILZA LOURENCO SILVA                         20072023BRL0000000000000000000000000983840000000000476524540420072023000000000098384                                        0 0    00    BD        
0010001300094B   100031200520866                                                                                                                                                                                                                
0010001300095A0000000010697280000000322334 DAMACIO PEREIRA ALVES                             20072023BRL0000000000000000000000001387820000000000476524540520072023000000000138782                                        0 0    00    BD        
0010001300096B   100039758494368                                                                                                                                                                                                                
0010001300097A0000000010697280000000322342 DANIEL PEREIRA RUAS                               20072023BRL0000000000000000000000001064390000000000476524540620072023000000000106439                                        0 0    00    BD        
0010001300098B   100039772339803                                                                                                                                                                                                                
0010001300099A0000000010697280000000322369 DIEGO RENAN MACHADO                               20072023BRL0000000000000000000000000983840000000000476524540720072023000000000098384                                        0 0    00    BD        
0010001300100B   100036913896867                                                                                                                                                                                                                
0010001300101A0000000010697280000000322377 DIOGO DA SILVA FERREIRA                           20072023BRL0000000000000000000000001053970000000000476524540820072023000000000105397                                        0 0    00    BD        
0010001300102B   100038240435807                                                                                                                                                                                                                
0010001300103A0000000010697280000000322385 DIOGO RODRIGUES DE LIMA                           20072023BRL0000000000000000000000000983840000000000476524540920072023000000000098384                                        0 0    00    BD        
0010001300104B   100041099422841                                                                                                                                                                                                                
0010001300105A0000000010697280000000322393 DOUGLAS ANTONIO DE SENE JUNIOR                    20072023BRL0000000000000000000000000983840000000000476524541020072023000000000098384                                        0 0    00    BD        
0010001300106B   100048656508814                                                                                                                                                                                                                
0010001300107A0000000010697280000000322407 DOUGLAS CERQUEIRA SOUZA                           20072023BRL0000000000000000000000000983840000000000476524541120072023000000000098384                                        0 0    00    BD        
0010001300108B   100041251394825                                                                                                                                                                                                                
0010001300109A0000000010697280000000322415 DOUGLAS DA CRUZ SANTANA                           20072023BRL0000000000000000000000000983840000000000476524541220072023000000000098384                                        0 0    00    BD        
0010001300110B   100035498172826                                                                                                                                                                                                                
0010001300111A0000000010697280000000322423 ED CARLOS CAPELATI                                20072023BRL0000000000000000000000002459510000000000476524541320072023000000000245951                                        0 0    00    BD        
0010001300112B   100018559765875                                                                                                                                                                                                                
0010001300113A000000001069728000000032244X EDI CARLOS DA SILVA                               20072023BRL0000000000000000000000000983840000000000476524541420072023000000000098384                                        0 0    00    BD        
0010001300114B   100028559737839                                                                                                                                                                                                                
0010001300115A0000000010697280000000322458 EDI MOREIRA DA CONCEICAO                          20072023BRL0000000000000000000000000983840000000000476524541520072023000000000098384                                        0 0    00    BD        
0010001300116B   100028477956855                                                                                                                                                                                                                
0010001300117A0000000010697280000000322482 EDSON LAURIANO DIAS                               20072023BRL0000000000000000000000000885460000000000476524541620072023000000000088546                                        0 0    00    BD        
0010001300118B   100030227595840                                                                                                                                                                                                                
0010001300119A0000000010697280000000322490 EDUARDO DA SILVA GOMES                            20072023BRL0000000000000000000000002897170000000000476524541720072023000000000289717                                        0 0    00    BD        
0010001300120B   100034371220886                                                                                                                                                                                                                
0010001300121A0000000010697280000000322504 EGIDIO HENRIQUE DE OLIVEIRA                       20072023BRL0000000000000000000000001239950000000000476524541820072023000000000123995                                        0 0    00    BD        
0010001300122B   100028061789833                                                                                                                                                                                                                
0010001300123A0000000010697280000000322512 ELAINE SANTIAGO DOS SANTOS SIL                    20072023BRL0000000000000000000000000983840000000000476524541920072023000000000098384                                        0 0    00    BD        
0010001300124B   100035039148895                                                                                                                                                                                                                
0010001300125A0000000010697280000000322520 ELIANE ALVES DE OLIVEIRA                          20072023BRL0000000000000000000000001177640000000000476524542020072023000000000117764                                        0 0    00    BD        
0010001300126B   100030964968894                                                                                                                                                                                                                
0010001300127A0000000010697280000000322539 ELIANE APARECIDA FERNANDES                        20072023BRL0000000000000000000000000957290000000000476524542120072023000000000095729                                        0 0    00    BD        
0010001300128B   100022176418832                                                                                                                                                                                                                
0010001300129A0000000010697280000000322563 ELISANGELA DA SILVA SANTOS                        20072023BRL0000000000000000000000001087680000000000476524542220072023000000000108768                                        0 0    00    BD        
0010001300130B   100022534374842                                                                                                                                                                                                                
0010001300131A0000000010697280000000322571 ELISETE DE PAULA GOMES CARNEIR                    20072023BRL0000000000000000000000001734740000000000476524542320072023000000000173474                                        0 0    00    BD        
0010001300132B   100027778794861                                                                                                                                                                                                                
0010001300133A000000001069728000000032258X EMERSON DANTAS DE OLIVEIRA                        20072023BRL0000000000000000000000001378870000000000476524542420072023000000000137887                                        0 0    00    BD        
0010001300134B   100014302663847                                                                                                                                                                                                                
0010001300135A0000000010697280000000322598 ENEIZE DE ALMEIDA SOARES                          20072023BRL0000000000000000000000001031610000000000476524542520072023000000000103161                                        0 0    00    BD        
0010001300136B   100003388447403                                                                                                                                                                                                                
0010001300137A000000001069728000000032261X ERIVALDO LOPES DOS SANTOS                         20072023BRL0000000000000000000000000983840000000000476524542620072023000000000098384                                        0 0    00    BD        
0010001300138B   100075080630582                                                                                                                                                                                                                
0010001300139A0000000010697280000000322628 EVALDO FERREIRA DE SOUZA                          20072023BRL0000000000000000000000001499570000000000476524542720072023000000000149957                                        0 0    00    BD        
0010001300140B   100014811479866                                                                                                                                                                                                                
0010001300141A0000000010697280000000322644 EVERALDO BISPO SA                                 20072023BRL0000000000000000000000001081520000000000476524542820072023000000000108152                                        0 0    00    BD        
0010001300142B   100095659790500                                                                                                                                                                                                                
0010001300143A0000000010697280000000322652 EVERALDO DE OLIVEIRA ALVES                        20072023BRL0000000000000000000000001398210000000000476524542920072023000000000139821                                        0 0    00    BD        
0010001300144B   100014665774870                                                                                                                                                                                                                
0010001300145A0000000010697280000000322679 FABIO ALVES DA SILVA                              20072023BRL0000000000000000000000001068470000000000476524543020072023000000000106847                                        0 0    00    BD        
0010001300146B   100030230758835                                                                                                                                                                                                                
0010001300147A0000000010697280000000322687 FABIOLA EVELYN RAMOS DE CARVAL                    20072023BRL0000000000000000000000000983840000000000476524543120072023000000000098384                                        0 0    00    BD        
0010001300148B   100045330614864                                                                                                                                                                                                                
0010001300149A0000000010697280000000322695 FABRICIO BARBOZA SERAFIM                          20072023BRL0000000000000000000000000983840000000000476524543220072023000000000098384                                        0 0    00    BD        
0010001300150B   100022814985817                                                                                                                                                                                                                
0010001300151A0000000010697280000000322741 FRANCISCO DAVI SANTOS RODRIGUE                    20072023BRL0000000000000000000000001087680000000000476524543320072023000000000108768                                        0 0    00    BD        
0010001300152B   100031401920888                                                                                                                                                                                                                
0010001300153A000000001069728000000032275X FRANCISCO EDUARDO RAMOS DE PAU                    20072023BRL0000000000000000000000000983840000000000476524543420072023000000000098384                                        0 0    00    BD        
0010001300154B   100034921216835                                                                                                                                                                                                                
0010001300155A0000000010697280000000322768 FRANCISCO JONAS DA SILVA                          20072023BRL0000000000000000000000000983840000000000476524543520072023000000000098384                                        0 0    00    BD        
0010001300156B   100000877648301                                                                                                                                                                                                                
0010001300157A0000000010697280000000322776 GABRIEL ROCHA MASSOLI                             20072023BRL0000000000000000000000001107180000000000476524543620072023000000000110718                                        0 0    00    BD        
0010001300158B   100047054005856                                                                                                                                                                                                                
0010001300159A0000000010697280000000322784 GENIVALDO GOMES DE OLIVEIRA                       20072023BRL0000000000000000000000000983840000000000476524543720072023000000000098384                                        0 0    00    BD        
0010001300160B   100025648398867                                                                                                                                                                                                                
0010001300161A0000000010697280000000322806 GILSON JOSE MARTINS                               20072023BRL0000000000000000000000001112180000000000476524543820072023000000000111218                                        0 0    00    BD        
0010001300162B   100035158037850                                                                                                                                                                                                                
0010001300163A0000000010697280000000322814 GILVAN RAMOS DA CRUZ                              20072023BRL0000000000000000000000000983840000000000476524543920072023000000000098384                                        0 0    00    BD        
0010001300164B   100028612900808                                                                                                                                                                                                                
0010001300165A0000000010697280000000322822 GIOVANE DA SILVA QUILOTI                          20072023BRL0000000000000000000000000983840000000000476524544020072023000000000098384                                        0 0    00    BD        
0010001300166B   100043924841810                                                                                                                                                                                                                
0010001300167A0000000010697280000000322849 GISLENE RODRIGUES                                 20072023BRL0000000000000000000000000885460000000000476524544120072023000000000088546                                        0 0    00    BD        
0010001300168B   100025071381818                                                                                                                                                                                                                
0010001300169A0000000010697280000000322857 GRACIETE LUISA DA SILVA                           20072023BRL0000000000000000000000000983840000000000476524544220072023000000000098384                                        0 0    00    BD        
0010001300170B   100035207668846                                                                                                                                                                                                                
0010001300171A0000000010697280000000322873 GUSTAVO BARBOSA DA SILVA                          20072023BRL0000000000000000000000000983840000000000476524544320072023000000000098384                                        0 0    00    BD        
0010001300172B   100041484171870                                                                                                                                                                                                                
0010001300173A0000000010697280000000322881 GUSTAVO NOGUEIRA SANTOS                           20072023BRL0000000000000000000000001931170000000000476524544420072023000000000193117                                        0 0    00    BD        
0010001300174B   100040423325876                                                                                                                                                                                                                
0010001300175A000000001069728000000032289X GUSTAVO RAMOS FARIAS                              20072023BRL0000000000000000000000000983840000000000476524544520072023000000000098384                                        0 0    00    BD        
0010001300176B   100051068751886                                                                                                                                                                                                                
0010001300177A0000000010697280000000322903 HAMILTON PASSOS DANTAS                            20072023BRL0000000000000000000000001087680000000000476524544620072023000000000108768                                        0 0    00    BD        
0010001300178B   100028583120870                                                                                                                                                                                                                
0010001300179A0000000010697280000000322938 HUDSON DIAS DOS SANTOS                            20072023BRL0000000000000000000000001087680000000000476524544720072023000000000108768                                        0 0    00    BD        
0010001300180B   100034483253840                                                                                                                                                                                                                
0010001300181A0000000010697280000000322946 ILZA APARECIDA DIAS                               20072023BRL0000000000000000000000000983840000000000476524544820072023000000000098384                                        0 0    00    BD        
0010001300182B   100012578132852                                                                                                                                                                                                                
0010001300183A0000000010697280000000322954 IVONETE APARECIDA DOS SANTOS                      20072023BRL0000000000000000000000001205600000000000476524544920072023000000000120560                                        0 0    00    BD        
0010001300184B   100009641571877                                                                                                                                                                                                                
0010001300185A0000000010697280000000322962 JANAINA AURELIANO DA SILVA                        20072023BRL0000000000000000000000000983840000000000476524545020072023000000000098384                                        0 0    00    BD        
0010001300186B   100005940673597                                                                                                                                                                                                                
0010001300187A0000000010697280000000322970 JANIO PIRES ARAUJO                                20072023BRL0000000000000000000000000885460000000000476524545120072023000000000088546                                        0 0    00    BD        
0010001300188B   100027867054871                                                                                                                                                                                                                
0010001300189A0000000010697280000000322997 JHENIFER DE OLIVEIRA                              20072023BRL0000000000000000000000000983840000000000476524545220072023000000000098384                                        0 0    00    BD        
0010001300190B   100049555172854                                                                                                                                                                                                                
0010001300191A0000000010697280000000323004 JHONATAN SILVA                                    20072023BRL0000000000000000000000000983840000000000476524545320072023000000000098384                                        0 0    00    BD        
0010001300192B   100036310830848                                                                                                                                                                                                                
0010001300193A0000000010697280000000323020 JOAO DE OLIVEIRA                                  20072023BRL0000000000000000000000000983840000000000476524545420072023000000000098384                                        0 0    00    BD        
0010001300194B   100008829412830                                                                                                                                                                                                                
0010001300195A0000000010697280000000323039 JOAO MARCOS ROMAO DA SILVA                        20072023BRL0000000000000000000000001112670000000000476524545520072023000000000111267                                        0 0    00    BD        
0010001300196B   100010984589406                                                                                                                                                                                                                
0010001300197A0000000010697280000000323055 JOCELIO FERREIRA DA SILVA                         20072023BRL0000000000000000000000001145760000000000476524545620072023000000000114576                                        0 0    00    BD        
0010001300198B   100033822872857                                                                                                                                                                                                                
0010001300199A0000000010697280000000323063 JOCIENE DOS SANTOS SOARES RIBE                    20072023BRL0000000000000000000000000983840000000000476524545720072023000000000098384                                        0 0    00    BD        
0010001300200B   100005274797563                                                                                                                                                                                                                
0010001300201A0000000010697280000000323071 JOEL GONCALVES DOS SANTOS                         20072023BRL0000000000000000000000000983840000000000476524545820072023000000000098384                                        0 0    00    BD        
0010001300202B   100015633607805                                                                                                                                                                                                                
0010001300203A000000001069728000000032308X JOELMA BORGES DEBUS                               20072023BRL0000000000000000000000002686380000000000476524545920072023000000000268638                                        0 0    00    BD        
0010001300204B   100025562131838                                                                                                                                                                                                                
0010001300205A0000000010697280000000323098 JOHANY NASCIMENTO DA SILVA                        20072023BRL0000000000000000000000000983840000000000476524546020072023000000000098384                                        0 0    00    BD        
0010001300206B   100035402325839                                                                                                                                                                                                                
0010001300207A0000000010697280000000323128 JOSE CICERO DO NASCIMENTO                         20072023BRL0000000000000000000000001239950000000000476524546120072023000000000123995                                        0 0    00    BD        
0010001300208B   100057061637404                                                                                                                                                                                                                
0010001300209A0000000010697280000000323136 JOSE DO NASCIMENTO                                20072023BRL0000000000000000000000001186320000000000476524546220072023000000000118632                                        0 0    00    BD        
0010001300210B   100007942398897                                                                                                                                                                                                                
0010001300211A0000000010697280000000323144 JOSE EDVALDO DOS SANTOS ROCHA                     20072023BRL0000000000000000000000000983840000000000476524546320072023000000000098384                                        0 0    00    BD        
0010001300212B   100095654186434                                                                                                                                                                                                                
0010001300213A0000000010697280000000323152 JOSE GENIVAL DE SOUZA                             20072023BRL0000000000000000000000000953510000000000476524546420072023000000000095351                                        0 0    00    BD        
0010001300214B   100070798001453                                                                                                                                                                                                                
0010001300215A0000000010697280000000323160 JOSE GOMES FILHO                                  20072023BRL0000000000000000000000001254460000000000476524546520072023000000000125446                                        0 0    00    BD        
0010001300216B   100044642911472                                                                                                                                                                                                                
0010001300217A0000000010697280000000323179 JOSE LEANDRO SOARES DE OLIVEIR                    20072023BRL0000000000000000000000001087680000000000476524546620072023000000000108768                                        0 0    00    BD        
0010001300218B   100042643419812                                                                                                                                                                                                                
0010001300219A0000000010697280000000323187 JOSE MARQUES DA SILVA                             20072023BRL0000000000000000000000001766780000000000476524546720072023000000000176678                                        0 0    00    BD        
0010001300220B   100007704387847                                                                                                                                                                                                                
0010001300221A0000000010697280000000323195 JOSE WILSON JONAS DO NASCIMENT                    20072023BRL0000000000000000000000000983840000000000476524546820072023000000000098384                                        0 0    00    BD        
0010001300222B   100047455837534                                                                                                                                                                                                                
0010001300223A0000000010697280000000323209 JOSEMAR FERREIRA DOS SANTOS                       20072023BRL0000000000000000000000000983840000000000476524546920072023000000000098384                                        0 0    00    BD        
0010001300224B   100021371422877                                                                                                                                                                                                                
0010001300225A0000000010697280000000323225 JOSILMA SILVA MARTINS                             20072023BRL0000000000000000000000001087680000000000476524547020072023000000000108768                                        0 0    00    BD        
0010001300226B   100000119273306                                                                                                                                                                                                                
0010001300227A0000000010697280000000323233 JOSIMAR DOS SANTOS CAMPOS                         20072023BRL0000000000000000000000001061830000000000476524547120072023000000000106183                                        0 0    00    BD        
0010001300228B   100003224544503                                                                                                                                                                                                                
0010001300229A000000001069728000000032325X JUCELIO SANTIAGO VIANA                            20072023BRL0000000000000000000000000983840000000000476524547220072023000000000098384                                        0 0    00    BD        
0010001300230B   100042673347810                                                                                                                                                                                                                
0010001300231A0000000010697280000000323268 JURANDIR PEREIRA GOMES                            20072023BRL0000000000000000000000001087680000000000476524547320072023000000000108768                                        0 0    00    BD        
0010001300232B   100029207974843                                                                                                                                                                                                                
0010001300233A0000000010697280000000323276 KAREN GOMES DA SILVA                              20072023BRL0000000000000000000000001123930000000000476524547420072023000000000112393                                        0 0    00    BD        
0010001300234B   100043489670833                                                                                                                                                                                                                
0010001300235A0000000010697280000000323284 KARINE FARIAS NEVES                               20072023BRL0000000000000000000000003182500000000000476524547520072023000000000318250                                        0 0    00    BD        
0010001300236B   100043062315857                                                                                                                                                                                                                
0010001300237A0000000010697280000000323292 KATIA REGINA MOREIRA DE SOUZA                     20072023BRL0000000000000000000000001087680000000000476524547620072023000000000108768                                        0 0    00    BD        
0010001300238B   100018559755802                                                                                                                                                                                                                
0010001300239A0000000010697280000000323306 LAERTE MEIRELES GUERRA                            20072023BRL0000000000000000000000001802670000000000476524547720072023000000000180267                                        0 0    00    BD        
0010001300240B   100014512253858                                                                                                                                                                                                                
0010001300241A0000000010697280000000323314 LAURA KATHELLEN BONFIM MONTEIR                    20072023BRL0000000000000000000000000983130000000000476524547820072023000000000098313                                        0 0    00    BD        
0010001300242B   100051012329801                                                                                                                                                                                                                
0010001300243A0000000010697280000000323349 LEONARDO DA SILVA SILVEIRA                        20072023BRL0000000000000000000000000983840000000000476524547920072023000000000098384                                        0 0    00    BD        
0010001300244B   100032713099811                                                                                                                                                                                                                
0010001300245A0000000010697280000000323357 LEONARDO DE JESUS DINIZ                           20072023BRL0000000000000000000000000983840000000000476524548020072023000000000098384                                        0 0    00    BD        
0010001300246B   100034137837856                                                                                                                                                                                                                
0010001300247A0000000010697280000000323365 LETICIA CRISTINA DA SILVA MACI                    20072023BRL0000000000000000000000000982960000000000476524548120072023000000000098296                                        0 0    00    BD        
0010001300248B   100045041084882                                                                                                                                                                                                                
0010001300249A0000000010697280000000323373 LETICIA SILVA BARBOSA                             20072023BRL0000000000000000000000000983130000000000476524548220072023000000000098313                                        0 0    00    BD        
0010001300250B   100049837493810                                                                                                                                                                                                                
0010001300251A0000000010697280000000323381 LUCAS BATISTA GARGORIANO                          20072023BRL0000000000000000000000001189760000000000476524548320072023000000000118976                                        0 0    00    BD        
0010001300252B   100038678781882                                                                                                                                                                                                                
0010001300253A0000000010697280000000323403 LUCIANA DE CASSIA RODRIGUES PE                    20072023BRL0000000000000000000000001336520000000000476524548420072023000000000133652                                        0 0    00    BD        
0010001300254B   100025399245817                                                                                                                                                                                                                
0010001300255A0000000010697280000000323411 LUCINEIDE SILVA MOREIRA                           20072023BRL0000000000000000000000000983840000000000476524548520072023000000000098384                                        0 0    00    BD        
0010001300256B   100054267617520                                                                                                                                                                                                                
0010001300257A0000000010697280000000323446 LUIS RODRIGUES DOS SANTOS                         20072023BRL0000000000000000000000000803730000000000476524548620072023000000000080373                                        0 0    00    BD        
0010001300258B   100025254036818                                                                                                                                                                                                                
0010001300259A0000000010697280000000323454 LUIZ GONZAGA SANTOS SILVEIRA                      20072023BRL0000000000000000000000001119220000000000476524548720072023000000000111922                                        0 0    00    BD        
0010001300260B   100059907878120                                                                                                                                                                                                                
0010001300261A0000000010697280000000323462 LUIZ SILVA BASTOS                                 20072023BRL0000000000000000000000001229830000000000476524548820072023000000000122983                                        0 0    00    BD        
0010001300262B   100063848236591                                                                                                                                                                                                                
0010001300263A0000000010697280000000323470 MAGNA BARBOSA ARRUDA DE SOUSA                     20072023BRL0000000000000000000000000983840000000000476524548920072023000000000098384                                        0 0    00    BD        
0010001300264B   100017745198879                                                                                                                                                                                                                
0010001300265A0000000010697280000000323489 MAGNO DA SILVA ROCHA                              20072023BRL0000000000000000000000001306660000000000476524549020072023000000000130666                                        0 0    00    BD        
0010001300266B   100035935984857                                                                                                                                                                                                                
0010001300267A0000000010697280000000323497 MANOEL SANTANA DE LIMA                            20072023BRL0000000000000000000000001087680000000000476524549120072023000000000108768                                        0 0    00    BD        
0010001300268B   100033924933847                                                                                                                                                                                                                
0010001300269A0000000010697280000000323519 MARCELO DOS SANTOS JUNIOR                         20072023BRL0000000000000000000000001233340000000000476524549220072023000000000123334                                        0 0    00    BD        
0010001300270B   100040244530840                                                                                                                                                                                                                
0010001300271A0000000010697280000000323535 MARCIO AMARAL DE PADUA                            20072023BRL0000000000000000000000001883490000000000476524549320072023000000000188349                                        0 0    00    BD        
0010001300272B   100014515488856                                                                                                                                                                                                                
0010001300273A0000000010697280000000323551 MARCIO VITOR BATISTA                              20072023BRL0000000000000000000000001205600000000000476524549420072023000000000120560                                        0 0    00    BD        
0010001300274B   100013324731801                                                                                                                                                                                                                
0010001300275A000000001069728000000032356X MARCOS ANTONIO ROSSATI                            20072023BRL0000000000000000000000002258250000000000476524549520072023000000000225825                                        0 0    00    BD        
0010001300276B   100013441240898                                                                                                                                                                                                                
0010001300277A0000000010697280000000323586 MARIA ADRIANA DA SILVA                            20072023BRL0000000000000000000000001203380000000000476524549620072023000000000120338                                        0 0    00    BD        
0010001300278B   100030450364810                                                                                                                                                                                                                
0010001300279A0000000010697280000000323608 MARIA ANGELICA COELHO GONCALVE                    20072023BRL0000000000000000000000000983840000000000476524549720072023000000000098384                                        0 0    00    BD        
0010001300280B   100040450938859                                                                                                                                                                                                                
0010001300281A0000000010697280000000323616 MARIA APARECIDA DOS SANTOS                        20072023BRL0000000000000000000000001087680000000000476524549820072023000000000108768                                        0 0    00    BD        
0010001300282B   100009642096838                                                                                                                                                                                                                
0010001300283A0000000010697280000000323624 MARIA APARECIDA QUIRINO                           20072023BRL0000000000000000000000001241900000000000476524549920072023000000000124190                                        0 0    00    BD        
0010001300284B   100032895697809                                                                                                                                                                                                                
0010001300285A0000000010697280000000323667 MARIA DE FATIMA DA SILVA                          20072023BRL0000000000000000000000001629670000000000476524550020072023000000000162967                                        0 0    00    BD        
0010001300286B   100012516269803                                                                                                                                                                                                                
0010001300287A0000000010697280000000323675 MARIA DE FATIMA RODRIGUES DA S                    20072023BRL0000000000000000000000000983840000000000476524550120072023000000000098384                                        0 0    00    BD        
0010001300288B   100014939349888                                                                                                                                                                                                                
0010001300289A0000000010697280000000323691 MARIA GONCALVES SOARES DE ASSI                    20072023BRL0000000000000000000000000885460000000000476524550220072023000000000088546                                        0 0    00    BD        
0010001300290B   100013069589898                                                                                                                                                                                                                
0010001300291A0000000010697280000000323705 MARIA ISANETE SOARES DOS SANTO                    20072023BRL0000000000000000000000000983840000000000476524550320072023000000000098384                                        0 0    00    BD        
0010001300292B   100034449798864                                                                                                                                                                                                                
0010001300293A0000000010697280000000323713 MARIA JOSE DA SILVA                               20072023BRL0000000000000000000000000983840000000000476524550420072023000000000098384                                        0 0    00    BD        
0010001300294B   100089449622434                                                                                                                                                                                                                
0010001300295A0000000010697280000000323721 MARIA NEUSA SANTOS SENA                           20072023BRL0000000000000000000000001128980000000000476524550520072023000000000112898                                        0 0    00    BD        
0010001300296B   100014627964862                                                                                                                                                                                                                
0010001300297A0000000010697280000000323756 MARTA ALVES PEREIRA                               20072023BRL0000000000000000000000001229830000000000476524550620072023000000000122983                                        0 0    00    BD        
0010001300298B   100014515353845                                                                                                                                                                                                                
0010001300299A0000000010697280000000323764 MATEUS JOSE DA SILVA                              20072023BRL0000000000000000000000000983840000000000476524550720072023000000000098384                                        0 0    00    BD        
0010001300300B   100023847135821                                                                                                                                                                                                                
0010001300301A0000000010697280000000323780 MAURI ALVES FERREIRA                              20072023BRL0000000000000000000000000983840000000000476524550820072023000000000098384                                        0 0    00    BD        
0010001300302B   100028466609806                                                                                                                                                                                                                
0010001300303A0000000010697280000000323802 MAURO MORIYAMA                                    20072023BRL0000000000000000000000002608420000000000476524550920072023000000000260842                                        0 0    00    BD        
0010001300304B   100000162186800                                                                                                                                                                                                                
0010001300305A0000000010697280000000323829 MILENA ROSSI                                      20072023BRL0000000000000000000000001166500000000000476524551020072023000000000116650                                        0 0    00    BD        
0010001300306B   100029580663807                                                                                                                                                                                                                
0010001300307A0000000010697280000000323861 NILSON DOS SANTOS ANDRE                           20072023BRL0000000000000000000000003060170000000000476524551120072023000000000306017                                        0 0    00    BD        
0010001300308B   100011278493875                                                                                                                                                                                                                
0010001300309A000000001069728000000032387X OSMAR NERVA                                       20072023BRL0000000000000000000000001689200000000000476524551220072023000000000168920                                        0 0    00    BD        
0010001300310B   100007776256870                                                                                                                                                                                                                
0010001300311A0000000010697280000000323888 OZIEL SEVERINO DA SILVA                           20072023BRL0000000000000000000000000983840000000000476524551320072023000000000098384                                        0 0    00    BD        
0010001300312B   100014086991845                                                                                                                                                                                                                
0010001300313A0000000010697280000000323918 PAULO HENRIQUE DA SILVA                           20072023BRL0000000000000000000000001145760000000000476524551420072023000000000114576                                        0 0    00    BD        
0010001300314B   100034881998862                                                                                                                                                                                                                
0010001300315A0000000010697280000000323934 PAULO LUIZ DA SILVA                               20072023BRL0000000000000000000000000803730000000000476524551520072023000000000080373                                        0 0    00    BD        
0010001300316B   100013461202851                                                                                                                                                                                                                
0010001300317A0000000010697280000000323950 RAFAEL BARRETO DE OLIVEIRA                        20072023BRL0000000000000000000000001312560000000000476524551620072023000000000131256                                        0 0    00    BD        
0010001300318B   100005363699508                                                                                                                                                                                                                
0010001300319A0000000010697280000000323969 RAFAEL DAMACENO                                   20072023BRL0000000000000000000000000983840000000000476524551720072023000000000098384                                        0 0    00    BD        
0010001300320B   100033401789848                                                                                                                                                                                                                
0010001300321A0000000010697280000000323977 RAFAEL FERREIRA DA SILVA                          20072023BRL0000000000000000000000001137840000000000476524551820072023000000000113784                                        0 0    00    BD        
0010001300322B   100037685737884                                                                                                                                                                                                                
0010001300323A0000000010697280000000323985 RAFAEL FRAMINAN PROETTI                           20072023BRL0000000000000000000000002993480000000000476524551920072023000000000299348                                        0 0    00    BD        
0010001300324B   100040208275835                                                                                                                                                                                                                
0010001300325A0000000010697280000000323993 RAFAEL SANTOS GABRIEL                             20072023BRL0000000000000000000000001125550000000000476524552020072023000000000112555                                        0 0    00    BD        
0010001300326B   100039165071840                                                                                                                                                                                                                
0010001300327A0000000010697280000000324000 RAIMUNDO DE AQUINO SANTOS                         20072023BRL0000000000000000000000000983840000000000476524552120072023000000000098384                                        0 0    00    BD        
0010001300328B   100003219471501                                                                                                                                                                                                                
0010001300329A0000000010697280000000324019 RAUL DINIZ COSTA DE SOUZA                         20072023BRL0000000000000000000000000983840000000000476524552220072023000000000098384                                        0 0    00    BD        
0010001300330B   100016941140828                                                                                                                                                                                                                
0010001300331A0000000010697280000000324035 RENATO CHAGAS LIMA                                20072023BRL0000000000000000000000001869440000000000476524552320072023000000000186944                                        0 0    00    BD        
0010001300332B   100012778102817                                                                                                                                                                                                                
0010001300333A0000000010697280000000324043 RENE CESARIO DE OLIVEIRA                          20072023BRL0000000000000000000000001128980000000000476524552420072023000000000112898                                        0 0    00    BD        
0010001300334B   100008743396852                                                                                                                                                                                                                
0010001300335A0000000010697280000000324051 RICARDO MARQUES DA SILVA MOURA                    20072023BRL0000000000000000000000000983840000000000476524552520072023000000000098384                                        0 0    00    BD        
0010001300336B   100030081605811                                                                                                                                                                                                                
0010001300337A0000000010697280000000324086 ROBERTA VIVIAN SILVA CHIACCHIE                    20072023BRL0000000000000000000000000983840000000000476524552620072023000000000098384                                        0 0    00    BD        
0010001300338B   100022250864861                                                                                                                                                                                                                
0010001300339A0000000010697280000000324108 ROBERTO DA SILVA SOBRAL                           20072023BRL0000000000000000000000000983840000000000476524552720072023000000000098384                                        0 0    00    BD        
0010001300340B   100034639137800                                                                                                                                                                                                                
0010001300341A0000000010697280000000324116 ROBERTO JOSE DE SANTANA                           20072023BRL0000000000000000000000000983840000000000476524552820072023000000000098384                                        0 0    00    BD        
0010001300342B   100028965273897                                                                                                                                                                                                                
0010001300343A0000000010697280000000324132 RODRIGO ALVES DE SOUSA                            20072023BRL0000000000000000000000001388970000000000476524552920072023000000000138897                                        0 0    00    BD        
0010001300344B   100029052266840                                                                                                                                                                                                                
0010001300345A0000000010697280000000324140 RODRIGO MASCARENHAS REBOUCAS                      20072023BRL0000000000000000000000001876280000000000476524553020072023000000000187628                                        0 0    00    BD        
0010001300346B   100033101211867                                                                                                                                                                                                                
0010001300347A0000000010697280000000324167 RONALD DIAS PEREIRA                               20072023BRL0000000000000000000000000983840000000000476524553120072023000000000098384                                        0 0    00    BD        
0010001300348B   100045547369896                                                                                                                                                                                                                
0010001300349A0000000010697280000000324191 ROSANA DOS SANTOS SILVA                           20072023BRL0000000000000000000000000983840000000000476524553220072023000000000098384                                        0 0    00    BD        
0010001300350B   100022453783858                                                                                                                                                                                                                
0010001300351A0000000010697280000000324221 RYAN RODRIGUES ALVES                              20072023BRL0000000000000000000000000983840000000000476524553320072023000000000098384                                        0 0    00    BD        
0010001300352B   100049745357812                                                                                                                                                                                                                
0010001300353A000000001069728000000032423X SABRINA DOS SANTOS COSTA                          20072023BRL0000000000000000000000000983840000000000476524553420072023000000000098384                                        0 0    00    BD        
0010001300354B   100040986749800                                                                                                                                                                                                                
0010001300355A0000000010697280000000324248 SAMUEL MOTA DA TRINDADE                           20072023BRL0000000000000000000000001128470000000000476524553520072023000000000112847                                        0 0    00    BD        
0010001300356B   100041950940896                                                                                                                                                                                                                
0010001300357A0000000010697280000000324256 SAULO VIEIRA DE PAULA                             20072023BRL0000000000000000000000001528060000000000476524553620072023000000000152806                                        0 0    00    BD        
0010001300358B   100021295125854                                                                                                                                                                                                                
0010001300359A0000000010697280000000324272 SERGIO CRUZ DE JESUS                              20072023BRL0000000000000000000000001128980000000000476524553720072023000000000112898                                        0 0    00    BD        
0010001300360B   100061748439553                                                                                                                                                                                                                
0010001300361A0000000010697280000000324280 SERGIO MOYA MARTINS                               20072023BRL0000000000000000000000002202950000000000476524553820072023000000000220295                                        0 0    00    BD        
0010001300362B   100067387993815                                                                                                                                                                                                                
0010001300363A0000000010697280000000324299 SERGIO NAGAO                                      20072023BRL0000000000000000000000001002550000000000476524553920072023000000000100255                                        0 0    00    BD        
0010001300364B   100028518525829                                                                                                                                                                                                                
0010001300365A0000000010697280000000324302 SERGIO RIBEIRO PARAISO                            20072023BRL0000000000000000000000000983840000000000476524554020072023000000000098384                                        0 0    00    BD        
0010001300366B   100014811173864                                                                                                                                                                                                                
0010001300367A0000000010697280000000324310 SEVERINO ANTONIO DA SILVA FILH                    20072023BRL0000000000000000000000001348780000000000476524554120072023000000000134878                                        0 0    00    BD        
0010001300368B   100058687777434                                                                                                                                                                                                                
0010001300369A0000000010697280000000324329 SEVERINO BELO DA SILVA                            20072023BRL0000000000000000000000001388970000000000476524554220072023000000000138897                                        0 0    00    BD        
0010001300370B   100038434462885                                                                                                                                                                                                                
0010001300371A0000000010697280000000324361 TAIS APARECIDA DIAS DA SILVA                      20072023BRL0000000000000000000000000983840000000000476524554320072023000000000098384                                        0 0    00    BD        
0010001300372B   100039530131810                                                                                                                                                                                                                
0010001300373A000000001069728000000032437X TALITA GONCALVES DE OLIVEIRA                      20072023BRL0000000000000000000000001008690000000000476524554420072023000000000100869                                        0 0    00    BD        
0010001300374B   100009519170642                                                                                                                                                                                                                
0010001300375A0000000010697280000000324388 THAINA RODRIGUES BITENCOURT CO                    20072023BRL0000000000000000000000000983840000000000476524554520072023000000000098384                                        0 0    00    BD        
0010001300376B   100047762606890                                                                                                                                                                                                                
0010001300377A000000001069728000000032440X THIAGO DOS SANTOS FERREIRA                        20072023BRL0000000000000000000000001077650000000000476524554620072023000000000107765                                        0 0    00    BD        
0010001300378B   100031738006808                                                                                                                                                                                                                
0010001300379A0000000010697280000000324418 THIAGO TEODORO CAMPOS BARROS                      20072023BRL0000000000000000000000003522340000000000476524554720072023000000000352234                                        0 0    00    BD        
0010001300380B   100031682212874                                                                                                                                                                                                                
0010001300381A0000000010697280000000324426 TIAGO DA SILVA VASCONCELOS                        20072023BRL0000000000000000000000000939260000000000476524554820072023000000000093926                                        0 0    00    BD        
0010001300382B   100042871294828                                                                                                                                                                                                                
0010001300383A0000000010697280000000324434 TIAGO DOS REIS MARTINS                            20072023BRL0000000000000000000000000965730000000000476524554920072023000000000096573                                        0 0    00    BD        
0010001300384B   100097630047215                                                                                                                                                                                                                
0010001300385A0000000010697280000000324442 VAGNER BOLDI JUNIOR                               20072023BRL0000000000000000000000003182500000000000476524555020072023000000000318250                                        0 0    00    BD        
0010001300386B   100033671505842                                                                                                                                                                                                                
0010001300387A0000000010697280000000324477 VANDA MARIA DA SILVA LOPES                        20072023BRL0000000000000000000000001166520000000000476524555120072023000000000116652                                        0 0    00    BD        
0010001300388B   100014605355880                                                                                                                                                                                                                
0010001300389A0000000010697280000000324485 VANESSA DOS SANTOS                                20072023BRL0000000000000000000000000958110000000000476524555220072023000000000095811                                        0 0    00    BD        
0010001300390B   100029622306870                                                                                                                                                                                                                
0010001300391A0000000010697280000000324493 VANESSA DOS SANTOS SABINO                         20072023BRL0000000000000000000000000956600000000000476524555320072023000000000095660                                        0 0    00    BD        
0010001300392B   100034741098800                                                                                                                                                                                                                
0010001300393A0000000010697280000000324507 VICTORIA CAROLINA JESUS RIBEIR                    20072023BRL0000000000000000000000000983840000000000476524555420072023000000000098384                                        0 0    00    BD        
0010001300394B   100044411872897                                                                                                                                                                                                                
0010001300395A000000001069728000000032454X WAGNER MOREIRA                                    20072023BRL0000000000000000000000000983840000000000476524555520072023000000000098384                                        0 0    00    BD        
0010001300396B   100018002739833                                                                                                                                                                                                                
0010001300397A0000000010697280000000324558 WANDERLEY MAIEIRO DOS SANTOS                      20072023BRL0000000000000000000000000983840000000000476524555620072023000000000098384                                        0 0    00    BD        
0010001300398B   100014603457898                                                                                                                                                                                                                
0010001300399A0000000010697280000000324566 WANDERSON FERNANDES SOARES                        20072023BRL0000000000000000000000001082000000000000476524555720072023000000000108200                                        0 0    00    BD        
0010001300400B   100049019742892                                                                                                                                                                                                                
0010001300401A0000000010697280000000324574 WASHINGTON LEANDRO ALMEIDA DA                     20072023BRL0000000000000000000000000983840000000000476524555820072023000000000098384                                        0 0    00    BD        
0010001300402B   100043388645833                                                                                                                                                                                                                
0010001300403A0000000010697280000000324582 WILSON LOURENCO DOS SANTOS                        20072023BRL0000000000000000000000001128980000000000476524555920072023000000000112898                                        0 0    00    BD        
0010001300404B   100010047621869                                                                                                                                                                                                                
0010001300405A0000000010697280000000325791 ELIELSON SANTOS DE ARAUJO                         20072023BRL0000000000000000000000000983840000000000476524556020072023000000000098384                                        0 0    00    BD        
0010001300406B   100034326387874                                                                                                                                                                                                                
0010001300407A0000000010697280000000326631 ANDRE LUIS DA SILVA                               20072023BRL0000000000000000000000000983840000000000476524556120072023000000000098384                                        0 0    00    BD        
0010001300408B   100011559912812                                                                                                                                                                                                                
0010001300409A000000001069728000000032664X BRUNO DE ALMEIDA LANGER                           20072023BRL0000000000000000000000004495000000000000476524556220072023000000000449500                                        0 0    00    BD        
0010001300410B   100034969087857                                                                                                                                                                                                                
0010001300411A0000000010697280000000326658 JOSE ROBERTO DOS SANTOS SILVA                     20072023BRL0000000000000000000000000983840000000000476524556320072023000000000098384                                        0 0    00    BD        
0010001300412B   100086676938472                                                                                                                                                                                                                
