00100000         2462705180001460007532430126       0334800000001104950 SPAAL INDUSTRIA E COMERCIO LTDBANCO DO BRASIL S.A.                    20308202317360400101608200001201190761PREVIA                                          30          
00100011C3001042 2462705180001460007532430126       0334800000001104950 SPAAL INDUSTRIA E COMERCIO LTD                         082042013000001                              00000                                                               
0010001300001A000000001069728000000020580X DIJAELTON SOUZA SILVA                             04082023BRL0000000000000000000000000310430000000000477584398704082023000000000031043                                        0 0    00    BD        
0010001300002B   100044339295817                                                                                                                                                                                                                
0010001300003A0000000010697280000000321648 ADELINO FERREIRA DOS SANTOS                       04082023BRL0000000000000000000000001111840000000000477584398804082023000000000111184                                        0 0    00    BD        
0010001300004B   100016929425818                                                                                                                                                                                                                
0010001300005A0000000010697280000000321656 ADELMIR SERAFIM PEREIRA                           04082023BRL0000000000000000000000001215080000000000477584398904082023000000000121508                                        0 0    00    BD        
0010001300006B   100014811123840                                                                                                                                                                                                                
0010001300007A0000000010697280000000321664 ADEMILSON SANTOS PEREIRA                          04082023BRL0000000000000000000000001696360000000000477584399004082023000000000169636                                        0 0    00    BD        
0010001300008B   100016310522841                                                                                                                                                                                                                
0010001300009A0000000010697280000000321680 ADOALDO TEIXEIRA SOUZA                            04082023BRL0000000000000000000000001091980000000000477584399104082023000000000109198                                        0 0    00    BD        
0010001300010B   100060375620591                                                                                                                                                                                                                
0010001300011A0000000010697280000000321699 ADRIANA APRIGIO ANDRADE                           04082023BRL0000000000000000000000001155710000000000477584399204082023000000000115571                                        0 0    00    BD        
0010001300012B   100022574479807                                                                                                                                                                                                                
0010001300013A0000000010697280000000321702 ADRIANA DE OLIVEIRA SANTOS                        04082023BRL0000000000000000000000004276480000000000477584399304082023000000000427648                                        0 0    00    BD        
0010001300014B   100016120147802                                                                                                                                                                                                                
0010001300015A0000000010697280000000321710 ADRIANO PENEDO DA SILVA                           04082023BRL0000000000000000000000001275620000000000477584399404082023000000000127562                                        0 0    00    BD        
0010001300016B   100030620905883                                                                                                                                                                                                                
0010001300017A0000000010697280000000321729 AFONSO JOSE BEZERRA E SILVA                       04082023BRL0000000000000000000000002527730000000000477584399504082023000000000252773                                        0 0    00    BD        
0010001300018B   100004446021869                                                                                                                                                                                                                
0010001300019A0000000010697280000000321753 ALBERDAN BERTOLINO PEREIRA                        04082023BRL0000000000000000000000000482680000000000477584399604082023000000000048268                                        0 0    00    BD        
0010001300020B   100045031142391                                                                                                                                                                                                                
0010001300021A0000000010697280000000321761 ALCIDES DAKUZAKU                                  04082023BRL0000000000000000000000005330880000000000477584399704082023000000000533088                                        0 0    00    BD        
0010001300022B   100007734039812                                                                                                                                                                                                                
0010001300023A0000000010697280000000321788 ALEX BERNARDO                                     04082023BRL0000000000000000000000006252470000000000477584399804082023000000000625247                                        0 0    00    BD        
0010001300024B   100025123093800                                                                                                                                                                                                                
0010001300025A0000000010697280000000321796 ALEXANDRE FERREIRA DANTAS                         04082023BRL0000000000000000000000001485800000000000477584399904082023000000000148580                                        0 0    00    BD        
0010001300026B   100022464547867                                                                                                                                                                                                                
0010001300027A000000001069728000000032180X ALEXANDRE GERALDO SOUZA                           04082023BRL0000000000000000000000001244560000000000477584400004082023000000000124456                                        0 0    00    BD        
0010001300028B   100017749874810                                                                                                                                                                                                                
0010001300029A0000000010697280000000321818 ALEXANDRE JOSE DE SOUSA                           04082023BRL0000000000000000000000000564920000000000477584400104082023000000000056492                                        0 0    00    BD        
0010001300030B   100031381269877                                                                                                                                                                                                                
0010001300031A0000000010697280000000321826 ALZIRA MARIA ALMEIDA DOS SANTO                    04082023BRL0000000000000000000000000602560000000000477584400204082023000000000060256                                        0 0    00    BD        
0010001300032B   100028507846807                                                                                                                                                                                                                
0010001300033A0000000010697280000000321842 ANA CLAUDIA DA CONCEICAO OLIVE                    04082023BRL0000000000000000000000001014320000000000477584400304082023000000000101432                                        0 0    00    BD        
0010001300034B   100006388365493                                                                                                                                                                                                                
0010001300035A0000000010697280000000321877 ANDERSON CLEMENTINO                               04082023BRL0000000000000000000000001092200000000000477584400404082023000000000109220                                        0 0    00    BD        
0010001300036B   100033412468860                                                                                                                                                                                                                
0010001300037A0000000010697280000000321885 ANDRE EVANGELISTA BISPO                           04082023BRL0000000000000000000000001372820000000000477584400504082023000000000137282                                        0 0    00    BD        
0010001300038B   100041147729875                                                                                                                                                                                                                
0010001300039A0000000010697280000000321893 ANDREA APARECIDA MARTINS FERRE                    04082023BRL0000000000000000000000001158210000000000477584400604082023000000000115821                                        0 0    00    BD        
0010001300040B   100025307140886                                                                                                                                                                                                                
0010001300041A0000000010697280000000321931 ANNALI BARBOZA DA SILVA PEREIR                    04082023BRL0000000000000000000000000960920000000000477584400704082023000000000096092                                        0 0    00    BD        
0010001300042B   100008975255409                                                                                                                                                                                                                
0010001300043A000000001069728000000032194X ANTONIO AMARO DA SILVA                            04082023BRL0000000000000000000000000651040000000000477584400804082023000000000065104                                        0 0    00    BD        
0010001300044B   100064163210415                                                                                                                                                                                                                
0010001300045A0000000010697280000000321958 ANTONIO DE SOUZA RODRIGUES                        04082023BRL0000000000000000000000001208480000000000477584400904082023000000000120848                                        0 0    00    BD        
0010001300046B   100024666201890                                                                                                                                                                                                                
0010001300047A0000000010697280000000321974 ANTONIO IREMAR GOMES DA SILVA                     04082023BRL0000000000000000000000001373710000000000477584401004082023000000000137371                                        0 0    00    BD        
0010001300048B   100033438398842                                                                                                                                                                                                                
0010001300049A0000000010697280000000321982 ANTONIO RESENDE MARTINS                           04082023BRL0000000000000000000000001837390000000000477584401104082023000000000183739                                        0 0    00    BD        
0010001300050B   100011375952803                                                                                                                                                                                                                
0010001300051A0000000010697280000000321990 ARLETE BORGES DA SILVA                            04082023BRL0000000000000000000000000688270000000000477584401204082023000000000068827                                        0 0    00    BD        
0010001300052B   100000968885551                                                                                                                                                                                                                
0010001300053A0000000010697280000000322016 BRUNA SUELEN SOUZA CALDAS                         04082023BRL0000000000000000000000001141630000000000477584401304082023000000000114163                                        0 0    00    BD        
0010001300054B   100037822394827                                                                                                                                                                                                                
0010001300055A0000000010697280000000322024 BRUNO SALVADOR MOITINHO                           04082023BRL0000000000000000000000001257080000000000477584401404082023000000000125708                                        0 0    00    BD        
0010001300056B   100036124684802                                                                                                                                                                                                                
0010001300057A0000000010697280000000322032 CARLOS ALBERTO DE LIMA                            04082023BRL0000000000000000000000001092050000000000477584401504082023000000000109205                                        0 0    00    BD        
0010001300058B   100032598303830                                                                                                                                                                                                                
0010001300059A0000000010697280000000322040 CARLOS EDUARDO DE JESUS                           04082023BRL0000000000000000000000000899460000000000477584401604082023000000000089946                                        0 0    00    BD        
0010001300060B   100032027163875                                                                                                                                                                                                                
0010001300061A0000000010697280000000322059 CAROLINA DE SOUZA EMILIO                          04082023BRL0000000000000000000000001034580000000000477584401704082023000000000103458                                        0 0    00    BD        
0010001300062B   100033650339803                                                                                                                                                                                                                
0010001300063A0000000010697280000000322067 CAROLINA SANTANA SILVA                            04082023BRL0000000000000000000000000618730000000000477584401804082023000000000061873                                        0 0    00    BD        
0010001300064B   100031958342866                                                                                                                                                                                                                
0010001300065A0000000010697280000000322075 CAROLINE FARIAS MELO                              04082023BRL0000000000000000000000000473680000000000477584401904082023000000000047368                                        0 0    00    BD        
0010001300066B   100040388829850                                                                                                                                                                                                                
0010001300067A0000000010697280000000322091 CELIO RIBEIRO DO NASCIMENTO                       04082023BRL0000000000000000000000000671070000000000477584402004082023000000000067107                                        0 0    00    BD        
0010001300068B   100029293814854                                                                                                                                                                                                                
0010001300069A0000000010697280000000322105 CELIO TEIXEIRA SANTIAGO                           04082023BRL0000000000000000000000001334550000000000477584402104082023000000000133455                                        0 0    00    BD        
0010001300070B   100028881142830                                                                                                                                                                                                                
0010001300071A0000000010697280000000322113 CELMA NEVES SANTANA                               04082023BRL0000000000000000000000001159400000000000477584402204082023000000000115940                                        0 0    00    BD        
0010001300072B   100038087186842                                                                                                                                                                                                                
0010001300073A0000000010697280000000322121 CICERO HOLANDA DE SOUSA                           04082023BRL0000000000000000000000001006040000000000477584402304082023000000000100604                                        0 0    00    BD        
0010001300074B   100012409730809                                                                                                                                                                                                                
0010001300075A0000000010697280000000322164 CLAUDIA DA SILVA OLIVEIRA                         04082023BRL0000000000000000000000001958900000000000477584402404082023000000000195890                                        0 0    00    BD        
0010001300076B   100016869586845                                                                                                                                                                                                                
0010001300077A0000000010697280000000322172 CLAUDIA DE MOURA SAMPAIO                          04082023BRL0000000000000000000000001233270000000000477584402504082023000000000123327                                        0 0    00    BD        
0010001300078B   100026942672890                                                                                                                                                                                                                
0010001300079A0000000010697280000000322180 CLAUDIA DE OLIVEIRA DUARTE                        04082023BRL0000000000000000000000001372820000000000477584402604082023000000000137282                                        0 0    00    BD        
0010001300080B   100032672475865                                                                                                                                                                                                                
0010001300081A0000000010697280000000322199 CLAUDIA MARIA PEREIRA DA SILVA                    04082023BRL0000000000000000000000000263890000000000477584402704082023000000000026389                                        0 0    00    BD        
0010001300082B   100008391600890                                                                                                                                                                                                                
0010001300083A0000000010697280000000322202 CLAUDILENE SOARES DA SILVA                        04082023BRL0000000000000000000000000382730000000000477584402804082023000000000038273                                        0 0    00    BD        
0010001300084B   100031360379878                                                                                                                                                                                                                
0010001300085A0000000010697280000000322210 CLAUDIONOR SANT ANNA CHAVES                       04082023BRL0000000000000000000000001242710000000000477584402904082023000000000124271                                        0 0    00    BD        
0010001300086B   100016086700826                                                                                                                                                                                                                
0010001300087A0000000010697280000000322237 CLAYTON ANDRADE DOS SANTOS                        04082023BRL0000000000000000000000000129290000000000477584403004082023000000000012929                                        0 0    00    BD        
0010001300088B   100037566455842                                                                                                                                                                                                                
0010001300089A0000000010697280000000322245 CLAYTON FERREIRA DA SILVA                         04082023BRL0000000000000000000000001264070000000000477584403104082023000000000126407                                        0 0    00    BD        
0010001300090B   100027632400893                                                                                                                                                                                                                
0010001300091A0000000010697280000000322253 CLEBER PINTO ALBINO                               04082023BRL0000000000000000000000004641150000000000477584403204082023000000000464115                                        0 0    00    BD        
0010001300092B   100021276364814                                                                                                                                                                                                                
0010001300093A0000000010697280000000322261 CLEITO MARTINS DE OLIVEIRA                        04082023BRL0000000000000000000000001444230000000000477584403304082023000000000144423                                        0 0    00    BD        
0010001300094B   100020590058843                                                                                                                                                                                                                
0010001300095A000000001069728000000032227X CLEONILDA DA SILVA TEREZA                         04082023BRL0000000000000000000000000987920000000000477584403404082023000000000098792                                        0 0    00    BD        
0010001300096B   100030825909856                                                                                                                                                                                                                
0010001300097A0000000010697280000000322288 CORACI DE SOUZA FERREIRA                          04082023BRL0000000000000000000000001368010000000000477584403504082023000000000136801                                        0 0    00    BD        
0010001300098B   100000798760648                                                                                                                                                                                                                
0010001300099A0000000010697280000000322296 CREUSA PENA DE OLIVEIRA DA SIL                    04082023BRL0000000000000000000000000145130000000000477584403604082023000000000014513                                        0 0    00    BD        
0010001300100B   100008983485876                                                                                                                                                                                                                
0010001300101A000000001069728000000032230X CRISTIANE APARECIDA BARBOSA DA                    04082023BRL0000000000000000000000001062140000000000477584403704082023000000000106214                                        0 0    00    BD        
0010001300102B   100015565110866                                                                                                                                                                                                                
0010001300103A0000000010697280000000322318 CRISTIANE APARECIDA DE ANDRADE                    04082023BRL0000000000000000000000002986840000000000477584403804082023000000000298684                                        0 0    00    BD        
0010001300104B   100017708032890                                                                                                                                                                                                                
0010001300105A0000000010697280000000322326 DALVANILZA LOURENCO SILVA                         04082023BRL0000000000000000000000000614650000000000477584403904082023000000000061465                                        0 0    00    BD        
0010001300106B   100031200520866                                                                                                                                                                                                                
0010001300107A0000000010697280000000322334 DAMACIO PEREIRA ALVES                             04082023BRL0000000000000000000000001824530000000000477584404004082023000000000182453                                        0 0    00    BD        
0010001300108B   100039758494368                                                                                                                                                                                                                
0010001300109A0000000010697280000000322342 DANIEL PEREIRA RUAS                               04082023BRL0000000000000000000000000912600000000000477584404104082023000000000091260                                        0 0    00    BD        
0010001300110B   100039772339803                                                                                                                                                                                                                
0010001300111A0000000010697280000000322369 DIEGO RENAN MACHADO                               04082023BRL0000000000000000000000000348860000000000477584404204082023000000000034886                                        0 0    00    BD        
0010001300112B   100036913896867                                                                                                                                                                                                                
0010001300113A0000000010697280000000322377 DIOGO DA SILVA FERREIRA                           04082023BRL0000000000000000000000001446140000000000477584404304082023000000000144614                                        0 0    00    BD        
0010001300114B   100038240435807                                                                                                                                                                                                                
0010001300115A0000000010697280000000322385 DIOGO RODRIGUES DE LIMA                           04082023BRL0000000000000000000000001257080000000000477584404404082023000000000125708                                        0 0    00    BD        
0010001300116B   100041099422841                                                                                                                                                                                                                
0010001300117A0000000010697280000000322393 DOUGLAS ANTONIO DE SENE JUNIOR                    04082023BRL0000000000000000000000000068700000000000477584404504082023000000000006870                                        0 0    00    BD        
0010001300118B   100048656508814                                                                                                                                                                                                                
0010001300119A0000000010697280000000322407 DOUGLAS CERQUEIRA SOUZA                           04082023BRL0000000000000000000000000491790000000000477584404604082023000000000049179                                        0 0    00    BD        
0010001300120B   100041251394825                                                                                                                                                                                                                
0010001300121A0000000010697280000000322415 DOUGLAS DA CRUZ SANTANA                           04082023BRL0000000000000000000000000656820000000000477584404704082023000000000065682                                        0 0    00    BD        
0010001300122B   100035498172826                                                                                                                                                                                                                
0010001300123A0000000010697280000000322423 ED CARLOS CAPELATI                                04082023BRL0000000000000000000000001644620000000000477584404804082023000000000164462                                        0 0    00    BD        
0010001300124B   100018559765875                                                                                                                                                                                                                
0010001300125A0000000010697280000000322431 EDEMILSON MACEDO RIBEIRO                          04082023BRL0000000000000000000000000743270000000000477584404904082023000000000074327                                        0 0    00    BD        
0010001300126B   100020519988841                                                                                                                                                                                                                
0010001300127A000000001069728000000032244X EDI CARLOS DA SILVA                               04082023BRL0000000000000000000000001257080000000000477584405004082023000000000125708                                        0 0    00    BD        
0010001300128B   100028559737839                                                                                                                                                                                                                
0010001300129A0000000010697280000000322458 EDI MOREIRA DA CONCEICAO                          04082023BRL0000000000000000000000000663310000000000477584405104082023000000000066331                                        0 0    00    BD        
0010001300130B   100028477956855                                                                                                                                                                                                                
0010001300131A0000000010697280000000322474 EDLAINE CARVALHO DE SOUZA                         04082023BRL0000000000000000000000000047460000000000477584405204082023000000000004746                                        0 0    00    BD        
0010001300132B   100025458013808                                                                                                                                                                                                                
0010001300133A0000000010697280000000322482 EDSON LAURIANO DIAS                               04082023BRL0000000000000000000000000803760000000000477584405304082023000000000080376                                        0 0    00    BD        
0010001300134B   100030227595840                                                                                                                                                                                                                
0010001300135A0000000010697280000000322490 EDUARDO DA SILVA GOMES                            04082023BRL0000000000000000000000004476450000000000477584405404082023000000000447645                                        0 0    00    BD        
0010001300136B   100034371220886                                                                                                                                                                                                                
0010001300137A0000000010697280000000322504 EGIDIO HENRIQUE DE OLIVEIRA                       04082023BRL0000000000000000000000001593740000000000477584405504082023000000000159374                                        0 0    00    BD        
0010001300138B   100028061789833                                                                                                                                                                                                                
0010001300139A0000000010697280000000322512 ELAINE SANTIAGO DOS SANTOS SIL                    04082023BRL0000000000000000000000001257080000000000477584405604082023000000000125708                                        0 0    00    BD        
0010001300140B   100035039148895                                                                                                                                                                                                                
0010001300141A0000000010697280000000322520 ELIANE ALVES DE OLIVEIRA                          04082023BRL0000000000000000000000001552470000000000477584405704082023000000000155247                                        0 0    00    BD        
0010001300142B   100030964968894                                                                                                                                                                                                                
0010001300143A0000000010697280000000322539 ELIANE APARECIDA FERNANDES                        04082023BRL0000000000000000000000000478990000000000477584405804082023000000000047899                                        0 0    00    BD        
0010001300144B   100022176418832                                                                                                                                                                                                                
0010001300145A0000000010697280000000322555 ELISANGELA DA SILVA DIAS                          04082023BRL0000000000000000000000002230190000000000477584405904082023000000000223019                                        0 0    00    BD        
0010001300146B   100074358626300                                                                                                                                                                                                                
0010001300147A0000000010697280000000322563 ELISANGELA DA SILVA SANTOS                        04082023BRL0000000000000000000000001264560000000000477584406004082023000000000126456                                        0 0    00    BD        
0010001300148B   100022534374842                                                                                                                                                                                                                
0010001300149A0000000010697280000000322571 ELISETE DE PAULA GOMES CARNEIR                    04082023BRL0000000000000000000000002106520000000000477584406104082023000000000210652                                        0 0    00    BD        
0010001300150B   100027778794861                                                                                                                                                                                                                
0010001300151A000000001069728000000032258X EMERSON DANTAS DE OLIVEIRA                        04082023BRL0000000000000000000000001625100000000000477584406204082023000000000162510                                        0 0    00    BD        
0010001300152B   100014302663847                                                                                                                                                                                                                
0010001300153A0000000010697280000000322598 ENEIZE DE ALMEIDA SOARES                          04082023BRL0000000000000000000000000489280000000000477584406304082023000000000048928                                        0 0    00    BD        
0010001300154B   100003388447403                                                                                                                                                                                                                
0010001300155A000000001069728000000032261X ERIVALDO LOPES DOS SANTOS                         04082023BRL0000000000000000000000001373400000000000477584406404082023000000000137340                                        0 0    00    BD        
0010001300156B   100075080630582                                                                                                                                                                                                                
0010001300157A0000000010697280000000322628 EVALDO FERREIRA DE SOUZA                          04082023BRL0000000000000000000000002049130000000000477584406504082023000000000204913                                        0 0    00    BD        
0010001300158B   100014811479866                                                                                                                                                                                                                
0010001300159A0000000010697280000000322644 EVERALDO BISPO SA                                 04082023BRL0000000000000000000000000177060000000000477584406604082023000000000017706                                        0 0    00    BD        
0010001300160B   100095659790500                                                                                                                                                                                                                
0010001300161A0000000010697280000000322652 EVERALDO DE OLIVEIRA ALVES                        04082023BRL0000000000000000000000001921400000000000477584406704082023000000000192140                                        0 0    00    BD        
0010001300162B   100014665774870                                                                                                                                                                                                                
0010001300163A0000000010697280000000322679 FABIO ALVES DA SILVA                              04082023BRL0000000000000000000000000413050000000000477584406804082023000000000041305                                        0 0    00    BD        
0010001300164B   100030230758835                                                                                                                                                                                                                
0010001300165A0000000010697280000000322687 FABIOLA EVELYN RAMOS DE CARVAL                    04082023BRL0000000000000000000000000291550000000000477584406904082023000000000029155                                        0 0    00    BD        
0010001300166B   100045330614864                                                                                                                                                                                                                
0010001300167A0000000010697280000000322695 FABRICIO BARBOZA SERAFIM                          04082023BRL0000000000000000000000001257080000000000477584407004082023000000000125708                                        0 0    00    BD        
0010001300168B   100022814985817                                                                                                                                                                                                                
0010001300169A0000000010697280000000322717 FERNANDA MATIAS DE SOUZA                          04082023BRL0000000000000000000000000042160000000000477584407104082023000000000004216                                        0 0    00    BD        
0010001300170B   100022796437825                                                                                                                                                                                                                
0010001300171A0000000010697280000000322741 FRANCISCO DAVI SANTOS RODRIGUE                    04082023BRL0000000000000000000000000254060000000000477584407204082023000000000025406                                        0 0    00    BD        
0010001300172B   100031401920888                                                                                                                                                                                                                
0010001300173A000000001069728000000032275X FRANCISCO EDUARDO RAMOS DE PAU                    04082023BRL0000000000000000000000001132420000000000477584407304082023000000000113242                                        0 0    00    BD        
0010001300174B   100034921216835                                                                                                                                                                                                                
0010001300175A0000000010697280000000322768 FRANCISCO JONAS DA SILVA                          04082023BRL0000000000000000000000000705350000000000477584407404082023000000000070535                                        0 0    00    BD        
0010001300176B   100000877648301                                                                                                                                                                                                                
0010001300177A0000000010697280000000322776 GABRIEL ROCHA MASSOLI                             04082023BRL0000000000000000000000001156020000000000477584407504082023000000000115602                                        0 0    00    BD        
0010001300178B   100047054005856                                                                                                                                                                                                                
0010001300179A0000000010697280000000322784 GENIVALDO GOMES DE OLIVEIRA                       04082023BRL0000000000000000000000001250690000000000477584407604082023000000000125069                                        0 0    00    BD        
0010001300180B   100025648398867                                                                                                                                                                                                                
0010001300181A0000000010697280000000322792 GEOGERIS CARLIM MONTEIRO                          04082023BRL0000000000000000000000000137300000000000477584407704082023000000000013730                                        0 0    00    BD        
0010001300182B   100021891368818                                                                                                                                                                                                                
0010001300183A0000000010697280000000322806 GILSON JOSE MARTINS                               04082023BRL0000000000000000000000002159800000000000477584407804082023000000000215980                                        0 0    00    BD        
0010001300184B   100035158037850                                                                                                                                                                                                                
0010001300185A0000000010697280000000322814 GILVAN RAMOS DA CRUZ                              04082023BRL0000000000000000000000001196460000000000477584407904082023000000000119646                                        0 0    00    BD        
0010001300186B   100028612900808                                                                                                                                                                                                                
0010001300187A0000000010697280000000322822 GIOVANE DA SILVA QUILOTI                          04082023BRL0000000000000000000000000447880000000000477584408004082023000000000044788                                        0 0    00    BD        
0010001300188B   100043924841810                                                                                                                                                                                                                
0010001300189A0000000010697280000000322849 GISLENE RODRIGUES                                 04082023BRL0000000000000000000000000479790000000000477584408104082023000000000047979                                        0 0    00    BD        
0010001300190B   100025071381818                                                                                                                                                                                                                
0010001300191A0000000010697280000000322857 GRACIETE LUISA DA SILVA                           04082023BRL0000000000000000000000001195810000000000477584408204082023000000000119581                                        0 0    00    BD        
0010001300192B   100035207668846                                                                                                                                                                                                                
0010001300193A0000000010697280000000322873 GUSTAVO BARBOSA DA SILVA                          04082023BRL0000000000000000000000001117730000000000477584408304082023000000000111773                                        0 0    00    BD        
0010001300194B   100041484171870                                                                                                                                                                                                                
0010001300195A0000000010697280000000322881 GUSTAVO NOGUEIRA SANTOS                           04082023BRL0000000000000000000000002594760000000000477584408404082023000000000259476                                        0 0    00    BD        
0010001300196B   100040423325876                                                                                                                                                                                                                
0010001300197A000000001069728000000032289X GUSTAVO RAMOS FARIAS                              04082023BRL0000000000000000000000001134200000000000477584408504082023000000000113420                                        0 0    00    BD        
0010001300198B   100051068751886                                                                                                                                                                                                                
0010001300199A0000000010697280000000322903 HAMILTON PASSOS DANTAS                            04082023BRL0000000000000000000000001372820000000000477584408604082023000000000137282                                        0 0    00    BD        
0010001300200B   100028583120870                                                                                                                                                                                                                
0010001300201A0000000010697280000000322938 HUDSON DIAS DOS SANTOS                            04082023BRL0000000000000000000000000526300000000000477584408704082023000000000052630                                        0 0    00    BD        
0010001300202B   100034483253840                                                                                                                                                                                                                
0010001300203A0000000010697280000000322946 ILZA APARECIDA DIAS                               04082023BRL0000000000000000000000000313170000000000477584408804082023000000000031317                                        0 0    00    BD        
0010001300204B   100012578132852                                                                                                                                                                                                                
0010001300205A0000000010697280000000322954 IVONETE APARECIDA DOS SANTOS                      04082023BRL0000000000000000000000000504990000000000477584408904082023000000000050499                                        0 0    00    BD        
0010001300206B   100009641571877                                                                                                                                                                                                                
0010001300207A0000000010697280000000322962 JANAINA AURELIANO DA SILVA                        04082023BRL0000000000000000000000000398770000000000477584409004082023000000000039877                                        0 0    00    BD        
0010001300208B   100005940673597                                                                                                                                                                                                                
0010001300209A0000000010697280000000322970 JANIO PIRES ARAUJO                                04082023BRL0000000000000000000000000980960000000000477584409104082023000000000098096                                        0 0    00    BD        
0010001300210B   100027867054871                                                                                                                                                                                                                
0010001300211A0000000010697280000000322997 JHENIFER DE OLIVEIRA                              04082023BRL0000000000000000000000000715650000000000477584409204082023000000000071565                                        0 0    00    BD        
0010001300212B   100049555172854                                                                                                                                                                                                                
0010001300213A0000000010697280000000323004 JHONATAN SILVA                                    04082023BRL0000000000000000000000000990770000000000477584409304082023000000000099077                                        0 0    00    BD        
0010001300214B   100036310830848                                                                                                                                                                                                                
0010001300215A0000000010697280000000323020 JOAO DE OLIVEIRA                                  04082023BRL0000000000000000000000001215080000000000477584409404082023000000000121508                                        0 0    00    BD        
0010001300216B   100008829412830                                                                                                                                                                                                                
0010001300217A0000000010697280000000323039 JOAO MARCOS ROMAO DA SILVA                        04082023BRL0000000000000000000000000670240000000000477584409504082023000000000067024                                        0 0    00    BD        
0010001300218B   100010984589406                                                                                                                                                                                                                
0010001300219A0000000010697280000000323055 JOCELIO FERREIRA DA SILVA                         04082023BRL0000000000000000000000001029760000000000477584409604082023000000000102976                                        0 0    00    BD        
0010001300220B   100033822872857                                                                                                                                                                                                                
0010001300221A0000000010697280000000323063 JOCIENE DOS SANTOS SOARES RIBE                    04082023BRL0000000000000000000000001092140000000000477584409704082023000000000109214                                        0 0    00    BD        
0010001300222B   100005274797563                                                                                                                                                                                                                
0010001300223A0000000010697280000000323071 JOEL GONCALVES DOS SANTOS                         04082023BRL0000000000000000000000001257080000000000477584409804082023000000000125708                                        0 0    00    BD        
0010001300224B   100015633607805                                                                                                                                                                                                                
0010001300225A0000000010697280000000323098 JOHANY NASCIMENTO DA SILVA                        04082023BRL0000000000000000000000000684700000000000477584409904082023000000000068470                                        0 0    00    BD        
0010001300226B   100035402325839                                                                                                                                                                                                                
0010001300227A0000000010697280000000323128 JOSE CICERO DO NASCIMENTO                         04082023BRL0000000000000000000000001555050000000000477584410004082023000000000155505                                        0 0    00    BD        
0010001300228B   100057061637404                                                                                                                                                                                                                
0010001300229A0000000010697280000000323136 JOSE DO NASCIMENTO                                04082023BRL0000000000000000000000000850150000000000477584410104082023000000000085015                                        0 0    00    BD        
0010001300230B   100007942398897                                                                                                                                                                                                                
0010001300231A0000000010697280000000323144 JOSE EDVALDO DOS SANTOS ROCHA                     04082023BRL0000000000000000000000001757080000000000477584410204082023000000000175708                                        0 0    00    BD        
0010001300232B   100095654186434                                                                                                                                                                                                                
0010001300233A0000000010697280000000323152 JOSE GENIVAL DE SOUZA                             04082023BRL0000000000000000000000001092200000000000477584410304082023000000000109220                                        0 0    00    BD        
0010001300234B   100070798001453                                                                                                                                                                                                                
0010001300235A0000000010697280000000323160 JOSE GOMES FILHO                                  04082023BRL0000000000000000000000000500410000000000477584410404082023000000000050041                                        0 0    00    BD        
0010001300236B   100044642911472                                                                                                                                                                                                                
0010001300237A0000000010697280000000323179 JOSE LEANDRO SOARES DE OLIVEIR                    04082023BRL0000000000000000000000001372820000000000477584410504082023000000000137282                                        0 0    00    BD        
0010001300238B   100042643419812                                                                                                                                                                                                                
0010001300239A0000000010697280000000323187 JOSE MARQUES DA SILVA                             04082023BRL0000000000000000000000002262240000000000477584410604082023000000000226224                                        0 0    00    BD        
0010001300240B   100007704387847                                                                                                                                                                                                                
0010001300241A0000000010697280000000323195 JOSE WILSON JONAS DO NASCIMENT                    04082023BRL0000000000000000000000001215080000000000477584410704082023000000000121508                                        0 0    00    BD        
0010001300242B   100047455837534                                                                                                                                                                                                                
0010001300243A0000000010697280000000323209 JOSEMAR FERREIRA DOS SANTOS                       04082023BRL0000000000000000000000000771470000000000477584410804082023000000000077147                                        0 0    00    BD        
0010001300244B   100021371422877                                                                                                                                                                                                                
0010001300245A0000000010697280000000323217 JOSENALDO SOUZA TEIXEIRA                          04082023BRL0000000000000000000000000106520000000000477584410904082023000000000010652                                        0 0    00    BD        
0010001300246B   100010350958823                                                                                                                                                                                                                
0010001300247A0000000010697280000000323225 JOSILMA SILVA MARTINS                             04082023BRL0000000000000000000000001102130000000000477584411004082023000000000110213                                        0 0    00    BD        
0010001300248B   100000119273306                                                                                                                                                                                                                
0010001300249A0000000010697280000000323233 JOSIMAR DOS SANTOS CAMPOS                         04082023BRL0000000000000000000000001017530000000000477584411104082023000000000101753                                        0 0    00    BD        
0010001300250B   100003224544503                                                                                                                                                                                                                
0010001300251A0000000010697280000000323241 JUAN PABLO NEVES SANTOS                           04082023BRL0000000000000000000000000152980000000000477584411204082023000000000015298                                        0 0    00    BD        
0010001300252B   100052257841867                                                                                                                                                                                                                
0010001300253A000000001069728000000032325X JUCELIO SANTIAGO VIANA                            04082023BRL0000000000000000000000000714600000000000477584411304082023000000000071460                                        0 0    00    BD        
0010001300254B   100042673347810                                                                                                                                                                                                                
0010001300255A0000000010697280000000323268 JURANDIR PEREIRA GOMES                            04082023BRL0000000000000000000000000500510000000000477584411404082023000000000050051                                        0 0    00    BD        
0010001300256B   100029207974843                                                                                                                                                                                                                
0010001300257A0000000010697280000000323276 KAREN GOMES DA SILVA                              04082023BRL0000000000000000000000001385250000000000477584411504082023000000000138525                                        0 0    00    BD        
0010001300258B   100043489670833                                                                                                                                                                                                                
0010001300259A0000000010697280000000323284 KARINE FARIAS NEVES                               04082023BRL0000000000000000000000003188750000000000477584411604082023000000000318875                                        0 0    00    BD        
0010001300260B   100043062315857                                                                                                                                                                                                                
0010001300261A0000000010697280000000323292 KATIA REGINA MOREIRA DE SOUZA                     04082023BRL0000000000000000000000001344460000000000477584411704082023000000000134446                                        0 0    00    BD        
0010001300262B   100018559755802                                                                                                                                                                                                                
0010001300263A0000000010697280000000323306 LAERTE MEIRELES GUERRA                            04082023BRL0000000000000000000000001277820000000000477584411804082023000000000127782                                        0 0    00    BD        
0010001300264B   100014512253858                                                                                                                                                                                                                
0010001300265A0000000010697280000000323314 LAURA KATHELLEN BONFIM MONTEIR                    04082023BRL0000000000000000000000000596080000000000477584411904082023000000000059608                                        0 0    00    BD        
0010001300266B   100051012329801                                                                                                                                                                                                                
0010001300267A0000000010697280000000323322 LEANDRO CRUZ DE JESUS                             04082023BRL0000000000000000000000000202680000000000477584412004082023000000000020268                                        0 0    00    BD        
0010001300268B   100036669550880                                                                                                                                                                                                                
0010001300269A0000000010697280000000323349 LEONARDO DA SILVA SILVEIRA                        04082023BRL0000000000000000000000000350310000000000477584412104082023000000000035031                                        0 0    00    BD        
0010001300270B   100032713099811                                                                                                                                                                                                                
0010001300271A0000000010697280000000323357 LEONARDO DE JESUS DINIZ                           04082023BRL0000000000000000000000000179650000000000477584412204082023000000000017965                                        0 0    00    BD        
0010001300272B   100034137837856                                                                                                                                                                                                                
0010001300273A0000000010697280000000323365 LETICIA CRISTINA DA SILVA MACI                    04082023BRL0000000000000000000000000739180000000000477584412304082023000000000073918                                        0 0    00    BD        
0010001300274B   100045041084882                                                                                                                                                                                                                
0010001300275A0000000010697280000000323373 LETICIA SILVA BARBOSA                             04082023BRL0000000000000000000000001171710000000000477584412404082023000000000117171                                        0 0    00    BD        
0010001300276B   100049837493810                                                                                                                                                                                                                
0010001300277A0000000010697280000000323381 LUCAS BATISTA GARGORIANO                          04082023BRL0000000000000000000000001240800000000000477584412504082023000000000124080                                        0 0    00    BD        
0010001300278B   100038678781882                                                                                                                                                                                                                
0010001300279A000000001069728000000032339X LUCAS SANTOS ROCHA DE SOUSA                       04082023BRL0000000000000000000000001807450000000000477584412604082023000000000180745                                        0 0    00    BD        
0010001300280B   100031899787860                                                                                                                                                                                                                
0010001300281A0000000010697280000000323403 LUCIANA DE CASSIA RODRIGUES PE                    04082023BRL0000000000000000000000001761350000000000477584412704082023000000000176135                                        0 0    00    BD        
0010001300282B   100025399245817                                                                                                                                                                                                                
0010001300283A0000000010697280000000323411 LUCINEIDE SILVA MOREIRA                           04082023BRL0000000000000000000000000998960000000000477584412804082023000000000099896                                        0 0    00    BD        
0010001300284B   100054267617520                                                                                                                                                                                                                
0010001300285A000000001069728000000032342X LUIS FELIPE DE SOUZA                              04082023BRL0000000000000000000000000518410000000000477584412904082023000000000051841                                        0 0    00    BD        
0010001300286B   100033180949864                                                                                                                                                                                                                
0010001300287A0000000010697280000000323438 LUIS FERNANDO TELES SILVA                         04082023BRL0000000000000000000000000129290000000000477584413004082023000000000012929                                        0 0    00    BD        
0010001300288B   100022459524803                                                                                                                                                                                                                
0010001300289A0000000010697280000000323454 LUIZ GONZAGA SANTOS SILVEIRA                      04082023BRL0000000000000000000000000523870000000000477584413104082023000000000052387                                        0 0    00    BD        
0010001300290B   100059907878120                                                                                                                                                                                                                
0010001300291A0000000010697280000000323462 LUIZ SILVA BASTOS                                 04082023BRL0000000000000000000000001634280000000000477584413204082023000000000163428                                        0 0    00    BD        
0010001300292B   100063848236591                                                                                                                                                                                                                
0010001300293A0000000010697280000000323470 MAGNA BARBOSA ARRUDA DE SOUSA                     04082023BRL0000000000000000000000000843960000000000477584413304082023000000000084396                                        0 0    00    BD        
0010001300294B   100017745198879                                                                                                                                                                                                                
0010001300295A0000000010697280000000323489 MAGNO DA SILVA ROCHA                              04082023BRL0000000000000000000000001417060000000000477584413404082023000000000141706                                        0 0    00    BD        
0010001300296B   100035935984857                                                                                                                                                                                                                
0010001300297A0000000010697280000000323497 MANOEL SANTANA DE LIMA                            04082023BRL0000000000000000000000000916700000000000477584413504082023000000000091670                                        0 0    00    BD        
0010001300298B   100033924933847                                                                                                                                                                                                                
0010001300299A0000000010697280000000323500 MARCELO ALVES MENDES                              04082023BRL0000000000000000000000000965410000000000477584413604082023000000000096541                                        0 0    00    BD        
0010001300300B   100029450006873                                                                                                                                                                                                                
0010001300301A0000000010697280000000323519 MARCELO DOS SANTOS JUNIOR                         04082023BRL0000000000000000000000001586380000000000477584413704082023000000000158638                                        0 0    00    BD        
0010001300302B   100040244530840                                                                                                                                                                                                                
0010001300303A0000000010697280000000323535 MARCIO AMARAL DE PADUA                            04082023BRL0000000000000000000000002246680000000000477584413804082023000000000224668                                        0 0    00    BD        
0010001300304B   100014515488856                                                                                                                                                                                                                
0010001300305A0000000010697280000000323551 MARCIO VITOR BATISTA                              04082023BRL0000000000000000000000001426660000000000477584413904082023000000000142666                                        0 0    00    BD        
0010001300306B   100013324731801                                                                                                                                                                                                                
0010001300307A000000001069728000000032356X MARCOS ANTONIO ROSSATI                            04082023BRL0000000000000000000000003232680000000000477584414004082023000000000323268                                        0 0    00    BD        
0010001300308B   100013441240898                                                                                                                                                                                                                
0010001300309A0000000010697280000000323586 MARIA ADRIANA DA SILVA                            04082023BRL0000000000000000000000001511600000000000477584414104082023000000000151160                                        0 0    00    BD        
0010001300310B   100030450364810                                                                                                                                                                                                                
0010001300311A0000000010697280000000323594 MARIA ALDENORA CRUZ SANTANA                       04082023BRL0000000000000000000000000779650000000000477584414204082023000000000077965                                        0 0    00    BD        
0010001300312B   100025021662848                                                                                                                                                                                                                
0010001300313A0000000010697280000000323608 MARIA ANGELICA COELHO GONCALVE                    04082023BRL0000000000000000000000001090640000000000477584414304082023000000000109064                                        0 0    00    BD        
0010001300314B   100040450938859                                                                                                                                                                                                                
0010001300315A0000000010697280000000323616 MARIA APARECIDA DOS SANTOS                        04082023BRL0000000000000000000000001310400000000000477584414404082023000000000131040                                        0 0    00    BD        
0010001300316B   100009642096838                                                                                                                                                                                                                
0010001300317A0000000010697280000000323624 MARIA APARECIDA QUIRINO                           04082023BRL0000000000000000000000001712420000000000477584414504082023000000000171242                                        0 0    00    BD        
0010001300318B   100032895697809                                                                                                                                                                                                                
0010001300319A0000000010697280000000323632 MARIA APARECIDA SILVA DE OLIVE                    04082023BRL0000000000000000000000000540040000000000477584414604082023000000000054004                                        0 0    00    BD        
0010001300320B   100010046663819                                                                                                                                                                                                                
0010001300321A0000000010697280000000323659 MARIA CUSTODIO SILVA DOS REIS                     04082023BRL0000000000000000000000000760820000000000477584414704082023000000000076082                                        0 0    00    BD        
0010001300322B   100089419510387                                                                                                                                                                                                                
0010001300323A0000000010697280000000323667 MARIA DE FATIMA DA SILVA                          04082023BRL0000000000000000000000001238010000000000477584414804082023000000000123801                                        0 0    00    BD        
0010001300324B   100012516269803                                                                                                                                                                                                                
0010001300325A0000000010697280000000323675 MARIA DE FATIMA RODRIGUES DA S                    04082023BRL0000000000000000000000001092200000000000477584414904082023000000000109220                                        0 0    00    BD        
0010001300326B   100014939349888                                                                                                                                                                                                                
0010001300327A0000000010697280000000323691 MARIA GONCALVES SOARES DE ASSI                    04082023BRL0000000000000000000000000956650000000000477584415004082023000000000095665                                        0 0    00    BD        
0010001300328B   100013069589898                                                                                                                                                                                                                
0010001300329A0000000010697280000000323705 MARIA ISANETE SOARES DOS SANTO                    04082023BRL0000000000000000000000001257080000000000477584415104082023000000000125708                                        0 0    00    BD        
0010001300330B   100034449798864                                                                                                                                                                                                                
0010001300331A0000000010697280000000323713 MARIA JOSE DA SILVA                               04082023BRL0000000000000000000000001081970000000000477584415204082023000000000108197                                        0 0    00    BD        
0010001300332B   100089449622434                                                                                                                                                                                                                
0010001300333A0000000010697280000000323721 MARIA NEUSA SANTOS SENA                           04082023BRL0000000000000000000000001316100000000000477584415304082023000000000131610                                        0 0    00    BD        
0010001300334B   100014627964862                                                                                                                                                                                                                
0010001300335A000000001069728000000032373X MARIA QUITERIA LIMA                               04082023BRL0000000000000000000000000656990000000000477584415404082023000000000065699                                        0 0    00    BD        
0010001300336B   100070770824587                                                                                                                                                                                                                
0010001300337A0000000010697280000000323756 MARTA ALVES PEREIRA                               04082023BRL0000000000000000000000001372300000000000477584415504082023000000000137230                                        0 0    00    BD        
0010001300338B   100014515353845                                                                                                                                                                                                                
0010001300339A0000000010697280000000323764 MATEUS JOSE DA SILVA                              04082023BRL0000000000000000000000001173580000000000477584415604082023000000000117358                                        0 0    00    BD        
0010001300340B   100023847135821                                                                                                                                                                                                                
0010001300341A0000000010697280000000323780 MAURI ALVES FERREIRA                              04082023BRL0000000000000000000000000900240000000000477584415704082023000000000090024                                        0 0    00    BD        
0010001300342B   100028466609806                                                                                                                                                                                                                
0010001300343A0000000010697280000000323799 MAURILIO SOARES DE SOUZA                          04082023BRL0000000000000000000000001501230000000000477584415804082023000000000150123                                        0 0    00    BD        
0010001300344B   100034534565801                                                                                                                                                                                                                
0010001300345A0000000010697280000000323802 MAURO MORIYAMA                                    04082023BRL0000000000000000000000003979810000000000477584415904082023000000000397981                                        0 0    00    BD        
0010001300346B   100000162186800                                                                                                                                                                                                                
0010001300347A0000000010697280000000323829 MILENA ROSSI                                      04082023BRL0000000000000000000000000765870000000000477584416004082023000000000076587                                        0 0    00    BD        
0010001300348B   100029580663807                                                                                                                                                                                                                
0010001300349A0000000010697280000000323837 MOISES GONCALVES LIMA                             04082023BRL0000000000000000000000000868400000000000477584416104082023000000000086840                                        0 0    00    BD        
0010001300350B   100035565631858                                                                                                                                                                                                                
0010001300351A0000000010697280000000323861 NILSON DOS SANTOS ANDRE                           04082023BRL0000000000000000000000004644080000000000477584416204082023000000000464408                                        0 0    00    BD        
0010001300352B   100011278493875                                                                                                                                                                                                                
0010001300353A000000001069728000000032387X OSMAR NERVA                                       04082023BRL0000000000000000000000002311690000000000477584416304082023000000000231169                                        0 0    00    BD        
0010001300354B   100007776256870                                                                                                                                                                                                                
0010001300355A0000000010697280000000323888 OZIEL SEVERINO DA SILVA                           04082023BRL0000000000000000000000001257080000000000477584416404082023000000000125708                                        0 0    00    BD        
0010001300356B   100014086991845                                                                                                                                                                                                                
0010001300357A0000000010697280000000323896 PALOMA FERNANDES DA SILVA                         04082023BRL0000000000000000000000000091750000000000477584416504082023000000000009175                                        0 0    00    BD        
0010001300358B   100034359413831                                                                                                                                                                                                                
0010001300359A0000000010697280000000323918 PAULO HENRIQUE DA SILVA                           04082023BRL0000000000000000000000001419560000000000477584416604082023000000000141956                                        0 0    00    BD        
0010001300360B   100034881998862                                                                                                                                                                                                                
0010001300361A0000000010697280000000323934 PAULO LUIZ DA SILVA                               04082023BRL0000000000000000000000000805900000000000477584416704082023000000000080590                                        0 0    00    BD        
0010001300362B   100013461202851                                                                                                                                                                                                                
0010001300363A0000000010697280000000323950 RAFAEL BARRETO DE OLIVEIRA                        04082023BRL0000000000000000000000001502800000000000477584416804082023000000000150280                                        0 0    00    BD        
0010001300364B   100005363699508                                                                                                                                                                                                                
0010001300365A0000000010697280000000323969 RAFAEL DAMACENO                                   04082023BRL0000000000000000000000001257080000000000477584416904082023000000000125708                                        0 0    00    BD        
0010001300366B   100033401789848                                                                                                                                                                                                                
0010001300367A0000000010697280000000323977 RAFAEL FERREIRA DA SILVA                          04082023BRL0000000000000000000000001433430000000000477584417004082023000000000143343                                        0 0    00    BD        
0010001300368B   100037685737884                                                                                                                                                                                                                
0010001300369A0000000010697280000000323985 RAFAEL FRAMINAN PROETTI                           04082023BRL0000000000000000000000009712290000000000477584417104082023000000000971229                                        0 0    00    BD        
0010001300370B   100040208275835                                                                                                                                                                                                                
0010001300371A0000000010697280000000323993 RAFAEL SANTOS GABRIEL                             04082023BRL0000000000000000000000001453850000000000477584417204082023000000000145385                                        0 0    00    BD        
0010001300372B   100039165071840                                                                                                                                                                                                                
0010001300373A0000000010697280000000324000 RAIMUNDO DE AQUINO SANTOS                         04082023BRL0000000000000000000000000682310000000000477584417304082023000000000068231                                        0 0    00    BD        
0010001300374B   100003219471501                                                                                                                                                                                                                
0010001300375A0000000010697280000000324019 RAUL DINIZ COSTA DE SOUZA                         04082023BRL0000000000000000000000001257080000000000477584417404082023000000000125708                                        0 0    00    BD        
0010001300376B   100016941140828                                                                                                                                                                                                                
0010001300377A0000000010697280000000324035 RENATO CHAGAS LIMA                                04082023BRL0000000000000000000000002840790000000000477584417504082023000000000284079                                        0 0    00    BD        
0010001300378B   100012778102817                                                                                                                                                                                                                
0010001300379A0000000010697280000000324043 RENE CESARIO DE OLIVEIRA                          04082023BRL0000000000000000000000001348220000000000477584417604082023000000000134822                                        0 0    00    BD        
0010001300380B   100008743396852                                                                                                                                                                                                                
0010001300381A0000000010697280000000324051 RICARDO MARQUES DA SILVA MOURA                    04082023BRL0000000000000000000000000273490000000000477584417704082023000000000027349                                        0 0    00    BD        
0010001300382B   100030081605811                                                                                                                                                                                                                
0010001300383A0000000010697280000000324086 ROBERTA VIVIAN SILVA CHIACCHIE                    04082023BRL0000000000000000000000000927410000000000477584417804082023000000000092741                                        0 0    00    BD        
0010001300384B   100022250864861                                                                                                                                                                                                                
0010001300385A0000000010697280000000324108 ROBERTO DA SILVA SOBRAL                           04082023BRL0000000000000000000000001160160000000000477584417904082023000000000116016                                        0 0    00    BD        
0010001300386B   100034639137800                                                                                                                                                                                                                
0010001300387A0000000010697280000000324116 ROBERTO JOSE DE SANTANA                           04082023BRL0000000000000000000000001081900000000000477584418004082023000000000108190                                        0 0    00    BD        
0010001300388B   100028965273897                                                                                                                                                                                                                
0010001300389A0000000010697280000000324124 ROBSON SANTANA LUZ                                04082023BRL0000000000000000000000001751010000000000477584418104082023000000000175101                                        0 0    00    BD        
0010001300390B   100033842577826                                                                                                                                                                                                                
0010001300391A0000000010697280000000324132 RODRIGO ALVES DE SOUSA                            04082023BRL0000000000000000000000001665440000000000477584418204082023000000000166544                                        0 0    00    BD        
0010001300392B   100029052266840                                                                                                                                                                                                                
0010001300393A0000000010697280000000324140 RODRIGO MASCARENHAS REBOUCAS                      04082023BRL0000000000000000000000001305230000000000477584418304082023000000000130523                                        0 0    00    BD        
0010001300394B   100033101211867                                                                                                                                                                                                                
0010001300395A0000000010697280000000324167 RONALD DIAS PEREIRA                               04082023BRL0000000000000000000000001239880000000000477584418404082023000000000123988                                        0 0    00    BD        
0010001300396B   100045547369896                                                                                                                                                                                                                
0010001300397A0000000010697280000000324175 RONALDO SOUZA PEREIRA                             04082023BRL0000000000000000000000000802240000000000477584418504082023000000000080224                                        0 0    00    BD        
0010001300398B   100088483770504                                                                                                                                                                                                                
0010001300399A0000000010697280000000324183 ROSANA DA SILVA PASSOS                            04082023BRL0000000000000000000000001428640000000000477584418604082023000000000142864                                        0 0    00    BD        
0010001300400B   100016811193824                                                                                                                                                                                                                
0010001300401A0000000010697280000000324191 ROSANA DOS SANTOS SILVA                           04082023BRL0000000000000000000000001134200000000000477584418704082023000000000113420                                        0 0    00    BD        
0010001300402B   100022453783858                                                                                                                                                                                                                
0010001300403A0000000010697280000000324221 RYAN RODRIGUES ALVES                              04082023BRL0000000000000000000000001224210000000000477584418804082023000000000122421                                        0 0    00    BD        
0010001300404B   100049745357812                                                                                                                                                                                                                
0010001300405A000000001069728000000032423X SABRINA DOS SANTOS COSTA                          04082023BRL0000000000000000000000000231710000000000477584418904082023000000000023171                                        0 0    00    BD        
0010001300406B   100040986749800                                                                                                                                                                                                                
0010001300407A0000000010697280000000324248 SAMUEL MOTA DA TRINDADE                           04082023BRL0000000000000000000000001364130000000000477584419004082023000000000136413                                        0 0    00    BD        
0010001300408B   100041950940896                                                                                                                                                                                                                
0010001300409A0000000010697280000000324256 SAULO VIEIRA DE PAULA                             04082023BRL0000000000000000000000001878520000000000477584419104082023000000000187852                                        0 0    00    BD        
0010001300410B   100021295125854                                                                                                                                                                                                                
0010001300411A0000000010697280000000324264 SEBASTIAO HELIO DA SILVA                          04082023BRL0000000000000000000000001227060000000000477584419204082023000000000122706                                        0 0    00    BD        
0010001300412B   100063443252834                                                                                                                                                                                                                
