00100000         2462705180001460007532430126       0334800000001104950 SPAAL INDUSTRIA E COMERCIO LTDBANCO DO BRASIL S.A.                    21708202317003300103408200001201190761PREVIA                                          30          
00100011C3001042 2462705180001460007532430126       0334800000001104950 SPAAL INDUSTRIA E COMERCIO LTD                         082042013000001                              00000                                                               
0010001300001A0000000010697280000000321656 ADELMIR SERAFIM PEREIRA                           18082023BRL0000000000000000000000000983840000000000477982680218082023000000000098384                                        0 0    00    BD        
0010001300002B   100014811123840                                                                                                                                                                                                                
0010001300003A0000000010697280000000321664 ADEMILSON SANTOS PEREIRA                          18082023BRL0000000000000000000000001328410000000000477982680318082023000000000132841                                        0 0    00    BD        
0010001300004B   100016310522841                                                                                                                                                                                                                
0010001300005A0000000010697280000000321680 ADOALDO TEIXEIRA SOUZA                            18082023BRL0000000000000000000000000983840000000000477982680418082023000000000098384                                        0 0    00    BD        
0010001300006B   100060375620591                                                                                                                                                                                                                
0010001300007A0000000010697280000000321699 ADRIANA APRIGIO ANDRADE                           18082023BRL0000000000000000000000001069970000000000477982680518082023000000000106997                                        0 0    00    BD        
0010001300008B   100022574479807                                                                                                                                                                                                                
0010001300009A0000000010697280000000321702 ADRIANA DE OLIVEIRA SANTOS                        18082023BRL0000000000000000000000002727120000000000477982680618082023000000000272712                                        0 0    00    BD        
0010001300010B   100016120147802                                                                                                                                                                                                                
0010001300011A0000000010697280000000321710 ADRIANO PENEDO DA SILVA                           18082023BRL0000000000000000000000001784520000000000477982680718082023000000000178452                                        0 0    00    BD        
0010001300012B   100030620905883                                                                                                                                                                                                                
0010001300013A0000000010697280000000321729 AFONSO JOSE BEZERRA E SILVA                       18082023BRL0000000000000000000000001738120000000000477982680818082023000000000173812                                        0 0    00    BD        
0010001300014B   100004446021869                                                                                                                                                                                                                
0010001300015A0000000010697280000000321745 ALAIR JORGE DE ANDRADE                            18082023BRL0000000000000000000000001269840000000000477982680918082023000000000126984                                        0 0    00    BD        
0010001300016B   100014617143890                                                                                                                                                                                                                
0010001300017A0000000010697280000000321753 ALBERDAN BERTOLINO PEREIRA                        18082023BRL0000000000000000000000000983840000000000477982681018082023000000000098384                                        0 0    00    BD        
0010001300018B   100045031142391                                                                                                                                                                                                                
0010001300019A0000000010697280000000321761 ALCIDES DAKUZAKU                                  18082023BRL0000000000000000000000003478580000000000477982681118082023000000000347858                                        0 0    00    BD        
0010001300020B   100007734039812                                                                                                                                                                                                                
0010001300021A0000000010697280000000321788 ALEX BERNARDO                                     18082023BRL0000000000000000000000004023450000000000477982681218082023000000000402345                                        0 0    00    BD        
0010001300022B   100025123093800                                                                                                                                                                                                                
0010001300023A0000000010697280000000321796 ALEXANDRE FERREIRA DANTAS                         18082023BRL0000000000000000000000001110350000000000477982681318082023000000000111035                                        0 0    00    BD        
0010001300024B   100022464547867                                                                                                                                                                                                                
0010001300025A000000001069728000000032180X ALEXANDRE GERALDO SOUZA                           18082023BRL0000000000000000000000000983840000000000477982681418082023000000000098384                                        0 0    00    BD        
0010001300026B   100017749874810                                                                                                                                                                                                                
0010001300027A0000000010697280000000321818 ALEXANDRE JOSE DE SOUSA                           18082023BRL0000000000000000000000000983840000000000477982681518082023000000000098384                                        0 0    00    BD        
0010001300028B   100031381269877                                                                                                                                                                                                                
0010001300029A0000000010697280000000321826 ALZIRA MARIA ALMEIDA DOS SANTO                    18082023BRL0000000000000000000000000983840000000000477982681618082023000000000098384                                        0 0    00    BD        
0010001300030B   100028507846807                                                                                                                                                                                                                
0010001300031A0000000010697280000000321842 ANA CLAUDIA DA CONCEICAO OLIVE                    18082023BRL0000000000000000000000000983840000000000477982681718082023000000000098384                                        0 0    00    BD        
0010001300032B   100006388365493                                                                                                                                                                                                                
0010001300033A0000000010697280000000321850 ANA PAULA DE OLIVEIRA                             18082023BRL0000000000000000000000000983840000000000477982681818082023000000000098384                                        0 0    00    BD        
0010001300034B   100029681002890                                                                                                                                                                                                                
0010001300035A0000000010697280000000321877 ANDERSON CLEMENTINO                               18082023BRL0000000000000000000000000983840000000000477982681918082023000000000098384                                        0 0    00    BD        
0010001300036B   100033412468860                                                                                                                                                                                                                
0010001300037A0000000010697280000000321885 ANDRE EVANGELISTA BISPO                           18082023BRL0000000000000000000000001087680000000000477982682018082023000000000108768                                        0 0    00    BD        
0010001300038B   100041147729875                                                                                                                                                                                                                
0010001300039A0000000010697280000000321893 ANDREA APARECIDA MARTINS FERRE                    18082023BRL0000000000000000000000000983840000000000477982682118082023000000000098384                                        0 0    00    BD        
0010001300040B   100025307140886                                                                                                                                                                                                                
0010001300041A0000000010697280000000321931 ANNALI BARBOZA DA SILVA PEREIR                    18082023BRL0000000000000000000000000983840000000000477982682218082023000000000098384                                        0 0    00    BD        
0010001300042B   100008975255409                                                                                                                                                                                                                
0010001300043A000000001069728000000032194X ANTONIO AMARO DA SILVA                            18082023BRL0000000000000000000000001205600000000000477982682318082023000000000120560                                        0 0    00    BD        
0010001300044B   100064163210415                                                                                                                                                                                                                
0010001300045A0000000010697280000000321958 ANTONIO DE SOUZA RODRIGUES                        18082023BRL0000000000000000000000000983840000000000477982682418082023000000000098384                                        0 0    00    BD        
0010001300046B   100024666201890                                                                                                                                                                                                                
0010001300047A0000000010697280000000321966 ANTONIO HERBAS SARMIENTO                          18082023BRL0000000000000000000000001655580000000000477982682518082023000000000165558                                        0 0    00    BD        
0010001300048B   100023486474863                                                                                                                                                                                                                
0010001300049A0000000010697280000000321974 ANTONIO IREMAR GOMES DA SILVA                     18082023BRL0000000000000000000000000983840000000000477982682618082023000000000098384                                        0 0    00    BD        
0010001300050B   100033438398842                                                                                                                                                                                                                
0010001300051A0000000010697280000000321990 ARLETE BORGES DA SILVA                            18082023BRL0000000000000000000000000983840000000000477982682718082023000000000098384                                        0 0    00    BD        
0010001300052B   100000968885551                                                                                                                                                                                                                
0010001300053A0000000010697280000000322016 BRUNA SUELEN SOUZA CALDAS                         18082023BRL0000000000000000000000000983840000000000477982682818082023000000000098384                                        0 0    00    BD        
0010001300054B   100037822394827                                                                                                                                                                                                                
0010001300055A0000000010697280000000322032 CARLOS ALBERTO DE LIMA                            18082023BRL0000000000000000000000001522650000000000477982682918082023000000000152265                                        0 0    00    BD        
0010001300056B   100032598303830                                                                                                                                                                                                                
0010001300057A0000000010697280000000322059 CAROLINA DE SOUZA EMILIO                          18082023BRL0000000000000000000000000983840000000000477982683018082023000000000098384                                        0 0    00    BD        
0010001300058B   100033650339803                                                                                                                                                                                                                
0010001300059A0000000010697280000000322067 CAROLINA SANTANA SILVA                            18082023BRL0000000000000000000000000983840000000000477982683118082023000000000098384                                        0 0    00    BD        
0010001300060B   100031958342866                                                                                                                                                                                                                
0010001300061A0000000010697280000000322075 CAROLINE FARIAS MELO                              18082023BRL0000000000000000000000001121760000000000477982683218082023000000000112176                                        0 0    00    BD        
0010001300062B   100040388829850                                                                                                                                                                                                                
0010001300063A0000000010697280000000322091 CELIO RIBEIRO DO NASCIMENTO                       18082023BRL0000000000000000000000000983840000000000477982683318082023000000000098384                                        0 0    00    BD        
0010001300064B   100029293814854                                                                                                                                                                                                                
0010001300065A0000000010697280000000322105 CELIO TEIXEIRA SANTIAGO                           18082023BRL0000000000000000000000001181870000000000477982683418082023000000000118187                                        0 0    00    BD        
0010001300066B   100028881142830                                                                                                                                                                                                                
0010001300067A0000000010697280000000322121 CICERO HOLANDA DE SOUSA                           18082023BRL0000000000000000000000001754670000000000477982683518082023000000000175467                                        0 0    00    BD        
0010001300068B   100012409730809                                                                                                                                                                                                                
0010001300069A0000000010697280000000322164 CLAUDIA DA SILVA OLIVEIRA                         18082023BRL0000000000000000000000001559290000000000477982683618082023000000000155929                                        0 0    00    BD        
0010001300070B   100016869586845                                                                                                                                                                                                                
0010001300071A0000000010697280000000322172 CLAUDIA DE MOURA SAMPAIO                          18082023BRL0000000000000000000000000983840000000000477982683718082023000000000098384                                        0 0    00    BD        
0010001300072B   100026942672890                                                                                                                                                                                                                
0010001300073A0000000010697280000000322180 CLAUDIA DE OLIVEIRA DUARTE                        18082023BRL0000000000000000000000001074940000000000477982683818082023000000000107494                                        0 0    00    BD        
0010001300074B   100032672475865                                                                                                                                                                                                                
0010001300075A0000000010697280000000322199 CLAUDIA MARIA PEREIRA DA SILVA                    18082023BRL0000000000000000000000001075640000000000477982683918082023000000000107564                                        0 0    00    BD        
0010001300076B   100008391600890                                                                                                                                                                                                                
0010001300077A0000000010697280000000322202 CLAUDILENE SOARES DA SILVA                        18082023BRL0000000000000000000000000983840000000000477982684018082023000000000098384                                        0 0    00    BD        
0010001300078B   100031360379878                                                                                                                                                                                                                
0010001300079A0000000010697280000000322210 CLAUDIONOR SANT ANNA CHAVES                       18082023BRL0000000000000000000000000983840000000000477982684118082023000000000098384                                        0 0    00    BD        
0010001300080B   100016086700826                                                                                                                                                                                                                
0010001300081A0000000010697280000000322237 CLAYTON ANDRADE DOS SANTOS                        18082023BRL0000000000000000000000000983840000000000477982684218082023000000000098384                                        0 0    00    BD        
0010001300082B   100037566455842                                                                                                                                                                                                                
0010001300083A0000000010697280000000322253 CLEBER PINTO ALBINO                               18082023BRL0000000000000000000000002420050000000000477982684318082023000000000242005                                        0 0    00    BD        
0010001300084B   100021276364814                                                                                                                                                                                                                
0010001300085A0000000010697280000000322261 CLEITO MARTINS DE OLIVEIRA                        18082023BRL0000000000000000000000001170010000000000477982684418082023000000000117001                                        0 0    00    BD        
0010001300086B   100020590058843                                                                                                                                                                                                                
0010001300087A000000001069728000000032227X CLEONILDA DA SILVA TEREZA                         18082023BRL0000000000000000000000000983840000000000477982684518082023000000000098384                                        0 0    00    BD        
0010001300088B   100030825909856                                                                                                                                                                                                                
0010001300089A0000000010697280000000322288 CORACI DE SOUZA FERREIRA                          18082023BRL0000000000000000000000002153410000000000477982684618082023000000000215341                                        0 0    00    BD        
0010001300090B   100000798760648                                                                                                                                                                                                                
0010001300091A0000000010697280000000322296 CREUSA PENA DE OLIVEIRA DA SIL                    18082023BRL0000000000000000000000001145760000000000477982684718082023000000000114576                                        0 0    00    BD        
0010001300092B   100008983485876                                                                                                                                                                                                                
0010001300093A000000001069728000000032230X CRISTIANE APARECIDA BARBOSA DA                    18082023BRL0000000000000000000000001121760000000000477982684818082023000000000112176                                        0 0    00    BD        
0010001300094B   100015565110866                                                                                                                                                                                                                
0010001300095A0000000010697280000000322318 CRISTIANE APARECIDA DE ANDRADE                    18082023BRL0000000000000000000000002695850000000000477982684918082023000000000269585                                        0 0    00    BD        
0010001300096B   100017708032890                                                                                                                                                                                                                
0010001300097A0000000010697280000000322326 DALVANILZA LOURENCO SILVA                         18082023BRL0000000000000000000000000983840000000000477982685018082023000000000098384                                        0 0    00    BD        
0010001300098B   100031200520866                                                                                                                                                                                                                
0010001300099A0000000010697280000000322334 DAMACIO PEREIRA ALVES                             18082023BRL0000000000000000000000001371340000000000477982685118082023000000000137134                                        0 0    00    BD        
0010001300100B   100039758494368                                                                                                                                                                                                                
0010001300101A0000000010697280000000322342 DANIEL PEREIRA RUAS                               18082023BRL0000000000000000000000001122540000000000477982685218082023000000000112254                                        0 0    00    BD        
0010001300102B   100039772339803                                                                                                                                                                                                                
0010001300103A0000000010697280000000322369 DIEGO RENAN MACHADO                               18082023BRL0000000000000000000000000983840000000000477982685318082023000000000098384                                        0 0    00    BD        
0010001300104B   100036913896867                                                                                                                                                                                                                
0010001300105A0000000010697280000000322385 DIOGO RODRIGUES DE LIMA                           18082023BRL0000000000000000000000000983840000000000477982685418082023000000000098384                                        0 0    00    BD        
0010001300106B   100041099422841                                                                                                                                                                                                                
0010001300107A0000000010697280000000322393 DOUGLAS ANTONIO DE SENE JUNIOR                    18082023BRL0000000000000000000000000983840000000000477982685518082023000000000098384                                        0 0    00    BD        
0010001300108B   100048656508814                                                                                                                                                                                                                
0010001300109A0000000010697280000000322407 DOUGLAS CERQUEIRA SOUZA                           18082023BRL0000000000000000000000000983840000000000477982685618082023000000000098384                                        0 0    00    BD        
0010001300110B   100041251394825                                                                                                                                                                                                                
0010001300111A0000000010697280000000322415 DOUGLAS DA CRUZ SANTANA                           18082023BRL0000000000000000000000000983840000000000477982685718082023000000000098384                                        0 0    00    BD        
0010001300112B   100035498172826                                                                                                                                                                                                                
0010001300113A0000000010697280000000322423 ED CARLOS CAPELATI                                18082023BRL0000000000000000000000002489330000000000477982685818082023000000000248933                                        0 0    00    BD        
0010001300114B   100018559765875                                                                                                                                                                                                                
0010001300115A0000000010697280000000322431 EDEMILSON MACEDO RIBEIRO                          18082023BRL0000000000000000000000000754280000000000477982685918082023000000000075428                                        0 0    00    BD        
0010001300116B   100020519988841                                                                                                                                                                                                                
0010001300117A000000001069728000000032244X EDI CARLOS DA SILVA                               18082023BRL0000000000000000000000000983840000000000477982686018082023000000000098384                                        0 0    00    BD        
0010001300118B   100028559737839                                                                                                                                                                                                                
0010001300119A0000000010697280000000322458 EDI MOREIRA DA CONCEICAO                          18082023BRL0000000000000000000000000983840000000000477982686118082023000000000098384                                        0 0    00    BD        
0010001300120B   100028477956855                                                                                                                                                                                                                
0010001300121A0000000010697280000000322474 EDLAINE CARVALHO DE SOUZA                         18082023BRL0000000000000000000000000983840000000000477982686218082023000000000098384                                        0 0    00    BD        
0010001300122B   100025458013808                                                                                                                                                                                                                
0010001300123A0000000010697280000000322482 EDSON LAURIANO DIAS                               18082023BRL0000000000000000000000000983840000000000477982686318082023000000000098384                                        0 0    00    BD        
0010001300124B   100030227595840                                                                                                                                                                                                                
0010001300125A0000000010697280000000322504 EGIDIO HENRIQUE DE OLIVEIRA                       18082023BRL0000000000000000000000001232890000000000477982686418082023000000000123289                                        0 0    00    BD        
0010001300126B   100028061789833                                                                                                                                                                                                                
0010001300127A0000000010697280000000322512 ELAINE SANTIAGO DOS SANTOS SIL                    18082023BRL0000000000000000000000000983840000000000477982686518082023000000000098384                                        0 0    00    BD        
0010001300128B   100035039148895                                                                                                                                                                                                                
0010001300129A0000000010697280000000322520 ELIANE ALVES DE OLIVEIRA                          18082023BRL0000000000000000000000001170010000000000477982686618082023000000000117001                                        0 0    00    BD        
0010001300130B   100030964968894                                                                                                                                                                                                                
0010001300131A0000000010697280000000322539 ELIANE APARECIDA FERNANDES                        18082023BRL0000000000000000000000000983840000000000477982686718082023000000000098384                                        0 0    00    BD        
0010001300132B   100022176418832                                                                                                                                                                                                                
0010001300133A0000000010697280000000322563 ELISANGELA DA SILVA SANTOS                        18082023BRL0000000000000000000000001087680000000000477982686818082023000000000108768                                        0 0    00    BD        
0010001300134B   100022534374842                                                                                                                                                                                                                
0010001300135A0000000010697280000000322571 ELISETE DE PAULA GOMES CARNEIR                    18082023BRL0000000000000000000000001734740000000000477982686918082023000000000173474                                        0 0    00    BD        
0010001300136B   100027778794861                                                                                                                                                                                                                
0010001300137A000000001069728000000032258X EMERSON DANTAS DE OLIVEIRA                        18082023BRL0000000000000000000000001370630000000000477982687018082023000000000137063                                        0 0    00    BD        
0010001300138B   100014302663847                                                                                                                                                                                                                
0010001300139A0000000010697280000000322598 ENEIZE DE ALMEIDA SOARES                          18082023BRL0000000000000000000000001129130000000000477982687118082023000000000112913                                        0 0    00    BD        
0010001300140B   100003388447403                                                                                                                                                                                                                
0010001300141A000000001069728000000032261X ERIVALDO LOPES DOS SANTOS                         18082023BRL0000000000000000000000000983840000000000477982687218082023000000000098384                                        0 0    00    BD        
0010001300142B   100075080630582                                                                                                                                                                                                                
0010001300143A0000000010697280000000322628 EVALDO FERREIRA DE SOUZA                          18082023BRL0000000000000000000000001499570000000000477982687318082023000000000149957                                        0 0    00    BD        
0010001300144B   100014811479866                                                                                                                                                                                                                
0010001300145A0000000010697280000000322644 EVERALDO BISPO SA                                 18082023BRL0000000000000000000000001081520000000000477982687418082023000000000108152                                        0 0    00    BD        
0010001300146B   100095659790500                                                                                                                                                                                                                
0010001300147A0000000010697280000000322652 EVERALDO DE OLIVEIRA ALVES                        18082023BRL0000000000000000000000001367500000000000477982687518082023000000000136750                                        0 0    00    BD        
0010001300148B   100014665774870                                                                                                                                                                                                                
0010001300149A0000000010697280000000322679 FABIO ALVES DA SILVA                              18082023BRL0000000000000000000000001069620000000000477982687618082023000000000106962                                        0 0    00    BD        
0010001300150B   100030230758835                                                                                                                                                                                                                
0010001300151A0000000010697280000000322687 FABIOLA EVELYN RAMOS DE CARVAL                    18082023BRL0000000000000000000000000983840000000000477982687718082023000000000098384                                        0 0    00    BD        
0010001300152B   100045330614864                                                                                                                                                                                                                
0010001300153A0000000010697280000000322695 FABRICIO BARBOZA SERAFIM                          18082023BRL0000000000000000000000000983840000000000477982687818082023000000000098384                                        0 0    00    BD        
0010001300154B   100022814985817                                                                                                                                                                                                                
0010001300155A0000000010697280000000322717 FERNANDA MATIAS DE SOUZA                          18082023BRL0000000000000000000000000983840000000000477982687918082023000000000098384                                        0 0    00    BD        
0010001300156B   100022796437825                                                                                                                                                                                                                
0010001300157A0000000010697280000000322768 FRANCISCO JONAS DA SILVA                          18082023BRL0000000000000000000000000983840000000000477982688018082023000000000098384                                        0 0    00    BD        
0010001300158B   100000877648301                                                                                                                                                                                                                
0010001300159A0000000010697280000000322776 GABRIEL ROCHA MASSOLI                             18082023BRL0000000000000000000000001107180000000000477982688118082023000000000110718                                        0 0    00    BD        
0010001300160B   100047054005856                                                                                                                                                                                                                
0010001300161A0000000010697280000000322784 GENIVALDO GOMES DE OLIVEIRA                       18082023BRL0000000000000000000000000983840000000000477982688218082023000000000098384                                        0 0    00    BD        
0010001300162B   100025648398867                                                                                                                                                                                                                
0010001300163A0000000010697280000000322792 GEOGERIS CARLIM MONTEIRO                          18082023BRL0000000000000000000000000983840000000000477982688318082023000000000098384                                        0 0    00    BD        
0010001300164B   100021891368818                                                                                                                                                                                                                
0010001300165A0000000010697280000000322806 GILSON JOSE MARTINS                               18082023BRL0000000000000000000000000754420000000000477982688418082023000000000075442                                        0 0    00    BD        
0010001300166B   100035158037850                                                                                                                                                                                                                
0010001300167A0000000010697280000000322814 GILVAN RAMOS DA CRUZ                              18082023BRL0000000000000000000000000983840000000000477982688518082023000000000098384                                        0 0    00    BD        
0010001300168B   100028612900808                                                                                                                                                                                                                
0010001300169A0000000010697280000000322822 GIOVANE DA SILVA QUILOTI                          18082023BRL0000000000000000000000000983840000000000477982688618082023000000000098384                                        0 0    00    BD        
0010001300170B   100043924841810                                                                                                                                                                                                                
0010001300171A0000000010697280000000322849 GISLENE RODRIGUES                                 18082023BRL0000000000000000000000000983840000000000477982688718082023000000000098384                                        0 0    00    BD        
0010001300172B   100025071381818                                                                                                                                                                                                                
0010001300173A0000000010697280000000322873 GUSTAVO BARBOSA DA SILVA                          18082023BRL0000000000000000000000000983840000000000477982688818082023000000000098384                                        0 0    00    BD        
0010001300174B   100041484171870                                                                                                                                                                                                                
0010001300175A0000000010697280000000322881 GUSTAVO NOGUEIRA SANTOS                           18082023BRL0000000000000000000000001931170000000000477982688918082023000000000193117                                        0 0    00    BD        
0010001300176B   100040423325876                                                                                                                                                                                                                
0010001300177A000000001069728000000032289X GUSTAVO RAMOS FARIAS                              18082023BRL0000000000000000000000000983840000000000477982689018082023000000000098384                                        0 0    00    BD        
0010001300178B   100051068751886                                                                                                                                                                                                                
0010001300179A0000000010697280000000322903 HAMILTON PASSOS DANTAS                            18082023BRL0000000000000000000000001087680000000000477982689118082023000000000108768                                        0 0    00    BD        
0010001300180B   100028583120870                                                                                                                                                                                                                
0010001300181A0000000010697280000000322938 HUDSON DIAS DOS SANTOS                            18082023BRL0000000000000000000000001087680000000000477982689218082023000000000108768                                        0 0    00    BD        
0010001300182B   100034483253840                                                                                                                                                                                                                
0010001300183A0000000010697280000000322946 ILZA APARECIDA DIAS                               18082023BRL0000000000000000000000000983840000000000477982689318082023000000000098384                                        0 0    00    BD        
0010001300184B   100012578132852                                                                                                                                                                                                                
0010001300185A0000000010697280000000322954 IVONETE APARECIDA DOS SANTOS                      18082023BRL0000000000000000000000001170010000000000477982689418082023000000000117001                                        0 0    00    BD        
0010001300186B   100009641571877                                                                                                                                                                                                                
0010001300187A0000000010697280000000322970 JANIO PIRES ARAUJO                                18082023BRL0000000000000000000000000983840000000000477982689518082023000000000098384                                        0 0    00    BD        
0010001300188B   100027867054871                                                                                                                                                                                                                
0010001300189A0000000010697280000000323004 JHONATAN SILVA                                    18082023BRL0000000000000000000000000983840000000000477982689618082023000000000098384                                        0 0    00    BD        
0010001300190B   100036310830848                                                                                                                                                                                                                
0010001300191A0000000010697280000000323020 JOAO DE OLIVEIRA                                  18082023BRL0000000000000000000000000983840000000000477982689718082023000000000098384                                        0 0    00    BD        
0010001300192B   100008829412830                                                                                                                                                                                                                
0010001300193A0000000010697280000000323047 JOAQUIM FERNANDES FILHO                           18082023BRL0000000000000000000000001269840000000000477982689818082023000000000126984                                        0 0    00    BD        
0010001300194B   100005454957844                                                                                                                                                                                                                
0010001300195A0000000010697280000000323063 JOCIENE DOS SANTOS SOARES RIBE                    18082023BRL0000000000000000000000000983840000000000477982689918082023000000000098384                                        0 0    00    BD        
0010001300196B   100005274797563                                                                                                                                                                                                                
0010001300197A0000000010697280000000323071 JOEL GONCALVES DOS SANTOS                         18082023BRL0000000000000000000000000983840000000000477982690018082023000000000098384                                        0 0    00    BD        
0010001300198B   100015633607805                                                                                                                                                                                                                
0010001300199A000000001069728000000032308X JOELMA BORGES DEBUS                               18082023BRL0000000000000000000000002707490000000000477982690118082023000000000270749                                        0 0    00    BD        
0010001300200B   100025562131838                                                                                                                                                                                                                
0010001300201A0000000010697280000000323098 JOHANY NASCIMENTO DA SILVA                        18082023BRL0000000000000000000000000983840000000000477982690218082023000000000098384                                        0 0    00    BD        
0010001300202B   100035402325839                                                                                                                                                                                                                
0010001300203A0000000010697280000000323128 JOSE CICERO DO NASCIMENTO                         18082023BRL0000000000000000000000001232890000000000477982690318082023000000000123289                                        0 0    00    BD        
0010001300204B   100057061637404                                                                                                                                                                                                                
0010001300205A0000000010697280000000323136 JOSE DO NASCIMENTO                                18082023BRL0000000000000000000000001179610000000000477982690418082023000000000117961                                        0 0    00    BD        
0010001300206B   100007942398897                                                                                                                                                                                                                
0010001300207A0000000010697280000000323144 JOSE EDVALDO DOS SANTOS ROCHA                     18082023BRL0000000000000000000000000983840000000000477982690518082023000000000098384                                        0 0    00    BD        
0010001300208B   100095654186434                                                                                                                                                                                                                
0010001300209A0000000010697280000000323152 JOSE GENIVAL DE SOUZA                             18082023BRL0000000000000000000000000655890000000000477982690618082023000000000065589                                        0 0    00    BD        
0010001300210B   100070798001453                                                                                                                                                                                                                
0010001300211A0000000010697280000000323160 JOSE GOMES FILHO                                  18082023BRL0000000000000000000000001248470000000000477982690718082023000000000124847                                        0 0    00    BD        
0010001300212B   100044642911472                                                                                                                                                                                                                
0010001300213A0000000010697280000000323179 JOSE LEANDRO SOARES DE OLIVEIR                    18082023BRL0000000000000000000000001074940000000000477982690818082023000000000107494                                        0 0    00    BD        
0010001300214B   100042643419812                                                                                                                                                                                                                
0010001300215A0000000010697280000000323195 JOSE WILSON JONAS DO NASCIMENT                    18082023BRL0000000000000000000000000983840000000000477982690918082023000000000098384                                        0 0    00    BD        
0010001300216B   100047455837534                                                                                                                                                                                                                
0010001300217A0000000010697280000000323217 JOSENALDO SOUZA TEIXEIRA                          18082023BRL0000000000000000000000002099680000000000477982691018082023000000000209968                                        0 0    00    BD        
0010001300218B   100010350958823                                                                                                                                                                                                                
0010001300219A0000000010697280000000323225 JOSILMA SILVA MARTINS                             18082023BRL0000000000000000000000001075100000000000477982691118082023000000000107510                                        0 0    00    BD        
0010001300220B   100000119273306                                                                                                                                                                                                                
0010001300221A0000000010697280000000323233 JOSIMAR DOS SANTOS CAMPOS                         18082023BRL0000000000000000000000001074940000000000477982691218082023000000000107494                                        0 0    00    BD        
0010001300222B   100003224544503                                                                                                                                                                                                                
0010001300223A0000000010697280000000323241 JUAN PABLO NEVES SANTOS                           18082023BRL0000000000000000000000000983840000000000477982691318082023000000000098384                                        0 0    00    BD        
0010001300224B   100052257841867                                                                                                                                                                                                                
0010001300225A000000001069728000000032325X JUCELIO SANTIAGO VIANA                            18082023BRL0000000000000000000000000983840000000000477982691418082023000000000098384                                        0 0    00    BD        
0010001300226B   100042673347810                                                                                                                                                                                                                
0010001300227A0000000010697280000000323268 JURANDIR PEREIRA GOMES                            18082023BRL0000000000000000000000001087680000000000477982691518082023000000000108768                                        0 0    00    BD        
0010001300228B   100029207974843                                                                                                                                                                                                                
0010001300229A0000000010697280000000323276 KAREN GOMES DA SILVA                              18082023BRL0000000000000000000000001117500000000000477982691618082023000000000111750                                        0 0    00    BD        
0010001300230B   100043489670833                                                                                                                                                                                                                
0010001300231A0000000010697280000000323284 KARINE FARIAS NEVES                               18082023BRL0000000000000000000000003182500000000000477982691718082023000000000318250                                        0 0    00    BD        
0010001300232B   100043062315857                                                                                                                                                                                                                
0010001300233A0000000010697280000000323292 KATIA REGINA MOREIRA DE SOUZA                     18082023BRL0000000000000000000000001087680000000000477982691818082023000000000108768                                        0 0    00    BD        
0010001300234B   100018559755802                                                                                                                                                                                                                
0010001300235A0000000010697280000000323306 LAERTE MEIRELES GUERRA                            18082023BRL0000000000000000000000001802670000000000477982691918082023000000000180267                                        0 0    00    BD        
0010001300236B   100014512253858                                                                                                                                                                                                                
0010001300237A0000000010697280000000323314 LAURA KATHELLEN BONFIM MONTEIR                    18082023BRL0000000000000000000000000983130000000000477982692018082023000000000098313                                        0 0    00    BD        
0010001300238B   100051012329801                                                                                                                                                                                                                
0010001300239A0000000010697280000000323322 LEANDRO CRUZ DE JESUS                             18082023BRL0000000000000000000000000983840000000000477982692118082023000000000098384                                        0 0    00    BD        
0010001300240B   100036669550880                                                                                                                                                                                                                
0010001300241A0000000010697280000000323349 LEONARDO DA SILVA SILVEIRA                        18082023BRL0000000000000000000000000983840000000000477982692218082023000000000098384                                        0 0    00    BD        
0010001300242B   100032713099811                                                                                                                                                                                                                
0010001300243A0000000010697280000000323357 LEONARDO DE JESUS DINIZ                           18082023BRL0000000000000000000000000983840000000000477982692318082023000000000098384                                        0 0    00    BD        
0010001300244B   100034137837856                                                                                                                                                                                                                
0010001300245A0000000010697280000000323365 LETICIA CRISTINA DA SILVA MACI                    18082023BRL0000000000000000000000000982960000000000477982692418082023000000000098296                                        0 0    00    BD        
0010001300246B   100045041084882                                                                                                                                                                                                                
0010001300247A0000000010697280000000323373 LETICIA SILVA BARBOSA                             18082023BRL0000000000000000000000000983130000000000477982692518082023000000000098313                                        0 0    00    BD        
0010001300248B   100049837493810                                                                                                                                                                                                                
0010001300249A000000001069728000000032339X LUCAS SANTOS ROCHA DE SOUSA                       18082023BRL0000000000000000000000002133870000000000477982692618082023000000000213387                                        0 0    00    BD        
0010001300250B   100031899787860                                                                                                                                                                                                                
0010001300251A0000000010697280000000323403 LUCIANA DE CASSIA RODRIGUES PE                    18082023BRL0000000000000000000000001336520000000000477982692718082023000000000133652                                        0 0    00    BD        
0010001300252B   100025399245817                                                                                                                                                                                                                
0010001300253A0000000010697280000000323411 LUCINEIDE SILVA MOREIRA                           18082023BRL0000000000000000000000000983840000000000477982692818082023000000000098384                                        0 0    00    BD        
0010001300254B   100054267617520                                                                                                                                                                                                                
0010001300255A000000001069728000000032342X LUIS FELIPE DE SOUZA                              18082023BRL0000000000000000000000001087680000000000477982692918082023000000000108768                                        0 0    00    BD        
0010001300256B   100033180949864                                                                                                                                                                                                                
0010001300257A0000000010697280000000323438 LUIS FERNANDO TELES SILVA                         18082023BRL0000000000000000000000000983840000000000477982693018082023000000000098384                                        0 0    00    BD        
0010001300258B   100022459524803                                                                                                                                                                                                                
0010001300259A0000000010697280000000323446 LUIS RODRIGUES DOS SANTOS                         18082023BRL0000000000000000000000001205600000000000477982693118082023000000000120560                                        0 0    00    BD        
0010001300260B   100025254036818                                                                                                                                                                                                                
0010001300261A0000000010697280000000323454 LUIZ GONZAGA SANTOS SILVEIRA                      18082023BRL0000000000000000000000001121760000000000477982693218082023000000000112176                                        0 0    00    BD        
0010001300262B   100059907878120                                                                                                                                                                                                                
0010001300263A0000000010697280000000323470 MAGNA BARBOSA ARRUDA DE SOUSA                     18082023BRL0000000000000000000000000983840000000000477982693318082023000000000098384                                        0 0    00    BD        
0010001300264B   100017745198879                                                                                                                                                                                                                
0010001300265A0000000010697280000000323489 MAGNO DA SILVA ROCHA                              18082023BRL0000000000000000000000001293270000000000477982693418082023000000000129327                                        0 0    00    BD        
0010001300266B   100035935984857                                                                                                                                                                                                                
0010001300267A0000000010697280000000323497 MANOEL SANTANA DE LIMA                            18082023BRL0000000000000000000000001087680000000000477982693518082023000000000108768                                        0 0    00    BD        
0010001300268B   100033924933847                                                                                                                                                                                                                
0010001300269A0000000010697280000000323500 MARCELO ALVES MENDES                              18082023BRL0000000000000000000000001549020000000000477982693618082023000000000154902                                        0 0    00    BD        
0010001300270B   100029450006873                                                                                                                                                                                                                
0010001300271A0000000010697280000000323519 MARCELO DOS SANTOS JUNIOR                         18082023BRL0000000000000000000000001236420000000000477982693718082023000000000123642                                        0 0    00    BD        
0010001300272B   100040244530840                                                                                                                                                                                                                
0010001300273A0000000010697280000000323535 MARCIO AMARAL DE PADUA                            18082023BRL0000000000000000000000001883490000000000477982693818082023000000000188349                                        0 0    00    BD        
0010001300274B   100014515488856                                                                                                                                                                                                                
0010001300275A0000000010697280000000323551 MARCIO VITOR BATISTA                              18082023BRL0000000000000000000000001170210000000000477982693918082023000000000117021                                        0 0    00    BD        
0010001300276B   100013324731801                                                                                                                                                                                                                
0010001300277A000000001069728000000032356X MARCOS ANTONIO ROSSATI                            18082023BRL0000000000000000000000002258250000000000477982694018082023000000000225825                                        0 0    00    BD        
0010001300278B   100013441240898                                                                                                                                                                                                                
0010001300279A0000000010697280000000323586 MARIA ADRIANA DA SILVA                            18082023BRL0000000000000000000000001195550000000000477982694118082023000000000119555                                        0 0    00    BD        
0010001300280B   100030450364810                                                                                                                                                                                                                
0010001300281A0000000010697280000000323594 MARIA ALDENORA CRUZ SANTANA                       18082023BRL0000000000000000000000000878420000000000477982694218082023000000000087842                                        0 0    00    BD        
0010001300282B   100025021662848                                                                                                                                                                                                                
0010001300283A0000000010697280000000323608 MARIA ANGELICA COELHO GONCALVE                    18082023BRL0000000000000000000000000983840000000000477982694318082023000000000098384                                        0 0    00    BD        
0010001300284B   100040450938859                                                                                                                                                                                                                
0010001300285A0000000010697280000000323616 MARIA APARECIDA DOS SANTOS                        18082023BRL0000000000000000000000001076740000000000477982694418082023000000000107674                                        0 0    00    BD        
0010001300286B   100009642096838                                                                                                                                                                                                                
0010001300287A0000000010697280000000323632 MARIA APARECIDA SILVA DE OLIVE                    18082023BRL0000000000000000000000000754280000000000477982694518082023000000000075428                                        0 0    00    BD        
0010001300288B   100010046663819                                                                                                                                                                                                                
0010001300289A0000000010697280000000323659 MARIA CUSTODIO SILVA DOS REIS                     18082023BRL0000000000000000000000000754280000000000477982694618082023000000000075428                                        0 0    00    BD        
0010001300290B   100089419510387                                                                                                                                                                                                                
0010001300291A0000000010697280000000323667 MARIA DE FATIMA DA SILVA                          18082023BRL0000000000000000000000001629670000000000477982694718082023000000000162967                                        0 0    00    BD        
0010001300292B   100012516269803                                                                                                                                                                                                                
0010001300293A0000000010697280000000323675 MARIA DE FATIMA RODRIGUES DA S                    18082023BRL0000000000000000000000000983840000000000477982694818082023000000000098384                                        0 0    00    BD        
0010001300294B   100014939349888                                                                                                                                                                                                                
0010001300295A0000000010697280000000323691 MARIA GONCALVES SOARES DE ASSI                    18082023BRL0000000000000000000000000983840000000000477982694918082023000000000098384                                        0 0    00    BD        
0010001300296B   100013069589898                                                                                                                                                                                                                
0010001300297A0000000010697280000000323705 MARIA ISANETE SOARES DOS SANTO                    18082023BRL0000000000000000000000000983840000000000477982695018082023000000000098384                                        0 0    00    BD        
0010001300298B   100034449798864                                                                                                                                                                                                                
0010001300299A0000000010697280000000323713 MARIA JOSE DA SILVA                               18082023BRL0000000000000000000000000983840000000000477982695118082023000000000098384                                        0 0    00    BD        
0010001300300B   100089449622434                                                                                                                                                                                                                
0010001300301A0000000010697280000000323721 MARIA NEUSA SANTOS SENA                           18082023BRL0000000000000000000000001122100000000000477982695218082023000000000112210                                        0 0    00    BD        
0010001300302B   100014627964862                                                                                                                                                                                                                
0010001300303A000000001069728000000032373X MARIA QUITERIA LIMA                               18082023BRL0000000000000000000000000983840000000000477982695318082023000000000098384                                        0 0    00    BD        
0010001300304B   100070770824587                                                                                                                                                                                                                
0010001300305A0000000010697280000000323756 MARTA ALVES PEREIRA                               18082023BRL0000000000000000000000001228120000000000477982695418082023000000000122812                                        0 0    00    BD        
0010001300306B   100014515353845                                                                                                                                                                                                                
0010001300307A0000000010697280000000323764 MATEUS JOSE DA SILVA                              18082023BRL0000000000000000000000000983840000000000477982695518082023000000000098384                                        0 0    00    BD        
0010001300308B   100023847135821                                                                                                                                                                                                                
0010001300309A0000000010697280000000323780 MAURI ALVES FERREIRA                              18082023BRL0000000000000000000000000983840000000000477982695618082023000000000098384                                        0 0    00    BD        
0010001300310B   100028466609806                                                                                                                                                                                                                
0010001300311A0000000010697280000000323799 MAURILIO SOARES DE SOUZA                          18082023BRL0000000000000000000000002044610000000000477982695718082023000000000204461                                        0 0    00    BD        
0010001300312B   100034534565801                                                                                                                                                                                                                
0010001300313A0000000010697280000000323802 MAURO MORIYAMA                                    18082023BRL0000000000000000000000002608420000000000477982695818082023000000000260842                                        0 0    00    BD        
0010001300314B   100000162186800                                                                                                                                                                                                                
0010001300315A0000000010697280000000323829 MILENA ROSSI                                      18082023BRL0000000000000000000000001165750000000000477982695918082023000000000116575                                        0 0    00    BD        
0010001300316B   100029580663807                                                                                                                                                                                                                
0010001300317A0000000010697280000000323837 MOISES GONCALVES LIMA                             18082023BRL0000000000000000000000000833890000000000477982696018082023000000000083389                                        0 0    00    BD        
0010001300318B   100035565631858                                                                                                                                                                                                                
0010001300319A0000000010697280000000323861 NILSON DOS SANTOS ANDRE                           18082023BRL0000000000000000000000003023860000000000477982696118082023000000000302386                                        0 0    00    BD        
0010001300320B   100011278493875                                                                                                                                                                                                                
0010001300321A000000001069728000000032387X OSMAR NERVA                                       18082023BRL0000000000000000000000001658160000000000477982696218082023000000000165816                                        0 0    00    BD        
0010001300322B   100007776256870                                                                                                                                                                                                                
0010001300323A0000000010697280000000323888 OZIEL SEVERINO DA SILVA                           18082023BRL0000000000000000000000000983840000000000477982696318082023000000000098384                                        0 0    00    BD        
0010001300324B   100014086991845                                                                                                                                                                                                                
0010001300325A0000000010697280000000323896 PALOMA FERNANDES DA SILVA                         18082023BRL0000000000000000000000000983840000000000477982696418082023000000000098384                                        0 0    00    BD        
0010001300326B   100034359413831                                                                                                                                                                                                                
0010001300327A0000000010697280000000323918 PAULO HENRIQUE DA SILVA                           18082023BRL0000000000000000000000001145760000000000477982696518082023000000000114576                                        0 0    00    BD        
0010001300328B   100034881998862                                                                                                                                                                                                                
0010001300329A0000000010697280000000323934 PAULO LUIZ DA SILVA                               18082023BRL0000000000000000000000001205600000000000477982696618082023000000000120560                                        0 0    00    BD        
0010001300330B   100013461202851                                                                                                                                                                                                                
0010001300331A0000000010697280000000323950 RAFAEL BARRETO DE OLIVEIRA                        18082023BRL0000000000000000000000001320760000000000477982696718082023000000000132076                                        0 0    00    BD        
0010001300332B   100005363699508                                                                                                                                                                                                                
0010001300333A0000000010697280000000323969 RAFAEL DAMACENO                                   18082023BRL0000000000000000000000000983840000000000477982696818082023000000000098384                                        0 0    00    BD        
0010001300334B   100033401789848                                                                                                                                                                                                                
0010001300335A0000000010697280000000323977 RAFAEL FERREIRA DA SILVA                          18082023BRL0000000000000000000000001115380000000000477982696918082023000000000111538                                        0 0    00    BD        
0010001300336B   100037685737884                                                                                                                                                                                                                
0010001300337A0000000010697280000000323985 RAFAEL FRAMINAN PROETTI                           18082023BRL0000000000000000000000002993480000000000477982697018082023000000000299348                                        0 0    00    BD        
0010001300338B   100040208275835                                                                                                                                                                                                                
0010001300339A0000000010697280000000323993 RAFAEL SANTOS GABRIEL                             18082023BRL0000000000000000000000001120840000000000477982697118082023000000000112084                                        0 0    00    BD        
0010001300340B   100039165071840                                                                                                                                                                                                                
0010001300341A0000000010697280000000324000 RAIMUNDO DE AQUINO SANTOS                         18082023BRL0000000000000000000000000983840000000000477982697218082023000000000098384                                        0 0    00    BD        
0010001300342B   100003219471501                                                                                                                                                                                                                
0010001300343A0000000010697280000000324019 RAUL DINIZ COSTA DE SOUZA                         18082023BRL0000000000000000000000000983840000000000477982697318082023000000000098384                                        0 0    00    BD        
0010001300344B   100016941140828                                                                                                                                                                                                                
0010001300345A0000000010697280000000324043 RENE CESARIO DE OLIVEIRA                          18082023BRL0000000000000000000000001121760000000000477982697418082023000000000112176                                        0 0    00    BD        
0010001300346B   100008743396852                                                                                                                                                                                                                
0010001300347A0000000010697280000000324051 RICARDO MARQUES DA SILVA MOURA                    18082023BRL0000000000000000000000000983840000000000477982697518082023000000000098384                                        0 0    00    BD        
0010001300348B   100030081605811                                                                                                                                                                                                                
0010001300349A0000000010697280000000324086 ROBERTA VIVIAN SILVA CHIACCHIE                    18082023BRL0000000000000000000000000983840000000000477982697618082023000000000098384                                        0 0    00    BD        
0010001300350B   100022250864861                                                                                                                                                                                                                
0010001300351A0000000010697280000000324108 ROBERTO DA SILVA SOBRAL                           18082023BRL0000000000000000000000000983840000000000477982697718082023000000000098384                                        0 0    00    BD        
0010001300352B   100034639137800                                                                                                                                                                                                                
0010001300353A0000000010697280000000324116 ROBERTO JOSE DE SANTANA                           18082023BRL0000000000000000000000000983840000000000477982697818082023000000000098384                                        0 0    00    BD        
0010001300354B   100028965273897                                                                                                                                                                                                                
0010001300355A0000000010697280000000324124 ROBSON SANTANA LUZ                                18082023BRL0000000000000000000000001783220000000000477982697918082023000000000178322                                        0 0    00    BD        
0010001300356B   100033842577826                                                                                                                                                                                                                
0010001300357A0000000010697280000000324132 RODRIGO ALVES DE SOUSA                            18082023BRL0000000000000000000000001374450000000000477982698018082023000000000137445                                        0 0    00    BD        
0010001300358B   100029052266840                                                                                                                                                                                                                
0010001300359A0000000010697280000000324140 RODRIGO MASCARENHAS REBOUCAS                      18082023BRL0000000000000000000000001876280000000000477982698118082023000000000187628                                        0 0    00    BD        
0010001300360B   100033101211867                                                                                                                                                                                                                
0010001300361A0000000010697280000000324167 RONALD DIAS PEREIRA                               18082023BRL0000000000000000000000000983840000000000477982698218082023000000000098384                                        0 0    00    BD        
0010001300362B   100045547369896                                                                                                                                                                                                                
0010001300363A0000000010697280000000324175 RONALDO SOUZA PEREIRA                             18082023BRL0000000000000000000000000754280000000000477982698318082023000000000075428                                        0 0    00    BD        
0010001300364B   100088483770504                                                                                                                                                                                                                
0010001300365A0000000010697280000000324183 ROSANA DA SILVA PASSOS                            18082023BRL0000000000000000000000001994830000000000477982698418082023000000000199483                                        0 0    00    BD        
0010001300366B   100016811193824                                                                                                                                                                                                                
0010001300367A0000000010697280000000324191 ROSANA DOS SANTOS SILVA                           18082023BRL0000000000000000000000000983840000000000477982698518082023000000000098384                                        0 0    00    BD        
0010001300368B   100022453783858                                                                                                                                                                                                                
0010001300369A0000000010697280000000324221 RYAN RODRIGUES ALVES                              18082023BRL0000000000000000000000000983840000000000477982698618082023000000000098384                                        0 0    00    BD        
0010001300370B   100049745357812                                                                                                                                                                                                                
0010001300371A000000001069728000000032423X SABRINA DOS SANTOS COSTA                          18082023BRL0000000000000000000000000983840000000000477982698718082023000000000098384                                        0 0    00    BD        
0010001300372B   100040986749800                                                                                                                                                                                                                
0010001300373A0000000010697280000000324248 SAMUEL MOTA DA TRINDADE                           18082023BRL0000000000000000000000001119880000000000477982698818082023000000000111988                                        0 0    00    BD        
0010001300374B   100041950940896                                                                                                                                                                                                                
0010001300375A0000000010697280000000324256 SAULO VIEIRA DE PAULA                             18082023BRL0000000000000000000000001528060000000000477982698918082023000000000152806                                        0 0    00    BD        
0010001300376B   100021295125854                                                                                                                                                                                                                
0010001300377A0000000010697280000000324264 SEBASTIAO HELIO DA SILVA                          18082023BRL0000000000000000000000001661560000000000477982699018082023000000000166156                                        0 0    00    BD        
0010001300378B   100063443252834                                                                                                                                                                                                                
0010001300379A0000000010697280000000324272 SERGIO CRUZ DE JESUS                              18082023BRL0000000000000000000000001121760000000000477982699118082023000000000112176                                        0 0    00    BD        
0010001300380B   100061748439553                                                                                                                                                                                                                
0010001300381A0000000010697280000000324280 SERGIO MOYA MARTINS                               18082023BRL0000000000000000000000002176900000000000477982699218082023000000000217690                                        0 0    00    BD        
0010001300382B   100067387993815                                                                                                                                                                                                                
0010001300383A0000000010697280000000324299 SERGIO NAGAO                                      18082023BRL0000000000000000000000001307680000000000477982699318082023000000000130768                                        0 0    00    BD        
0010001300384B   100028518525829                                                                                                                                                                                                                
0010001300385A0000000010697280000000324302 SERGIO RIBEIRO PARAISO                            18082023BRL0000000000000000000000000983840000000000477982699418082023000000000098384                                        0 0    00    BD        
0010001300386B   100014811173864                                                                                                                                                                                                                
0010001300387A0000000010697280000000324310 SEVERINO ANTONIO DA SILVA FILH                    18082023BRL0000000000000000000000001427900000000000477982699518082023000000000142790                                        0 0    00    BD        
0010001300388B   100058687777434                                                                                                                                                                                                                
0010001300389A0000000010697280000000324329 SEVERINO BELO DA SILVA                            18082023BRL0000000000000000000000001372510000000000477982699618082023000000000137251                                        0 0    00    BD        
0010001300390B   100038434462885                                                                                                                                                                                                                
0010001300391A0000000010697280000000324345 SILVIO JESUS OLIVEIRA                             18082023BRL0000000000000000000000001324460000000000477982699718082023000000000132446                                        0 0    00    BD        
0010001300392B   100041035923890                                                                                                                                                                                                                
0010001300393A0000000010697280000000324361 TAIS APARECIDA DIAS DA SILVA                      18082023BRL0000000000000000000000000983840000000000477982699818082023000000000098384                                        0 0    00    BD        
0010001300394B   100039530131810                                                                                                                                                                                                                
0010001300395A000000001069728000000032437X TALITA GONCALVES DE OLIVEIRA                      18082023BRL0000000000000000000000001129980000000000477982699918082023000000000112998                                        0 0    00    BD        
0010001300396B   100009519170642                                                                                                                                                                                                                
0010001300397A000000001069728000000032440X THIAGO DOS SANTOS FERREIRA                        18082023BRL0000000000000000000000001171430000000000477982700018082023000000000117143                                        0 0    00    BD        
0010001300398B   100031738006808                                                                                                                                                                                                                
0010001300399A0000000010697280000000324418 THIAGO TEODORO CAMPOS BARROS                      18082023BRL0000000000000000000000003522340000000000477982700118082023000000000352234                                        0 0    00    BD        
0010001300400B   100031682212874                                                                                                                                                                                                                
0010001300401A0000000010697280000000324426 TIAGO DA SILVA VASCONCELOS                        18082023BRL0000000000000000000000000983840000000000477982700218082023000000000098384                                        0 0    00    BD        
0010001300402B   100042871294828                                                                                                                                                                                                                
0010001300403A0000000010697280000000324434 TIAGO DOS REIS MARTINS                            18082023BRL0000000000000000000000000983840000000000477982700318082023000000000098384                                        0 0    00    BD        
0010001300404B   100097630047215                                                                                                                                                                                                                
0010001300405A0000000010697280000000324450 VALDECIR RODRIGUES DA CUNHA                       18082023BRL0000000000000000000000001843300000000000477982700418082023000000000184330                                        0 0    00    BD        
0010001300406B   100013569690890                                                                                                                                                                                                                
0010001300407A0000000010697280000000324477 VANDA MARIA DA SILVA LOPES                        18082023BRL0000000000000000000000001160160000000000477982700518082023000000000116016                                        0 0    00    BD        
0010001300408B   100014605355880                                                                                                                                                                                                                
0010001300409A0000000010697280000000324485 VANESSA DOS SANTOS                                18082023BRL0000000000000000000000000983840000000000477982700618082023000000000098384                                        0 0    00    BD        
0010001300410B   100029622306870                                                                                                                                                                                                                
0010001300411A0000000010697280000000324493 VANESSA DOS SANTOS SABINO                         18082023BRL0000000000000000000000000983840000000000477982700718082023000000000098384                                        0 0    00    BD        
0010001300412B   100034741098800                                                                                                                                                                                                                
